:020000040800F2
:10000000B01D00204D010008F12C0008E327000876
:1000100000000000000000000000000000000000E0
:10002000000000000000000000000000052F000894
:1000300000000000000000000B010008132F000862
:100040005F0100085F0100085F0100085F01000810
:100050005F0100085F0100085F010008250A000831
:100060005F0100085F0100085F0100085F010008F0
:100070005F0100085F0100085F0100085F010008E0
:100080005F0100085F010008F52F00085F0100080C
:100090005F0100085F0100085F0100085F010008C0
:1000A0005F0100085F0100085F01000831350008AA
:1000B0005F0100085F0100085F0100085F010008A0
:1000C0000348854600F03EFC00480047E544000830
:1000D000B01D0020084B19680868203080F309889B
:1000E000022080F31488BFF36F8F3FBCAE4608BC7C
:1000F00004BC62B61847000050000020EFF31080E7
:1001000072B6704780F310887047EFF309800E4B8A
:100110001A6820381060F0C044464D4656465F4687
:10012000F0C008B572B605F0EDFA62B60CBC116805
:1001300008681030F0C8A046A946B246BB4680F316
:1001400009882038F0C8184750000020044880472C
:1001500004480047FEE7FEE7FEE7FEE7FEE7FEE7AE
:10016000992F0008C100000830B50B460146002059
:100170002022012409E00D46D5409D4205D31D46AD
:100180009540491B2546954040191546521E002DA5
:10019000F1DC30BD70B500242546002801DA0124C9
:1001A0004042002901DA01254942FFF7DDFFAC4258
:1001B00000D04042002C00D0494270BD10B5202A2A
:1001C00004DB0846203AD040002110BD0B46D34046
:1001D000D0402024A21A91400843194610BD0000C7
:1001E000004870475C5B000838B50446C0681821B9
:1001F000401E4843A16840183C21484361684018AC
:100200003C2148432168451860690C214843216915
:1002100040186921C900401A3021FFF7BBFF114A7D
:1002200050434219084600921A2902DB0E49511820
:1002300000910C21FFF7AEFF0C4A5043009A801842
:1002400000900B4806E0491E425C074B5A43009B56
:10025000D21800920029F6DC2146684600F086FAA2
:10026000009838BD801F8607805101008033E1016E
:10027000605B000803460B439B0703D009E008C9F5
:10028000121F08C0042AFAD203E00B780370401C46
:10029000491C521EF9D27047D2B201E00270401CD4
:1002A000491EFBD270470022F6E710B513460A46F6
:1002B00004461946FFF7F0FF204610BD421C0178A6
:1002C000401C0029FBD1801A704710B5002200E0C5
:1002D000521C835C8C5CA34201D1002BF8D1D8B2B4
:1002E000E1B2401A10BD0000F7B5009C0F46002691
:1002F0002578641C002D05D0FFF772FF0068405D73
:10030000C007F5D12B2D02D02D2D18D0641E3946F3
:100310002046029A00F064FA002F04D03968A14206
:1003200001D1009939607105022400290BDA40429D
:10033000002803DD03F062F90460A007FEBD012080
:1003400080020643E3E70028F8DA03F057F9046077
:100350000048FEBDFFFFFF7FF0B507460846584046
:1003600087B0C00F049048000E4659004008490865
:10037000BC1A884105D2384631461E4617460B4600
:1003800002465800400810434CD0300D0390400501
:100390005900400D490D0590401A0290402872DA2C
:1003A00018030121000B09050843019004980092ED
:1003B000002805D001995242002088410092019006
:1003C000029840210A1A0199009800F0ABF90546FD
:1003D0000C466B4607CB00F0B5F9C0197141039A82
:1003E0000E0D0023D71756401A467A40164344D0C4
:1003F000049A002A2DD0029A012A039A15DC1205CC
:10040000C01A914101263605001C7141D20F059E8C
:10041000D2070093019202962A46234600F040FA42
:1004200007B0F0BD38463146FAE71605224A0F46B6
:10043000B218C01AB74101210905001C4F4100182C
:100440007F41114618187941E20F10436D1964413C
:1004500013E0E2076D0815436408C2071443039ACA
:1004600001261205C01A91413605001C7141CE07C4
:10047000400830434908C01851412A46234600F03D
:1004800002FACDE7FFE7049801224000C117121AD3
:1004900000238B4104983146C417381AA141EEE776
:1004A00030B40124E407634030BC55E730B4012484
:1004B000E407614030BC4FE70000E0FFF0B51FB437
:1004C00088B00B990998002448400999C00F490049
:1004D00049080991C0070B990090490049080B9100
:1004E00009990898A64608431CD00B990A98084316
:1004F00018D0099801244000420D4800410D099888
:1005000024050003000B204309900B980003000B07
:1005100020430B9050181C494018002201901446AB
:10052000104605E0002001460DB0F0BD032801DAB9
:10053000034600E003239C46C11A0AAE0AE05F00AE
:1005400008ADED5B4F00F75B7D430027AA187C41A7
:10055000491C5B1E6145F2DD410004AB5A52210487
:10056000120C0A43240C401C0828DFDB019802907F
:100570000099704601910090059B049A079906988E
:1005800000F08EF9D0E700000DFCFFFFF0B50C463F
:100590005C4085B0E40FE40703944C000026640837
:1005A00059009446490802460296224321D06246E9
:1005B0000A431ED06200570D4A000E032303550D57
:1005C000012402462C492405781B1B0B360B4018CE
:1005D00023432643614600901C46501AB44103D37E
:1005E0000098401C009002E0921800985B4100289F
:1005F00003DA0020014605B0F0BD00200121090505
:100600000746864611E064461D46141BB54106D3D5
:100610006546521BB341744607430C43A646CD07BB
:1006200040084908284392185B4105460D43EAD12A
:100630001046184313D06046194650407140084395
:1006400006D06046101AB34106D20122002306E00C
:1006500000220123DB0702E00122D243531000985D
:1006600074460105381C6141029C039D00196941D3
:1006700000F009F9BFE70000FD0300000EB50549D1
:100680000291002100910A460B46019100F008F901
:1006900003B000BD330400004A0009030123090B25
:1006A0001B051943094B10B5520D9A4201DA00207F
:1006B00010BD064B34339A4203DC9A1AFFF77EFDD5
:1006C00010BD03495118884010BD0000FF03000011
:1006D000CDFBFFFF10B5002904DB0124E4074042F5
:1006E0008C412146002B04DB1C460123DB075242D0
:1006F000A3418B4200D1824210BD000010B50029F9
:1007000004DB0124E40740428C412146002B04DB3A
:100710001C460123DB075242A341994200D190427B
:1007200010BD000010B5202A04DB0146203A91409C
:10073000002010BD914020239C1A0346E34019433A
:10074000904010BD10B5202A06DBCB170846203A92
:100750001041C1170B4306E00B461341D040202443
:10076000A21A91400843194610BD000070B50C460E
:1007700000683C21FFF7F8FC21603C21FFF7F4FC06
:1007800061601821FFF7F0FC0546A1600721001DFC
:10079000FFF7EAFCA1610F48A90008180E49FFF70E
:1007A000E3FC0246443288086261E0613B2802D3E0
:1007B000910700D0401C0021084B0A462161995C3A
:1007C000814203D8401A521C2261F8E7401CE060C5
:1007D000204670BD6C0B0000B5050000905C000861
:1007E000F7B582B0029C00272078641C154601975B
:1007F000302802D0002D15D015E020780127641C88
:10080000782804D0582802D0002D09D00BE0002D04
:1008100001D0102D07D1002710252078641C02E09C
:10082000082500E00A250026009610E0009901271F
:1008300069430818020C294680B2714300908E1853
:100840003804864201D3012001902078641C294697
:1008500000F08AF80028E9DA0398002805D0002F74
:1008600001D0641E00E0029C04600198002806D0BC
:1008700002F0C4FE02210160C81E05B0F0BD00995F
:1008800030040843F9E710B5002B08DA0024401CB7
:10089000614192185B411A4301D14008400010BDEC
:1008A000F0B51FB482B005460C0003D0084602F034
:1008B00051FE02E002F04EFE20300246009021463A
:1008C0002846FFF72FFF049B059A04460F4618435E
:1008D0001143084314D0184610431BD00098402100
:1008E0000A1A18460599FFF769FC05460E46009A54
:1008F00005990498FFF716FF084305D0012004E08E
:100900002046394607B0F0BD0020C11705430E430D
:100910002C43374300990E986305401A7905E40A81
:1009200000220C43FD0A0A3002D500200146E9E707
:100930000105101969410C9C0D9D00196941FFF7D3
:10094000A2FFDFE7064C0125064E05E0E36807CC71
:100950002B430C3C98471034B442F7D3FFF7B4FB59
:10096000D85C0008F85C00083A2800D23038202310
:1009700002469A43412A01D310463738884201D3B0
:100980000020C043704770B54B005B0803430BD099
:100990004B005C0D002633466542B341D417AD1AB7
:1009A000A34102DB0020014670BD12053018514101
:1009B00070BD00000EB5C217C10F5040CA074018E5
:1009C0000021054B0293019200910A460B46FFF766
:1009D00067FF03B000BD00003304000070B5CD0F09
:1009E0004A0009030123090B1B0519430B4BED07B3
:1009F0000024520D9A4201DA002070BD074B3433B7
:100A00009A4203DC9A1AFFF7D9FB02E00449511815
:100A100088402C43F1D0404270BD0000FF0300002D
:100A2000CDFBFFFF10B50120C00300F09FF810BD03
:100A300070B50024014620314A78022A03D00421EF
:100A40008163012416E0026813680E25AB4313602E
:100A5000026813685B085B0013600125036C2A467B
:100A60009A40C36B5A604D7000220A70416B002996
:100A700000D08847204670BD31B500F03DF9009C9C
:100A80000546601C00D0641C00F036F9401BA042F3
:100A9000FAD338BD3EB5324CE17900295FD101214E
:100AA000C90388425BD12F4D0920297CC00600294B
:100AB00001D0002200E00122802100F016F9E86B4D
:100AC000112808DB274804F0F7FA002803D125484D
:100AD00003F022FB6061224B60699B1D401C5A1E83
:100AE000511E6D4660610EC509216156E122120159
:100AF0005143DB1E08185A1E511E04F004FD207AD3
:100B0000002804D120790C2801D90C382071164A0C
:100B10002079114601231C3140B204F0D5FC124A61
:100B20006079383A114601231C3140B204F0CCFC04
:100B30000D4AA079703A114601231C3140B204F0ED
:100B4000C3FC094D0024383538200549604340195D
:100B500001220A3103F04AFC641C062CF4DB3EBD82
:100B60000C000020E00200204801002010B50449DC
:100B70004A69024202D04861FFF78CFF10BD0000B5
:100B800000040140F8B5002292E001249440A446FC
:100B900023407DD04C68022C01D0122C0CD1D408FB
:100BA000A4002618356A5407E40E0F27A740BD435A
:100BB0000F69A7402F433762066855000324AC40F5
:100BC0000F79A643BF07BF0FAF40374307604E689A
:100BD000012E05D0022E03D0112E01D0122E0ED1DF
:100BE0008668CF68A643AF4037438760476866464C
:100BF000B7430E79F606F60F96403E434660C66848
:100C0000A6438C68AC403443C4604C68E4004ED5C5
:100C10002A4CA56901263543A561A469950834408D
:100C20000094274CAD002F19BD689407240F0F26A0
:100C3000A640B5430926F606B04201D1002614E0CD
:100C4000204EB04201D101260FE01F4EB04201D12B
:100C500002260AE01D4EB04201D1032605E01C4EDB
:100C6000B04201D1042600E00526A6402E43BE6016
:100C7000184D2C684E689C43F60300D51C432C602D
:100C80006C684E689C43B60300D51C436C6000E062
:100C90000DE0AC684E689C43F60200D51C43AC6086
:100CA000EC684E689C43B60200D51C43EC60521CB5
:100CB0000B681C46D44000D067E7F8BD0010024026
:100CC000000001400004004800080048000C0048F3
:100CD00000100048000401400069084000D00120D5
:100CE000704742694A4042617047002A01D08161E1
:100CF000704781627047000001480068704700003B
:100D00004000002070B5024640325378202B1CD1A1
:100D10001378012B19D00124147024235370036815
:100D20001D68A5431D6003681D682603B5431D604B
:100D300003681D680D431D60006801682143016060
:100D4000202050700020107070BD022070BD70B562
:100D5000024640325378202B1BD11378012B18D038
:100D6000012515702423537003681C68AC431C6074
:100D700003681C680F263602B44309022143196038
:100D80000068016829430160202050700020107025
:100D900070BD022070BD000070B5040006D025466D
:100DA000403568780026002802D005E0012070BD9B
:100DB0002E70204600F0F0F9242068702068016849
:100DC0004908490001600F216068090688432168CD
:100DD0000861206882680121C9038A438260E06853
:100DE0000128A06808D02122920210432268906056
:100DF000E068022802D005E00843F7E701202268F6
:100E0000C0025060206842680F4B1A43426020685D
:100E1000C2688A43C260616920690843A169090206
:100E200008432168C860216AE069084321680860B6
:100E30002068016801221143016066642020687007
:100E40002663AE70002070BD00800002FFB504462E
:100E5000002083B02546403501906A781F46202A3D
:100E60007ED122689269D243120479D52A78012A68
:100E700076D001222A7024226A7060648805800D71
:100E80000290E068012802980BD00521C9024018A1
:100E900001218902884321684860FFF72DFF06463B
:100EA0000FE03049F3E7781C0BD0002F04D0FFF798
:100EB00023FF801BB84204D92020687000202870CE
:100EC00043E020688169C943890606D58069C0432B
:100ED000C00602D56878A028E5D1206880693B4625
:100EE000C043C00600960ED500222021204601F006
:100EF000D7FC002829D121682020C8616870002013
:100F0000287007B0F0BD00222021204601F0C8FC67
:100F100000281AD121681020C86121682020C861EA
:100F20000198411C01910599884214D120684168BB
:100F300001229203114341603B46002220212046BA
:100F4000009601F0ADFC002802D00320D9E707E0AD
:100F500021682020C86101990598814291D3ABE7AF
:100F60000220CEE700200002FFB5054604464035CA
:100F7000687881B020287ED1287801287BD0012094
:100F80002870FFF7B9FE0746012200901923D1030C
:100F9000204601F085FC00283FD1222068701020F7
:100FA000A870002666640398606204986085666392
:100FB000618D09208002FF2903D9FF22228500903C
:100FC00034E0618D2185009036E02046029901F0E1
:100FD00055FC36E001F088FC002803D0606C042842
:100FE00047D01AE02068416A606A421C6262017060
:100FF000208D401E80B22085618D491E61850028AC
:101000001FD1608D00281CD000970022802120462F
:101010000A9B01F045FC002802D0032005B0F0BD7A
:10102000608DFF2805D9FF222285009601231B062B
:10103000CBE7608D20850096208D0123C2B25B0630
:10104000C3E7608D0A9900283A462046C2D101F0D4
:1010500087FC0028C2D120682022C2612068416834
:10106000064B194041606A70AE702E700020D5E7C3
:1010700001E00120D2E70220D0E7000000E800FEF6
:10108000FFB5054604464035687881B020287ED1FA
:10109000287801287BD001202870FFF72DFE074615
:1010A000012200901923D103204601F0F9FB00280A
:1010B0003FD1212068701020A87000266664039834
:1010C0006062049860856663618D01204003FF299A
:1010D00003D9FF222285009034E0618D21850090A4
:1010E00036E02046029901F0C9FB36E001F05FFCD2
:1010F000002803D0606C042847D01AE0606A411CC5
:101100006162216800788862608D401E6085208D54
:10111000401E0004000C20851FD1608D00281CD0CB
:1011200000970022802120460A9B01F0B9FB00288D
:1011300002D0032005B0F0BD608DFF2805D9FF2245
:101140002285009601231B06CBE7608D2085009643
:10115000208D0123C2B25B06C3E7608D0A99002887
:101160003A462046C2D101F0FBFB0028C2D12068DC
:101170002022C26120684168064B194041606A70B4
:10118000AE702E700020D5E701E00120D2E70220EA
:10119000D0E7000000E800FE00B500680E4987B007
:1011A000884216D1032000020090122001210190F4
:1011B000032002910491039069460848FFF7E2FC7E
:1011C0000748C269012149050A43C261C069084054
:1011D000059007B000BD0000005400400004004826
:1011E0000010024070B504000FD021681348086059
:1011F00021681348086003CC41602068083C2168DE
:101200008860FFF779FD054608E0012070BDFFF713
:1012100073FD401B272801D9032070BD2068C068DA
:101220000028F4D120680269E1688A4201D0016196
:1012300001E004490160002070BD0000CCCC00003A
:1012400055550000AAAA000000680249016000206C
:1012500070470000AAAA000002480168491C01600A
:10126000704700004000002010B5064801681022B9
:1012700011430160002000F007F800F041F8002061
:1012800010BD00000020024000B5014687B00022DA
:10129000122000F061F8122000F054F81348C269DF
:1012A00020210A43C261C0690840059004A968462C
:1012B00000F09EF900F0BEF90D49FEF755FF0E490A
:1012C0000C4A0A600D4A401ECA604860002008614E
:1012D0008860084600F018FF002802D0012007B0FF
:1012E00000BD054800F048FFF9E70000001002408B
:1012F00040420F00001400407C060020E70300007D
:1013000008B50F488169012211438161816911404B
:101310000091C26901040A43C261C0690022084009
:1013200000901146501F00F017F803210022481FBB
:1013300000F012F803210022081F00F00DF808BD8C
:1013400000100240C106C90E012088400149086012
:101350007047000000E100E010B501F0CBFC10BDCB
:10136000BFF34F8F04490348C860BFF34F8F00BFDE
:10137000FDE700000400FA0500ED00E0F8B50446C2
:101380000068434DC00353D5E8690026C00007D468
:10139000E96928040143E961E969014001260091F6
:1013A0003C480168C90510D40168821511430160E9
:1013B000FFF7A2FC074604E0FFF79EFCC01B642871
:1013C00023D834480068C005F6D5286A03210902ED
:1013D00008401FD062680A4082421BD0286A2A6AED
:1013E0008843012109040A432A622A6A8A432A623D
:1013F0002862C0070ED0FFF77FFC074607E0FFF723
:101400007BFCC11B2448814201D90320F8BD286A16
:101410008007F4D5286A03210902884361680843DC
:101420002862002E04D0E969012000078143E961A8
:101430002078C00705D0286BA16880088000084389
:1014400028632078800706D5286B03210904884388
:10145000E168084328632078800605D5286B1021B1
:1014600088432169084328632068800305D5286BD9
:1014700080218843A169084328632088400505D559
:10148000286B402188436169084328630020F8BD28
:10149000001002400070004088130000F8B50546B7
:1014A0004E480E460068C007C00FB0420AD24B48F3
:1014B000016849084900314301600068C007C00F56
:1014C000B04270D12878464F800705D57868F02162
:1014D0008843A968084378602878C00753D06868B3
:1014E000012817D0022818D0032819D03968890795
:1014F000002958DA79688908890001437960FFF783
:10150000FBFB04466868012813D002281DD003287D
:1015100027D034E039688903EAE739688901E7E7C9
:10152000796BC903E4E7FFF7E7FB011B2D48814214
:1015300023D878680007800F0128F4D123E0FFF753
:10154000DBFB011B2748814217D878680007800F12
:101550000228F4D117E0FFF7CFFB011B214881429D
:101560000BD878680007800F0328F4D10BE0FFF751
:10157000C3FB011B1B48814201D90320F8BD7868D9
:101580000007800FF3D115480168C907C90FB142A0
:101590000BD9016849084900314301600068C00760
:1015A000C00FB04201D00120F8BD2878400706D511
:1015B0007868072109028843E9680843786000F0E9
:1015C00049F87968084A0906090F515CC84007497B
:1015D00008600020FFF758FE0020F8BD0020024000
:1015E0000010024088130000C05A00083C00002090
:1015F00010B5072202600A4A53689B079B0F43609D
:101600005368F02423408360526807231B021A406A
:10161000C26004480068C007C00F086010BD000029
:10162000001002400020024001480068704700009E
:101630003C0000200448054900684968044A4905FF
:10164000490F515CC84070473C0000200010024028
:10165000D05A000830B516A00FC889B06C460FC428
:1016600017A00FC80FC41A4D6A680C20114601401C
:101670001848042905D0184B082904D00C2900D19A
:10168000184609B030BD9102090F6C46645CE96AE6
:1016900004AD0907090FD203695C920F022A02D038
:1016A000032A00D11846FEF75FFD6043E9E700001A
:1016B00002030405060708090A0B0C0D0E0F101093
:1016C0000102030405060708090A0B0C0D0E0F1092
:1016D0000010024000127A00006CDC02FEB50446E5
:1016E0000078EF4EEF4DC00747D068680007800FC5
:1016F000012818D068680007800F022804D16868A4
:10170000C003800F02280ED06068012812D001218A
:101710008904002801D0052816D02868B043286025
:101720002868884308E02868800326D56068002878
:1017300073D022E02868304328606068002810D009
:10174000FFF7DAFA074608E0286808432860F1E75F
:10175000FFF7D2FAC01B642870D828688003F7D539
:101760000BE0FFF7C9FA074604E0FFF7C5FAC01B14
:101770006428F1D828688003F7D4207880073ED504
:1017800068680007800F14D068680007800F02287F
:1017900004D16868C003800F01280AD0E0680028DF
:1017A00028681DD0012108432860FFF7A5FA0746E5
:1017B0000BE0286880070BD5E06801282DD107E0F1
:1017C000FFF79AFAC01B0228C6D828688007F7D509
:1017D0002868F82188432169C900084328600EE081
:1017E000400840002860FFF787FA074604E0FFF74B
:1017F00083FAC01B0228AFD828688007F7D4207866
:10180000000724D5E0690028686A10D00121084348
:101810006862FFF771FA074605E03FE1FFF76CFAEF
:10182000C01B022898D8686A8007F7D50FE04008E7
:1018300040006862FFF760FA074605E0C3E0FFF783
:101840005BFAC01B022887D8686A8007F7D4207823
:1018500004274007002861DA00200190E869C000F1
:1018600008D4E969B8060143E961E969014001204A
:10187000009101908C480168C90511D40168821556
:1018800011430160FFF738FA009005E0FFF734FAE2
:101890000099401A642897D883480068C005F5D598
:1018A000A06801280AD0002801D0052811D0286A94
:1018B000400840002862286AB84302E0286A0121F3
:1018C00008432862A068002812D0FFF715FA00909C
:1018D0000AE0286A38432862F0E7FFF70DFA00991A
:1018E000411A724881426ED8286A8007F5D50DE00A
:1018F000FFF702FA009006E0FFF7FEF90099411A9F
:101900006A4881425FD8286A8007F5D40198002888
:1019100004D0E869012109078843E8612078C006FE
:1019200035D5606901280CD0401D686B24D0384340
:101930006863686B400840006863FFF7DDF907469D
:1019400022E0686B38436863686B01210843686371
:10195000FFF7D2F9074604E0FFF7CEF9C01B0228D3
:1019600031D8686B8007F7D5686BF8218843A16987
:10197000C900084368630AE0B8436863F4E7FFF707
:10198000BBF9C01B02281ED8686B8007F7D42078EB
:10199000800637D568680007800F032814D0686870
:1019A0000007800F022804D16868C003800F032855
:1019B0000AD0206A0028686B16D030436863FFF7AE
:1019C0009BF906460CE062E0686BC0031AD5206AFA
:1019D000012863D116E0FFF78FF9801B022856D843
:1019E000686BC003F7D50DE0B0436863FFF784F977
:1019F000064604E0FFF780F9801B022847D8686B91
:101A0000C003F7D4606A002846D069680907890FC7
:101A1000022943D001273F060228286805D0B84391
:101A20002860FFF769F9044633E0B8432860FFF700
:101A300063F9064604E0FFF75FF9801B022826D809
:101A400028688001F7D4E86A216B00090001084387
:101A5000E862A16AE06A084369687B22D203914385
:101A600008436860286838432860FFF745F9044652
:101A700004E0FFF741F9001B022808D8286880011C
:101A8000F7D509E0FFF738F9001B022801D9032038
:101A9000FEBD28688001F5D40020FEBD0120FEBDFA
:101AA0000000010000100240007000408813000098
:101AB00010B500680B464068C021C94301400002D0
:101AC000000ECC04D870E40E5C708C06A40E0904E1
:101AD000490F9C701970002A0AD101F02DF9D870B5
:101AE000587801F029F95870987801F025F9987024
:101AF000002010BD30B50B460168896A5960016845
:101B000009694904490C9960006804680F48214636
:101B1000014088024D04800E18706D0E49065D70FC
:101B2000490E99706102490E40242140D970002A63
:101B30000AD101F001F91870587801F0FDF85870D9
:101B4000987801F0F9F89870002030BD7F7F7F0011
:101B500070B5040003D0607F002802D006E00120A9
:101B600070BD00202077204600F04CF802206077FE
:101B70002168CA204862216853204862204601F04B
:101B8000EEF8FF250426002824D1206881681C4A2D
:101B9000114081602068816862686369114322692D
:101BA0001A43114381602168E06808612068016977
:101BB00022891204114301612068C1688022914387
:101BC000C16020688068800608D4204600F000F9D3
:101BD000002803D0206845626677C0E72068016C62
:101BE00001229204914301642068016CA2691143AF
:101BF00001642068456201206077002070BD00000C
:101C0000BFFF8FFF00680549884205D10448016A7B
:101C10000122D203114301627047000000280040F6
:101C200000100240F8B50446007F0B46012823D07F
:101C300001202077022060775878002A1ED001F01A
:101C40007BF8987801F078F8D8789D7800040543FF
:101C50005878197800024903084305432168CA20CF
:101C60004862216853204862204601F078F8002637
:101C7000FF2700282AD117E00220F8BDC10603D5AE
:101C8000EF2108400A305870D87801F05DF805045B
:101C9000587801F059F800020543987801F054F89B
:101CA000054318784003D8E70F4805402068456091
:101CB0002068C16880229143C160206880688006E6
:101CC0000BD4204600F084F8002806D02068476234
:101CD0000420607726770120F8BD20684762012044
:101CE000607726770020F8BD3FFFFF00F8B5044677
:101CF000007F0D4601280ED001202077022060775A
:101D0000206800268068002A07D0400618D5287869
:101D100001F012F815E00220F8BD400600D4EE7084
:101D2000287801F011F80704687801F00DF8000236
:101D30000743A87801F008F80743E878000409E0B1
:101D4000EE702878AF78000407436878E9780002DD
:101D50000904084307432168CA20486221685320C8
:101D60004862204600F0FBFF00281ED117480740BC
:101D70002068076020688168012292049143816095
:101D8000E9682869014320688268114381602068FE
:101D9000C16880229143C1602068806880060CD4AD
:101DA000204600F015F8002807D02168FF2048627F
:101DB0000420607726770120F8BD2168FF20486263
:101DC0000120607726770020F8BD00007F7F7F002C
:101DD00070B505460068C168A0229143C160FEF756
:101DE0008BFF7D260446F60006E0FEF785FF001B0C
:101DF000B04201D9032070BD2868C0688006F4D5C0
:101E0000002070BDF8B5040007D0002625464035F7
:101E1000A662687F002802D005E00120F8BD2E7779
:101E2000204600F04BF802226A77206801684023C0
:101E3000994301600723E0681B02984201D9002101
:101E400001E0012109030F273F02B84202D0984266
:101E500000D0A662276B002F05D1984201D92263DA
:101E600001E001202063A268606863691043226971
:101E70001A4310430123A2695B021A401043E2692E
:101E80001043226A1043A26A104322681060626BFA
:101E9000606AA36910431B0C0427E2683B401A43A5
:101EA00010430843216848602068C1697A02914361
:101EB000C1612666012068770020F8BD00B5006882
:101EC0000D4987B0884214D10C48826981140A43B5
:101ED000826180690840059038200090022000212E
:101EE0000190032002910491039069460448FEF793
:101EF00049FE07B000BD0000003001400010024064
:101F000000040048FFB5044683B000202746403750
:101F10000090387F1E460D46012809D001203877F1
:101F2000FEF7EAFE0190787F012804D0022050E0FD
:101F3000022007B0F0BD002D2FD0059800282CD02E
:101F40000320787700202066A5630599A18705996D
:101F5000E1872064B880F8802065E0640121A068F2
:101F6000C903884205D12068016801229203114308
:101F7000016020680168490603D4016840221143CA
:101F800001600720E1680002814260682CD90028C6
:101F900005D0E08F012802D022E0012019E021685D
:101FA0002888C86005E020688168890706D52988E7
:101FB000C160E08F401EE087AD1C11E0002E07D00D
:101FC000701C0DD0FEF798FE0199401AB04207D35D
:101FD0000320009001207877002038770098A8E748
:101FE000E08F0028DFD131E0002802D0E08F012807
:101FF00029D1E08F012803D921682888C8600CE026
:102000002168287808730FE020688168890710D557
:10201000E18F012906D92988C160E08F801EE08701
:10202000AD1C10E029780173E08F401EE0876D1C25
:1020300009E0002ECCD0701C05D0FEF75DFE0199A2
:10204000401AB042C4D2E08F0028DDD1314620468C
:10205000019A00F0A0FE002801D020202066A06890
:10206000002803D12068C16880680190206E002894
:1020700093D1AFE7042204490428086902D09043B1
:10208000086170471043FBE700E000E0094910B524
:10209000401E884201D9012010BD074C6061032118
:1020A000081F00F027FE0020A0610720206100200B
:1020B00010BD0000FFFFFF0000E000E07047704728
:1020C00070B502462032137F012B1BD001241477F8
:1020D0000223537703685D687026B5435D6003682B
:1020E0005D680E6835435D6003689D688026B54372
:1020F0009D600068836849680B43836054770020C3
:10210000107770BD022070BD70B5040005D0254663
:102110002035687F002802D006E0012070BD002035
:102120002877204600F00AF802206877211D2068F1
:1021300000F068FF01206877002070BD08B50068D6
:1021400001218907884207D10448C169012211434E
:10215000C161C0691040009008BD0000001002403D
:102160000222014620314A770068026801231A439F
:1021700002604B77002070470168CA6801231A4348
:10218000CA60006801681943016000207047F8B513
:10219000054604462035287F012817D001272F77D0
:1021A00002206877206882687726FF23B2431B02EB
:1021B0009A4382600868502836D00EDC202856D01A
:1021C00006DC00284DD010283FD14DE00220F8BD9C
:1021D00030284FD0402838D13BE060282CD07028E0
:1021E00016D001221203801A0DD090422DD1CB6857
:1021F0004A688968206800F04FFF206881680122E2
:10220000920311430EE020688168C908C90009E003
:10221000CB684A688968206800F03EFF20688168C2
:10222000B1433143816010E0CA684968206800F01A
:1022300046FF5021206806E0CA684968206800F01F
:102240004FFF6021206800F032FF6F770020287771
:10225000F8BDCA684968206800F031FF4021206855
:10226000F1E700212068EEE710212068EBE720214C
:102270002068E8E730212068E5E7704770B504463C
:10228000006801690025C9438907002915DBC16879
:10229000C943890711D4E91E016101202077206814
:1022A00080698007204602D0FFF7E7FF04E000F0D6
:1022B00096F8204600F094F8257720680169C94314
:1022C000490717D4C168C943490713D40421C94336
:1022D000016102202077206880698005800F2046F8
:1022E00002D0FFF7CAFF04E000F079F8204600F0C2
:1022F00077F8257720680169C943090716D4C168B2
:10230000C943090712D40821C94301610420207779
:102310002068C0698007204602D0FFF7AEFF04E0C6
:1023200000F05DF8204600F05BF825772068016931
:10233000C943C90617D4C168C943C90613D41021BB
:10234000C9430161082020772068C0698005800F9B
:10235000204602D0FFF791FF04E000F040F820464D
:1023600000F03EF8257720680169C943C90708D104
:10237000C168C943C90704D1891E0161204600F024
:1023800031F820680169C943090609D4C168C94305
:10239000090605D48021C94301612046FFF78EFE5E
:1023A00020680169C943490609D4C168C94349067F
:1023B00005D44021C9430161204600F01DF8206882
:1023C0000169C943890609D4C168C943890605D48E
:1023D0002021C94301612046FFF771FE70BD70479F
:1023E0007047000010B500680249884201D1FEF72D
:1023F00033FF10BD001400407047704710B50068EF
:102400000449884204D101220349044800F01CF920
:1024100010BD0000003801400C0000209C05002089
:10242000F8B502680446D069116805072D0F07D179
:10243000830605D58B0603D5204600F029FFF8BD9D
:102440009368002D64D0DD07ED0FFF2621360E4086
:102450002E435DD0C60706D0CE0504D501261662F0
:10246000E26E3243E266860702220427002E06DA75
:10247000DE0704D026683262E66E3E43E666460713
:1024800006D5DB0704D023681F62E36E1343E366BF
:10249000020709D520220A402A4305D023680822D2
:1024A0001A62E36E1343E366E26E002AC7D0800629
:1024B00004D5880602D5204600F0EAFEE06E00074B
:1024C00003D42068806840061CD5204600F0C4FE76
:1024D00020688168490611D5816840229143816056
:1024E000606E00280AD01A494163606EFEF7A0FAB8
:1024F0000028A4D0606E416B8847F8BD2046FFF7E6
:102500007DFFF8BD2046FFF779FF0020E066F8BDAB
:10251000C5020DD55B020BD50120000510622021FC
:1025200020466030417281722046FFF766FFF8BD99
:10253000020605D50A0603D5204600F095FFF8BD32
:102540004006FCD54806FAD5204600F094FEF8BDBA
:102550004532000870B5040005D025466035687A1C
:10256000002802D006E0012070BD0020287220461D
:1025700000F026F8242068722068016849084900A4
:102580000160204600F0C2FE0128EDD0606A0028FC
:1025900002D0204600F0B7FD206841680922D2022F
:1025A00091434160206881682A22914381602068BC
:1025B0000168012211430160204600F009FE70BD50
:1025C00070B51D4E016800231C4A022503241C48D7
:1025D00086B0B14219D191696E033143916191691D
:1025E000029331400591C021009101950394049319
:1025F0006946FEF7C7FA002203211B20FEF7ACFE56
:102600001B20FEF79FFE06B070BD0E4EB142FAD100
:10261000D1690126B6043143D161D16901953140B8
:1026200005910321890200910421049103940293EE
:102630006946FEF7A7FAE6E70038014000100240BD
:10264000000400480048004070B5034660339C7A9F
:10265000202C44D100290BD0002A09D00125846800
:102660002D03AC4206D10669002E03D1CE0701D05E
:10267000012070BD1E7A012E31D001261E724165E7
:10268000014640310A834A83FF22AC4204D10469E7
:10269000002C12D1134A10E07F25002C08D0012213
:1026A000120794420AD10269002A04D03F2204E0B2
:1026B0000469002C01D08D8300E08A830021C1666B
:1026C00022229A72197201688A6832438A6000680D
:1026D0000168FF22213211430160002070BD0220F9
:1026E00070BD0000FF01000010B500680649884277
:1026F00009D106480178064801F09EFE01220349EF
:102700000448FFF7A1FF10BD003801400C00002075
:10271000D00200209C050020FFB507460546603723
:10272000787A83B00C46202858D1002C0CD005981C
:10273000002809D00120A9680003814207D1286937
:10274000002804D1E00702D0012007B0F0BD387A9C
:10275000012843D0012038720020E86621207872D9
:10276000FEF7CAFA01902E46403605983082059849
:10277000708218E0708A401E7082069800900022D5
:1027800080212846019B00F0A2FE002818D10120DC
:10279000A9680003814202D12869002812D0296863
:1027A00020780885641C708A0028E3D10698009080
:1027B000002240212846019B00F089FE002808D015
:1027C0000320C2E720882968C005C00D0885A41C25
:1027D000E9E72020787200203872B6E70220B4E7DB
:1027E0007047FEE701688A69D243920701D400224C
:1027F0008A6200688169C943C90703D081690122DF
:102800001143816170470000F8B50446006817461F
:1028100080690E46C043C0062CD42546403520684A
:102820008069C04380060FD5701CF8D0002E04D0FC
:10283000FEF762FAC01BB042F1D920206870002078
:10284000A87028700320F8BD21681020C861206896
:102850002026C6612046FFF7C5FF20684168064A6A
:1028600011404160042060646E700020A8702870E0
:102870000120F8BD0020F8BD00E800FE70B500683A
:10288000049D44688905890D1204044E11431943BF
:10289000344029432143416070BD0000009800FC92
:1028A000F8B51C4617460E46054611E0601C0FD0D1
:1028B000002C05D0FEF720FA0699401AA04207D94D
:1028C0002020403568700020A87028700320F8BDD3
:1028D000286881693046884304D00020B842E5D09A
:1028E0000020F8BD0120F9E7F8B5054617460E4669
:1028F000044640352BE03A4631462046FFF784FF38
:10290000002801D00120F8BD20688069C0438006FE
:102910000DD420682022C261206841680F4B194005
:102920004160002060646A70A8702870EAE7002E99
:1029300004D0FEF7E1F9C01BB04208D9616C202039
:10294000014361646870002028700320F8BD20688E
:102950008069C0434007CED40020F8BD00E800FEE7
:1029600070B516460D4604461AE032462946204602
:10297000FFF74AFF002801D0012070BD002D04D0D0
:10298000FEF7BAF9801BA8420AD9616C20200143E6
:102990006164403460700020A0702070032070BD1E
:1029A00020688069C0438006DFD4002070BD70B508
:1029B00016460C4605461CE0324621462846FFF7DF
:1029C00023FF002801D0012070BD601C11D0002C15
:1029D00004D0FEF791F9801BA0420AD9696C20202F
:1029E00001436964403568700020A8702870032096
:1029F00070BD28688069C0438007DDD4002070BDA9
:102A0000F0B53F4887B042690121C9040A434261D9
:102A100042690A4005924269C9000A43426142691B
:102A20000A400592426949110A43426142690A40DB
:102A30000592426949000A4342614069314F0840AA
:102A40004C110590012221463846FEF74EF9092027
:102A500001222D49C006FEF748F92C4E01223146CD
:102A60002B48FEF742F900940024012501950294B9
:102A7000694638460394FEF785F8032769462548DA
:102A8000009702950194FEF77DF8812000900920BF
:102A90000294694601950394C006FEF773F802207C
:102AA00000900920694601970294C006FEF76AF873
:102AB0001548029481380090112001900920694640
:102AC0000394C006FEF75EF802946946104800962B
:102AD00001950394FEF756F8E80300900E48019024
:102AE000694602940A48FEF74DF8002203210720A8
:102AF000FEF732FC0720FEF725FC07B0F0BD000012
:102B00000010024000080048C1800000077000006B
:102B100000040048001400480000111010B51248CD
:102B200010490160114941600021816001614161EA
:102B300081610122C161C2600162FEF72DF90028A6
:102B400000D0FEE700210848FEF7DCF8002800D09E
:102B5000FEE700210448FEF7FAF8002800D0FEE75F
:102B600010BD0000005400407C0400201A09102011
:102B700010B51849184886B0002412C07F210160A2
:102B80008460C460FF21046141600838FEF7E0FF03
:102B9000002800D0FEE768460470447084700394F7
:102BA000002269460C480494FFF7A0F8002800D0E2
:102BB000FEE701206946087548758875CC750022C6
:102BC00005A90548FFF72EF8002800D0FEE706B05B
:102BD00010BD000000280040D804002010B51148A6
:102BE0000F490160FF21053141600021072281600A
:102BF00012020161C26001224161520282610162DE
:102C000010224162C26181620722C262016308210F
:102C10004163FFF7F7F8002800D0FEE710BD000081
:102C200000300140F804002010B50121124886B0A0
:102C30008907016000242F21846041600461611EC6
:102C40008461C160FFF760FA002800D0FEE7012030
:102C50000003009069460848FFF799FA002800D061
:102C6000FEE7049404A904480594FFF729FA002814
:102C700000D0FEE706B010BD5C05002010B50D4881
:102C80000B4901604B21C901416000218160C16095
:102C9000016181610C22C1614261016208214162CE
:102CA00009034163FFF756FC002800D0FEE710BD82
:102CB000003801409C05002010B50C480A4901600D
:102CC000E1214902416000218160C16001618161AF
:102CD000C1610C22016242614162FFF73BFC0028A6
:102CE00000D0FEE710BD0000004800400C060020A8
:102CF000704700008307FF22DB0E9A408907090E08
:102D0000994000280BDA0007000F083883080848AC
:102D10009B001818C36993430B43C3617047830832
:102D200004489B001818036893430B4303607047E3
:102D300000ED00E000E400E001090A220007514331
:102D4000000F4018C0B27047002102E00A38C0B23C
:102D5000491C0A28FAD20907090E0843704770B5C2
:102D600005460068C168490613D40021C943C16003
:102D7000FDF7C2FF7D260446F60006E0FDF7BCFF26
:102D8000001BB04201D9032070BD2868C06840060E
:102D9000F4D5002070BDF8B50F460B4615460092DD
:102DA000032104460022C90200F01BF82026002857
:102DB00012D13B46002280212046009500F05CF8AD
:102DC000002809D103213B460022490220460095F4
:102DD00000F007F8002803D0206E3043206603205F
:102DE000F8BDF8B51D4616460F4604463DE00321E2
:102DF00049028F4205D1002E03D1007B694608703D
:102E00000878681C31D0002D05D0FDF775FF0699B4
:102E1000401AA84229D320684168E02291434160CA
:102E20006068C11FFD390CD10121A068C903884227
:102E300002D04911884204D12068016840229143A0
:102E400001600121A06A4903884207D12068026815
:102E50008A430260206802680A430260012040340D
:102E60006077002020770320F8BD20688168394012
:102E7000B142BCD10020F8BDF8B51D4617460E463C
:102E8000044633E0681C31D0002D05D0FDF734FF37
:102E90000699401AA84229D320684168E02291434C
:102EA00041606068C11FFD390CD10121A068C903D0
:102EB000884202D04911884204D12068016840222A
:102EC000914301600121A06A4903884207D120682B
:102ED00002688A430260206802680A430260012097
:102EE00040346077002020770320F8BD2068816897
:102EF0003046884304D00020B842C3D10020F8BD3A
:102F00000120F9E77047FF24F534204601F02CFF3B
:102F1000FBE710B501F035FF10BD000030B599B0EA
:102F200028200125002400900895079509946846FB
:102F3000FEF7D4FB002800D0FEE707201490032002
:102F4000159016940121179414A8FEF7A7FA0028EB
:102F500000D0FEE70F480D901020119040010E9018
:102F60000F950DA8FEF70AFA002800D0FEE7FEF73D
:102F70005BFB7D21C900FDF7F7F8FFF787F8042018
:102F8000FFF778F803210022081FFEF7E5F919B0D2
:102F900030BD0000210001001248016801221143E8
:102FA00001604168104A1140416001680F4A1140B8
:102FB00001600168012292049143016041683F224F
:102FC000120491434160C16A09090901C162016BA0
:102FD000074A11400163416B4908490041630021E0
:102FE00081607047001002400CB8FF08FFFFF6FE3A
:102FF0002CFEFCFF10B50248FFF740F910BD0000A1
:103000007C060020F0B502681D4B0124A4071D4D6D
:10301000984203D0A04201D0A84203D17026B24307
:103020004E683243184E194F98420DD0A0420BD033
:10303000A84209D0164CA04206D0B04204D0B842F3
:1030400002D0144CA04204D103242402A243CC6831
:1030500022438024A2434C69224302608A68C262F0
:103060000A688262984206D0B04204D0B84202D0C8
:10307000084A904201D10969016301214161F0BD13
:10308000002C014000040040004001400044014089
:10309000002000400048014030B58468FF252D0223
:1030A0001B021343AC430B432343836030BD826850
:1030B00070239A430A4307210A438260704730B560
:1030C000036A046A6408640004628469F025AC43FE
:1030D000120122430A24A3430B438261036230BDE1
:1030E00030B5036A1024A34303628369046A0F2581
:1030F0002D031203AB431A43A0239C430901214330
:103100008261016230BD10B5818CC90707D00168AA
:103110004A6801235B049A43836A1A434A60818C9C
:10312000890707D501684A6801231B049A43C36ACB
:103130001A434A60818C490707D501684A68012310
:103140009B049A43036B1A434A60818C090707D595
:1031500001684A680123DB039A43436B1A434A60C0
:10316000818CC90607D501688A6801231B039A432D
:10317000836B1A438A60818C890607D501688A6847
:1031800001235B039A43C36B1A438A60818C49060F
:1031900012D501684B6801221205046C9343234346
:1031A0004B60016C914207D101684A6803235B05BB
:1031B0009A43436C1A434A60818C090607D501681B
:1031C0004A680123DB04806C9A4302434A6010BDC5
:1031D000F8B500250446C566FDF78EFD064616497E
:1031E0002068884202D0154988421DD10068144FDA
:1031F000000709D5012133460022490520460097E2
:1032000000F065F900280DD12068006840070BD553
:1032100001213346002289052046009700F057F926
:10322000002801D00320F8BD202060346072A07215
:1032300025720020F8BD0000003801400044004025
:10324000FFFFFF0110B5406A0022014640314A836A
:103250004A82FFF7D3F810BD01680A68FF232133C3
:103260009A430A6001688A68520852008A602021E5
:1032700060308172704710B501680A6840239A4334
:103280000A60202269210A54FFF7AAFA002010BD23
:1032900070B50246403201466031938B8D7A0C4600
:1032A0000168222D05D08869082210438861022018
:1032B00070BD898C012685683603B54202D1056947
:1032C000002D0BD01940436D5D1C45651970518B65
:1032D000491E0904090C518307D015E0456D1940BA
:1032E0002980416D891C4165F1E701680A68FF2367
:1032F00021339A430A6001688A68520852008A6042
:103300002021A172FFF7F0F9002070BDF8B5044646
:10331000A3682269E56913436269102000212A43EA
:10332000134322680E461568474F3D401D43156004
:103330002268536803252D03AB43E5682B43536094
:10334000A369226A1343226895680B273F02BD4395
:103350001D4395603D4B25683D4F02039D420AD1B8
:103360003B6B9B079B0F20D0012B14D0022B14D05A
:10337000032B1BD10DE0374B9D4210D13B6B032734
:103380003F043B4011D09B1A05D09B1A05D09342B5
:103390000CD102200AE0042008E0082006E02E4BB1
:1033A0009D4202D02D4B9D4200D100200123E769B0
:1033B000DB039F4222D100280CD002280DD0042824
:1033C00013D0082817D001260A0912010807400F58
:1033D00010432EE0FEF72EF909E06168204A480804
:1033E0008018FCF7C1FE81B2EEE7FEF733F96168A1
:1033F00040004A08F4E761684808F1E7002808D06F
:10340000022809D004280CD0082815D001263046FF
:10341000F8BDFEF70FF906E06168124A4808801807
:103420000DE0FEF717F961684A088018FCF79CFE6A
:1034300080B22168C860EAE761684808C018FCF7F4
:1034400093FE80B2E860E2E7F369FFEF00380140E5
:10345000001002400044004000480040004C004082
:103460000024F40000127A006921095C212901D0AE
:1034700002207047014640314A8A002A12D00123B7
:1034800082681B039A4202D10269002A15D0C26CDD
:10349000531CC364006812780285488A401E488223
:1034A0000020704701680A6880239A430A60006818
:1034B0000168402211430160F2E7C26C0368128880
:1034C000D205D20D1A85C26C921CC264E5E7FFB525
:1034D00081B01E46174605460A9C1CE0601C1AD0A7
:1034E000002C04D0FDF708FC801BA04213D92868EB
:1034F0000168FF22A1329143016028688168490870
:1035000049008160202060356872A872002028720E
:10351000032005B0F0BD2868C1690298884304D033
:103520000020B842DAD00020F3E70120F9E70000DC
:1035300010B50248FEF774FF10BD00009C05002086
:1035400010B5024A024900F039FC10BD01410008E3
:103550008C0000202021020C01D010211046020A0C
:1035600001D010460839020901D01046091F82080F
:1035700001D01046891E420801D0881E7047081AE3
:103580007047F0B4040C8BB2264682B25E430D0C39
:103590001046370C584336048019002179411646ED
:1035A0006E43370C36048019794126466E438919DB
:1035B000F0BC704730B47446641E2578641CAB427E
:1035C00000D21D46635D5B00E31830BC1847000065
:1035D0004900CA020243100000D004204A0D01D065
:1035E00001221043044A490D914201D102210843AE
:1035F000012800D105207047FF07000000487047F0
:1036000098000020F7B596B014460021A160D16063
:10361000179909914D00CD496D088D4205DC179928
:1036200061602060002019B0F0BDC949C94E8D42CB
:1036300038DAD32709997F050029C74A17993346F5
:1036400017DDFCF72DFFB54206D0C44AC44BFCF78A
:1036500027FF6160206009E03A46C14BFCF720FF7C
:10366000C04AC14BFCF71CFF61602060012019B00B
:10367000F0BDFCF771FEB54206D0B84AB84BFCF776
:103680006BFE6160206009E03A46B54BFCF764FED2
:10369000B44AB54BFCF760FE616020600020C04377
:1036A00019B0F0BDB1498D42179977DC490049083E
:1036B0000746AF4AAF4B0491FCF700FF0022AE4B28
:1036C000FCF74AFEFDF78AF90A90FDF773F9A24A62
:1036D000334603910290FCF7F1FE3A46049BFCF757
:1036E000E5FE06460F469D4A9D4B03990298FCF75E
:1036F000E5FE2A0D01250C9232463B46FCF7D6FE2C
:1037000061602060032D39D04800410D0C98401AAB
:10371000690169181139814230DA984928017944E0
:1037200008960D9008180497436802680399029858
:10373000FCF7C4FE02460B460791069004990898D0
:10374000FCF7AEFE06460F46049B089AFCF7AEFE59
:10375000079B069AFCF7A4FE0591894904907944D9
:103760000D984018C368826803990298FCF7A6FE7A
:10377000059B049AFCF794FE6D1CBDE70998002890
:1037800009DA01226068D207504060600A9819B0D7
:103790004042F0BD02E00A9819B0F0BD09030122D1
:1037A000090B12050E908918179810914000754961
:1037B000400D40184111C006C00E0D9113902021FC
:1037C000081A1490002006900525079013980028E9
:1037D0000D980CD0401982006B4878448758139993
:1037E0008F40101841681498C1400F4304E04019FD
:1037F000810066487844475810993846FFF7C1FE63
:1038000006460A9138460E99FFF7BBFE8A190A9BB5
:103810008A4201D2012100E00021C9188C46AF0084
:10382000694679188B684E68C318834201D201201B
:1038300000E0002096193618002802D0964202D9DE
:1038400003E0964201D2012000E0002062461218F7
:103850004E6068468B60C25128466D1E0028B5DC5C
:103860000121029849074018800F1390029805998A
:103870008000039E049D0B91FDF79CF8074630469F
:103880000891FCF7FBFE1D22D243FDF77CF8109057
:103890000F912846FCF7F2FE3D22D243FDF773F864
:1038A0000E900D910B98FCF7E9FE5D22D243FDF7D7
:1038B0006AF80B910C900D9B0E9AFCF74DFD0F9B37
:1038C000109AFCF749FD3A46089BFCF745FD002598
:1038D0000E463A462846089BFCF7E2FD0F9B109ADD
:1038E000FCF7DEFD0D9B0E9AFCF7DAFD0B9B0C9AA4
:1038F000FCF7DCFD264A274BFCF7E0FD07460D915F
:10390000254A264B31462846FCF7D8FD3A460D9B02
:10391000FCF722FD0F4615220C9092061D4B3146F6
:103920002846FCF7CBFD3B460C9AFCF715FD179A91
:10393000002A05DA139A524213920122D20751400B
:1039400061602060139819B0F0BD0000FB21E93FD1
:103950007CD90240FB21F93F000040543163621AD8
:1039600061B4D03D7370032E8A19A33BFB2139410A
:1039700083C8C96D305FE43F0000E03F7E24000053
:103980003E2400000BFCFFFFF2230000D8230000C0
:10399000182D4454FB21F93D3326A611460B113C4A
:1039A000F0B51FB44E00F9207608800584B00F46AC
:1039B000864204DA0498FDF711F8002838D0049AFA
:1039C0003B4610461946FCF779FD044602462C4852
:1039D0000D460B460621784400F05CF822462B4643
:1039E000FCF76CFD019100903946079B069A0498FC
:1039F000FCF764FD0746029120462946019B009A88
:103A0000FCF75CFD3A46029BFCF74AFD07460022A4
:103A10000091D24320462946FCF7B5FF194A964249
:103A20000ADA3A46009BFCF73BFD0022164B23E0E6
:103A30000020154909B0F0BD144A964202DD002469
:103A4000134D03E001225205B51A002422462B46ED
:103A5000FCF726FD0646019122462B4600200A4926
:103A6000FCF71EFD0D4604463A463046009B019980
:103A7000FCF716FD22462B46FCF718FD09B0F0BDF9
:103A8000962100003333D33F0000F03F0000E93FB0
:103A90000000D23FF8B504464F1EC8000838211870
:103AA00015461E46086849683A4606239A4310D0D0
:103AB0002A463346FCF702FD3A46D200083AA318DC
:103AC0001A687F1E5B68FCF747FC06223B4693435F
:103AD000EED1022F23D0042F11D0062F2FD12A464A
:103AE0003346FCF7EBFCE36AA26AFCF735FC2A4696
:103AF0003346FCF7E3FC636A226AFCF72DFC2A4696
:103B00003346FCF7DBFCE369A269FCF725FC2A4697
:103B10003346FCF7D3FC63692269FCF71DFC2A4697
:103B20003346FCF7CBFCE368A268FCF715FC2A4699
:103B30003346FCF7C3FC63682268FCF70DFCF8BD54
:103B4000F0B51FB4054648000C46F9214008890528
:103B500086B088420BDA28462146FFF739FD042853
:103B600001D100F071F8284621460BB0F0BD2A467D
:103B7000234610461946FCF7A1FC06460F462A4686
:103B80002346FCF79BFC00902548019132463B46BA
:103B900005217844FFF77EFF0290109803910028DA
:103BA00029D0204A204B01990098FCF787FC04900B
:103BB000059168460FC8FCF781FC00220191009036
:103BC000D24309990898FCF7DEFE019B009AFCF7A6
:103BD00067FC32463B46FCF771FC099B089AFCF7F0
:103BE0005FFC059B049AFCF75BFC2A462346FCF726
:103BF0005DFC0BB0F0BD0B4630463946029AFCF72F
:103C00005DFC084A084BFCF7A7FB019B009AFCF7F8
:103C100055FC2A462346FCF79FFB0BB0F0BD000085
:103C2000D2200000495555555555C5BF10B5012244
:103C3000FCF7A9FE10BD002210B513461046114630
:103C4000FCF7A4FC10BD0000034A10B500201107CA
:103C5000FCF799FE10BD000001FDFFFF02E008C85F
:103C6000121F08C1002AFAD170477047002001E0F6
:103C700001C1121F002AFBD170470000FEB50C469F
:103C80004549464E40183146FCF784FA05460091F6
:103C9000002902DA88196D1E00900721E81CFCF744
:103CA00079FA0F0000D5CF1D3D492846FCF772FA7E
:103CB00002900E0004D53A480E180298401E029059
:103CC00038493046FCF766FA0546042800D103253A
:103CD000344835496843301A0190FCF75BFA0646D0
:103CE000192800D11826304801997043081AFF217D
:103CF0006E310190FCF74EFA0146042800D10321F1
:103D0000FF206E30019A4843101A002903D1002E7B
:103D10001AD1002D18D00023C2189C46FF333B3225
:103D20006E339A4203DB6346D21AFF3A6E3AB3000F
:103D3000591864235D434B19FF2502999135694356
:103D40005D180021194E03E00123E5E7C01A491C64
:103D5000735C8342FADD6435891C656121610C293D
:103D600003DB0C396D1C65612161A761401CE261B8
:103D7000E121E06009010098FCF70CFAA0603C2109
:103D80000098FCF707FA0D463C21FCF703FA256082
:103D900000206160FEBD000080A243C78051010089
:103DA000B13A0200AC8E0000B50500008859000849
:103DB000014908607047000098000020F8B51646D9
:103DC0000F460446002503E03946B047641C6D1CCD
:103DD00020780028F8D12846F8BD0000F8B5044640
:103DE00041682A480268207A511A00282CD02546BA
:103DF0000935022822D0032827D0012824D127788A
:103E00006078874220D01E291ED80846FCF736FC71
:103E100000221F4BFCF752FB064600221D4B00916F
:103E2000FCF744FBFCF738FC785530460022194B70
:103E30000099FCF791FAFCF72FFC03E021780020B1
:103E40004855FF2061784855F8BD1046FCF716FC30
:103E5000114A124BFCF732FB01F0F0F900220D4B36
:103E6000FCF72CFB00220E4BFCF776FA06460F46B9
:103E70000022084BFCF742FC01D2064F00262178B5
:103E80000020485530463946D5E700001C00002088
:103E90000000214000E06F409A9999999999B93FA3
:103EA00000C0724010B510210170417000214160C6
:103EB00001728176C17611210930FCF7F4F910BD49
:103EC0002D4F2E482C4C01690025491CA83C01614E
:103ED0001C2068430019FFF781FF38206843C01990
:103EE00000F0E2F96D1C062DF2DB0025224AAA2023
:103EF000B83A10701C20294641431046103009186A
:103F00004878022801D0032801D1AB20107001208D
:103F10000B185B7A5B0880331354401C0B28F7DBCB
:103F20000B200B185B7A5B0880331354401C0D2860
:103F3000F7DB284638210D244843C619E000311824
:103F4000084680388039006A496AFCF7A5FB0006FC
:103F5000410E09488031B8380155641C102CEDDB46
:103F6000EAB2102101F0B8F96D1C062DBEDB11205C
:103F700000F0FAFEA5E70000800100200C00002000
:103F800010B5044601202070FCF7B6FE606010BD3D
:103F900070B50E4604460025FCF7AEFE002E02D09A
:103FA000012E04D00FE0217801290BD00BE02178FD
:103FB000002908D161687D220125411AD200914271
:103FC00000DD022560602670284670BD00B54A00FD
:103FD000224B520887B09A4202DC0022134625E0A9
:103FE0001F4B9A4208D1002808D10120FFF7E0FEBC
:103FF000FFF721FE07B000BD9A4203DBFFF716FE74
:1040000007B000BD02AAFFF7FDFA8107890F0BD0A8
:10401000012001290ED0022916D0009002A80FC855
:10402000FFF78EFD07B000BD02A80FC8FFF7B8FC70
:1040300007B000BD009002A80FC8FFF781FD012264
:10404000D207514007B000BD02A80FC8FFF7A8FC77
:104050000122D207514007B000BD0000FB21E93F1B
:104060000000F07F10B502490860FEF779F810BD36
:10407000340000203EB5C41106210C406946087288
:1040800045200871FF20F5300090A0202146014313
:10409000012302AA0848FCF7F3FF7D20C00000902E
:1040A000A12021460143012301AA0348FCF75CFF3C
:1040B000694608793EBD00007C0400207CB50D46B1
:1040C0000446FFF7D7FFA84217D0E10906200140B8
:1040D000684604714571FF24A020F5340143022392
:1040E00001AA06480094FCF7CBFF23460122A02139
:1040F0000248FCF7ABFE0028F7D17CBD7C04002011
:1041000013B56423012269460248FEF705FB0098B7
:104110001CBD00000C0600201CB50021C94302464E
:10412000009103460191343201A9684600F0C4FAB7
:1041300000981CBD00B58BB0002210491048FDF757
:10414000D9FC00220F490E48FDF7B2FC0D48C1789A
:10415000643105914178491E0491807803900748A5
:1041600001780291417801918078009000200890B8
:104170006846FCF739F8801C0BB000BDB000002089
:10418000D80400200800002010B50220FFF772FFBD
:10419000C007C00F10BD10B50020FFF76BFF40B285
:1041A00001F0DDF910BD000010B5C820FCF764FC7B
:1041B0000B21164800F02CF814480B210B3000F0AE
:1041C00027F812480B21163000F022F80F480B2177
:1041D000213000F01DF80D480B212C3000F018F8AC
:1041E0000A481021373000F013F808482C214730D6
:1041F00000F00EF805481021733000F009F803486C
:104200002821833000F004F810BD00009459000804
:104210008AB210B50146C8230348FEF77DFA322062
:10422000FCF72AFC10BD00009C050020114D0EB5C6
:104230000F4C2E46483E2746F4370F48FDF704F84A
:104240000B4800F035F900280ED0094B0097A43335
:104250001A464C3A0196029511464839E06800F03A
:10426000AFFD034800F036F9372000F07DFDE4E7AC
:10427000D002002030040020C8040020014630395C
:10428000092901D80846704701464139052901D856
:104290003738704701466139052901D857387047CA
:1042A0000020C04370470000F8B53E49044600684E
:1042B0000968081A2179002934D0022933D001294C
:1042C0003ED003292ED10026374F1E2811D8FCF7E7
:1042D000D5F9364A364BFCF7F1F8FFF777FE354A49
:1042E000354BFCF7EBF8354A354BFCF735F806460D
:1042F0000F4600222C4B30463946FCF7FFF901D21D
:10430000294F0026002560194079FCF7B7F932469D
:104310003B46FCF7D3F8EA0012196D1CD16090609F
:10432000032DF0DBF8BD002560194079FCF7A6F9F4
:10433000EA0012196D1CD1609060032DF4DBF8BD0A
:104340001E2822D81F4F0025E8000619736A326A1A
:10435000F168B068FCF700F8F16000223B46B060FD
:10436000FCF7CCF903D217490020F160B0600022BD
:104370001346F168B068FCF7ADF902D20020B060D6
:10438000F0606D1C032DDFDBF8BD0025601940795E
:10439000FCF774F9EA0012196D1CD1609060032DCE
:1043A000F4DBF8BD1C0000200000F03FA4D5CFEBEB
:1043B000E9CECA3F333333333333E33F9A99999984
:1043C0009999F13F00E06F4030B500210B46CA00DB
:1043D000002412189460D460146254624218491C7C
:1043E00053710329F3DB0360037130BDF7B50F464A
:1043F00005460024385DFCF741F9E2005619F368E0
:10440000B268FCF74DF80022094BFCF7BFF8641CBA
:1044100071623062032CEDDB03223946681DFBF725
:1044200029FF04480068286002982871FEBD00003A
:1044300000003E401C00002010B50446C0686268C1
:104440008154A1686068884201DA401C6060E068BD
:10445000002240182038C277FCF74EFC2060002074
:1044600010BD000070B504468160084600F0A8F851
:104470000925ED06E06009E009A0FFF761F8802159
:104480002846FCF72EFCFA20FCF7F6FAE068002834
:10449000F2D000202060204600F01CF8002070BD03
:1044A0006F7574206F66206D656D6F72790A0000FC
:1044B00010B582684168914202DB00F00BF805E01C
:1044C000C06840182038C07F0A2801D0002010BDE5
:1044D000012010BD10B5002141608168C068FBF764
:1044E000E2FE10BD94B0FCF7BFFEFEF717FDFEF72D
:1044F00087FAFEF773FBFEF7DFFBFEF795FBFEF78F
:104500000DFBFEF7BBFBFEF733FB27482549016097
:10451000032141600121C902C1608160FCF762FE94
:10452000002800D0FEE720489430FFF79BFD1E488E
:10453000FCF78AFE00F0FAFD1B48FCF785FE14220A
:104540001A496846FBF796FE0021684600F021FCF8
:10455000174914220860154905A81431FBF78AFE93
:10456000002105A800F015FC1049142228310AA8E2
:10457000FBF780FE00210AA800F00BFC0B49142277
:104580003C310FA8FBF776FE00210FA800F001FCDC
:1045900000F0F2FB7D24E4002046FCF76DFAFCF706
:1045A000DFFEF9E700300040C8040020705A000820
:1045B0003800002001460020842900D0C81C704724
:1045C000F0B50B30C108C900144F0026144A0FE0A3
:1045D00003688B420BD38B4205D95C1A431845689C
:1045E00030C3083B00E04368136002C004E0021DD2
:1045F00010680028ECD13046002803D13868002824
:1046000001D00020F0BD064A06481060064A121A82
:10461000D208D20044C001203860D7E794000020BF
:1046200090000020B4170020B0190020F8B50F4604
:1046300004460026FBF742FE532835D82078641C38
:10464000242831D101E06E40641C2578002D08D06B
:104650002A2D09D0FBF7C4FD0068405D8006C00E1E
:10466000F1D1002F20D110E06078A41CFFF706FEE6
:104670000546401C19D02078641CFFF7FFFD411C43
:1046800012D0290101438E420ED1207800280DD08E
:1046900007A12046FBF719FE002807D005A12046F8
:1046A000FBF713FE002801D00020F8BD0120F8BD63
:1046B0000A0000000D0A0000FFB59768154E8BB088
:1046C0001C461546781C23D02068401C20D02C2185
:1046D0006846FBF7E8FD643705976868401E04905C
:1046E000286803902068029060680190A06800909C
:1046F000684600F09FFE411C0AD00B9908607D219E
:10470000E068C90048430C99086000200FB0F0BD74
:104710003046FBE7FFFFFFFF10B50446FBF760FDE7
:104720000068005D8006C00E05D02C2C03D02A2C1A
:1047300001D0012010BD002010BD000030B503469F
:104740000D46483391B0014604461A1F0B933C3185
:10475000383008AB07C32346224630332832111FB6
:104760000793081F04AB07C30FAB0393103A0EA9BE
:1047700010386B4607C323460CAA0DA1284600F04B
:10478000E3F8002807D00CA80DA10230FBF79DFD2F
:10479000002802D0002011B030BD20690E99484396
:1047A0002061A0690F994843A0610120F3E7000050
:1047B00074546664666469696666636663695F000B
:1047C0004747410030B5054689B00C4640350346A1
:1047D00002460146069538333032283103AD0EC506
:1047E000283B0839183A009301920291034607AA20
:1047F00008A1204600F0A8F8002806D008A1A81DAE
:10480000FBF763FD002802D0002009B030BD012075
:10481000FBE7000074546666666666666600000024
:104820004753540030B5054648352B1F95B00C460C
:104830001A1F1195111F0EAD0EC50D1F0D95103BC2
:10484000103A10390AAD0EC50D1F0995103B103AEC
:10485000103906AD0EC50D1F0595103B103A1039E5
:1048600002AD0EC5021D091F03460092019112AA56
:1048700008A1204600F068F8002807D012A80BA174
:104880000230FBF722FD002802D0002015B030BD19
:104890000120FBE7746969693B696969696969694C
:1048A0006969696969696969690000004753560067
:1048B00030B591B00D460FAB024601460446099350
:1048C000403234312C3006AB07C323462433214613
:1048D00005930EAA1C310DA802AB07C308390AA81C
:1048E0000191009023460BAA12A1284600F02CF853
:1048F000002807D00BA813A10230FBF7E6FC002824
:1049000002D0002011B030BD08A8007A41280FD095
:104910000020207460690D9948436061E0690E9938
:104920004843E061206C0F99484320640120E9E787
:104930000120EEE7745463666466646666446664E8
:1049400000000000524D43000FB4F0B589B00020C4
:10495000089010AE05900E9C9EE1491C0F913B28DB
:104960000ED00599214362D0642821D00BDC442865
:1049700072D0542871D05F2870D0632857D10BE0D3
:104980000120059088E166282BD0692867D073281C
:104990006FD07428F2D1B5E00025002C05D0207826
:1049A000FFF7BAFE002800D025783068057087E050
:1049B0000025002C12D02078FFF7AEFE00280DD085
:1049C0002078452806D04E2804D0532804D05728F4
:1049D000D4D101E0012501E00025ED4330680560F8
:1049E0006EE00020451E07460090002C4ED152E09C
:1049F000207801902B2802D02D2807D00BE00098BA
:104A0000002808D1681C06D1012013E00098002876
:104A100001D1681C0CD0FBF7E3FB01680198085C2E
:104A20002028019808D02E2824D0202826D03AE12A
:104A30000020C043009028E030380190681C00D16D
:104A400000259E490198081A0A21FBF7A3FBA842FA
:104A500006DA002F1FD126E16CE0ADE011E131E074
:104A60000A20454301982D18002F0ED00A204743F5
:104A70000BE037E0002FDAD1012706E0009800288C
:104A8000D5D1681CD3D1002FD1D1641C2078FFF779
:104A900043FE0028ACD10098384302D0681CC6D031
:104AA00001E0681C02D0002F03D003E000252F4650
:104AB00000E001270098002800D045433068A0C0DE
:104AC000361DDEE00025002C88D00A2269462046EB
:104AD000FBF70AFC054600980078FFF71DFE00284A
:104AE000A5D17BE720CE002C04D108E020782870E7
:104AF000641C6D1C2078FFF70FFE0028F6D1002003
:104B00002870BEE0002C7DD0207824287AD10025A2
:104B100060194078FFF700FE002873D06D1C052D4A
:104B2000F6DB20CE0522611C2846FBF7A3FB002004
:104B30006871A6E0002580CEED4300950295002C1B
:104B400034D02078FFF7E8FD00282FD00025FBF7B0
:104B500047FB0068615D415C202953D16D1C062D27
:104B6000F8DB002506952078694608766078487657
:104B70000A22294606A8FBF7B7FB01950090A0780A
:104B800069460871E07848710A22002101A8FBF704
:104B9000ABFB0395029020796946087360794873EE
:104BA0000A22002103A8FBF79FFB05460098386006
:104BB0000298BD60786064E0002580CEED430095EA
:104BC00001950295002C3BD02078FFF7A5FD002829
:104BD00036D00025FBF704FB03900068615D415C63
:104BE000202960D16D1C062DF8DB00250795207863
:104BF00069460877607848770A22294607A8FBF7B4
:104C000073FB00E04FE006950090A07869460876B7
:104C1000E07848760A22002106A8FBF765FB049598
:104C20000190207969460874607948740A2200214D
:104C300004A8FBF759FB0290A079E41D2E2807D0A9
:104C400000983860019878600298FD60B86018E0BC
:104C50000399002509681A48039107E00A22554381
:104C60004D191146641C303DFBF794FA2178039AE4
:104C7000525C202A01D10128F0DC4543E0E7401CCA
:104C80000E900E980078FFF747FD00280E98F6D199
:104C900000782C280DD000240F990878002800D027
:104CA0005BE601200890089809B0F0BC08BC04B08D
:104CB00018470E98401C04460E90EDE7FFFFFF7F5B
:104CC00040420F007CB50546FFF7B0FC0024E443EA
:104CD00000282DD06A461DA12846FFF735FE002882
:104CE00026D06C461AA1A01CFBF7EFFA002821D0B1
:104CF00018A1A01CFBF7E9FA00281DD016A1A01CE2
:104D0000FBF7E3FA002819D014A1A01CFBF7DDFA89
:104D1000002815D012A1A01CFBF7D7FA002811D04B
:104D200010A1A01CFBF7D1FA00280DD000207CBDFB
:104D300020467CBD01207CBD02207CBD03207CBDC3
:104D400004207CBD05207CBD06207CBD74000000D5
:104D5000524D43004747410047534100474C4C00E8
:104D6000475354004753560010B5002800D1012086
:104D700000F082FC002010BD10B500F095FC002072
:104D800010BD10B500F03CFD012801D000F0FEFC84
:104D900010BD3EB5044608200D46205EFFF70AFC14
:104DA00002A901910090208A2B4682B22168606896
:104DB00000F0FEFC012801D000203EBD02983EBD5F
:104DC000F8B50D46144606460021089FFFF77AFF06
:104DD000401C0300FEF7EEFB081A1A050A1A1A0F08
:104DE000141A31462846FFF763FD0DE03146204690
:104DF000FFF7A4FC08E031460798FFF7E3FC03E067
:104E000031463846FFF70EFD0020F8BD0120F8BD01
:104E1000F8B5134E0F46F56804463068001D00F0E3
:104E2000A8FB601C07D1002F05D031680D48091D73
:104E300000F0D7FBF8BD30682C1944603168AC42F3
:104E400004D2B06B091D00F0B4FBF8BD706B091DF6
:104E500000F0AFFBB06A8442F7D2B462F8BD000044
:104E60005000002098170020F8B5054600F0C6FB5A
:104E7000294EB068401CB0603068284F002803D02D
:104E80007069002827D02CE03560B068012828D14F
:104E9000002414206043C01900F07DFB641C072C23
:104EA000F7D31E488C3000F076FB1C48A03000F091
:104EB00072FB1A48B43000F06EFB1848C83000F09E
:104EC0006AFB1648DC3000F066FB14488C307063D7
:104ED0001430B06305E03068E96AC06A884200D8DF
:104EE0003560706A401C7062E86A3169884200D996
:104EF000306114214843C019291D00F072FB00F0F5
:104F000089FB7069002806D03068E96AC06A884267
:104F100001D200F0A5FBF8BD50000020BC16002017
:104F200070B5134E134D1EE000F0E4FB306800280E
:104F300005D0002400F0D2FC002C14D101E00124A3
:104F4000F8E700F05BFBF068C468201D00F011FB7F
:104F5000A868401EA8606868401E686000F05AFBA0
:104F6000204600F009F868680028DDD170BD000017
:104F7000841700205000002010B50446006B00F09C
:104F800057FB204600F054FB10BD0000044CFFF717
:104F9000C7FF20680128FAD900F062FBF7E700009C
:104FA000BC160020FFB581B00C9C9000236B001F45
:104FB0001818C6080B9F0A9DF600700701D072B63C
:104FC000FEE723180A5C20331A750A5C002A02D017
:104FD000401C1028F5D3002143200155072D00D394
:104FE0000625201DE56200F0E1FA2046183000F0A9
:104FF000DDFA24610720401B6462A0613046049AF8
:10500000019900F049F82060002F00D03C6005B005
:10501000F0BD00000648416B0968002905D0416BCE
:10502000C968C9684968816270470021C943FAE7C5
:105030005000002003480068401C72B600D0FEE714
:10504000FEE700004C00002070B504460025400734
:1050500004D06007400F0821081A041900F04AFB29
:105060000A4A5068002803D10948C008C0005060AF
:105070001068084B0119994204D2814202D9536841
:1050800011601D1800F02AFC284670BD4400002065
:10509000C4060020F80F000010B50124031F2406E9
:1050A0001C601B1F1960191F024B0B60143940381C
:1050B0000A6010BD3550000870B50446FBF71CFEB1
:1050C0007D210901884205D3FBF716FE134D29689F
:1050D000884201D2012070BD1148217801702179E8
:1050E0004170217A81700D48218F001D4170A18E81
:1050F0008170A18FC170002209490A48FCF7F6FDB2
:1051000006490022091D0748FCF78CFDFBF7F4FD5A
:10511000054940182860002070BD000000000020F4
:105120009C000020D8040020C027090070B501248D
:105130000925E403ED06002221462846FBF7D5FDAC
:105140000A20FBF799FC012221462846FBF7CDFDFA
:105150000A20FBF791FC80212D48FFF783F9FFF728
:1051600023F82C4D00241C2060434019FEF79AFEC2
:10517000641C062CF7DB274D0024A835382060433B
:105180004019FFF721F9641C062CF7DB00243820B6
:105190006043401901222049FFF728F9641C062CBE
:1051A000F5DB1E4D01212846FBF796FD01461A4806
:1051B0000E30FEF7E5FE02212846FBF78DFD014685
:1051C00015481630FEF7DCFE134901220A3914484F
:1051D000FDF73AFAFEF7AEFF0F4C0A3C6061FEF7AE
:1051E000DAFF6072FEF7D0FF207201212846FBF73C
:1051F00073FD002809D002212846FBF76DFD002829
:1052000003D008A0FEF79CF970BD0220E07170BDCC
:10521000D0020020D8000020160000200014004812
:105220009C0500206C61756E6368696E672073630E
:10523000686564756C65722E2E2E0A0000B54A00F2
:10524000234B520887B09A4203DC00221346009297
:1052500029E0204B9A4208D1002808D10120FEF70E
:10526000A7FDFEF7E8FC07B000BD9A4203DBFEF79E
:10527000DDFC07B000BD02AAFEF7C4F98107890F63
:10528000012000290CD0012911D0022915D002A833
:105290000FC8FEF785FB0122D207514007B000BDC1
:1052A000009002A80FC8FEF74BFC07B000BD02A893
:1052B0000FC8FEF775FB07B000BD009002A80FC82D
:1052C000FEF73EFC0122D207514007B000BD0000AE
:1052D000FB21E93F0000F07FF8B50D460646134C70
:1052E0001300FEF767F906100D0A080604220127CD
:1052F0000BE0022709E0042707E001273F0304E051
:1053000001277F0301E00127BF0300223946204621
:10531000FBF7EBFC64232A4631460548FCF7F2FD17
:10532000012239462046FBF7E0FCF8BD00040048A6
:10533000F804002070B515460A4604460A211046B6
:10534000FAF712FF002900D10A2160782070034883
:10535000617000686060257270BD00001C00002054
:10536000314E324D37463837314C5436E0790228C9
:1053700002D000282DD052E001212846FBF7ACFCDA
:1053800001462B481830FEF703FE01280AD00221FF
:105390002846FBF7A1FC014625482030FEF7F8FD22
:1053A000012803D1217A012088432072217A02202A
:1053B000FEF784FE207A002804D003233A463146C3
:1053C000182003E003233A4631460C2000F07CF815
:1053D00025E001212846FBF77FFC014614481830E0
:1053E000FEF7D6FD01280BD002212846FBF774FCFE
:1053F00001460F482030FEF7CBFD012803D005E021
:10540000607A401C01E0607A401E607209202056DC
:1054100000F0A5F86072C1B20020FEF74FFE322006
:10542000FFF7A2FCA2E70000D8000020001400480B
:105430000C000020F8B504464769214864213E1855
:10544000751E28460095FAF7A5FEE917890F491938
:105450008910FF391338ED390D1AFF219131009869
:10546000FAF798FEFF21001F6E31463F28184F4380
:10547000C1192069134B82009A58551801280FDD75
:10548000B0070DD164213046FAF784FE002906D119
:10549000FF2191313046FAF77DFE002900D16D1CC5
:1054A000E0686D1E401918214843A16840183C214E
:1054B0004843616840183C21484321684018F8BDC2
:1054C0006C070000405A0008F8B50C4600211D4644
:1054D00016462175002803DAFF214042217540B2AB
:1054E0000A21FAF757FE0746C9B22A463046FFF7A7
:1054F00021FF38460A21FAF74DFEC9B22A46204656
:10550000FFF718FFF8BDF0B58BB00E461C461546E8
:105510006946119FFEF7B2FB64210598FAF73AFE3F
:105520003170FF210498FAF735FE491C2970FF21DC
:105530000398FAF72FFE2170FF210298FAF72AFE4E
:1055400010980170FF210198FAF724FE3970FF21AD
:105550000098FAF71FFE129801700BB0F0BD0B21F6
:10556000C943884201DA084670470E28FCDD0E2048
:1055700070474368826801699A60836842685A602C
:105580004A68824201D182684A600022026108684A
:10559000401E086070470146083100224160D24336
:1055A000C1608260016100210160704700210161DA
:1055B000704730B50C68621C02D00246083202E027
:1055C000026904E01A4653681D68A542FAD9536877
:1055D0004B6099608A60516008610168491C0160F4
:1055E00030BD42684A6093688B60936859609160EF
:1055F00008610168491C01607047000072B60448E8
:105600000168491C0160BFF34F8FBFF36F8F704774
:105610004C00002005490868002804D0401E08609E
:1056200000D162B6704772B6FEE700004C00002061
:10563000002801D072B6FEE77047000010B506489A
:105640007D21C9000068FAF78FFD0449401E4861BA
:105650000720086110BD00003C00002000E000E0D1
:105660000120044900074860BFF34F8FBFF36F8FDD
:105670007047000000ED00E010B502000FD00948AF
:10568000006B002801D072B6FEE700F033F800216D
:105690001046FFF7BDFB00F021F9002801D1FFF70C
:1056A000DFFF10BD500000201CB50E480024019003
:1056B000234640220CA100940D4800F079F80128FF
:1056C00003D0401C0CD172B6FEE772B6002105482B
:1056D000C9432C38816201214161C46000F03EF869
:1056E0001CBD00007C00002049444C450000000027
:1056F0008D4F00080248016B491C01637047000090
:105700005000002010B5134B186B002802D0012068
:10571000D86110BD0020D86118690F4902E0002847
:1057200015D0401E142242438A58002AF7D0142272
:10573000424351184A680C46526808344A60A242F3
:1057400001D152684A60D1681960186110BD72B603
:10575000FEE7000050000020BC16002010B50948EC
:10576000016AFF22120411430162016A120211430D
:105770000162FFF763FF044900200860FAF7AAFC02
:10578000002010BD00ED00E04C00002010B5FAF73D
:10579000B5FC044600F044F8002803D0012003497A
:1057A000000748602046FAF7ADFC10BD00ED00E0B0
:1057B000FFB585B0164690000F9FFFF745FC05002A
:1057C0001AD04420FFF740FC040012D025630021CA
:1057D0000E9803910197009002943246089B069917
:1057E0000598FFF7DFFB2046FFF73EFB012009B0DD
:1057F000F0BD2846FFF71CFF0020C043F7E700007C
:1058000006484169002904D0006B002803D000201D
:1058100070470120704702207047000050000020B0
:10582000F8B52C4F0026386B002808D0B869401C0A
:10583000B861F869002800D001263046F8BDFD683F
:105840006D1CFD600ED1786B0068002801D072B627
:10585000FEE7786BB96B7963B863386A401C3862CD
:10586000FFF7D8FBB86A85420AD3786B0068002836
:1058700010D0786BC068C468606885420DD2B86289
:1058800038681421C06A4843134908580128D0D900
:105890000126CEE70020C043F1E7201DFFF769FE97
:1058A000A06A002803D020461830FFF762FEE06AA5
:1058B0003969884200D938611421484306494018A3
:1058C000211DFFF78EFEE06A3968C96A8842CCD391
:1058D0000126CAE750000020BC160020F8B5284D6C
:1058E0000024286B2746002808D0FFF787FE286B86
:1058F000401E2863286B002802D03CE072B6FEE709
:10590000A868012600281BD135E0C068C46820467D
:105910001830FFF72EFE201DFFF72BFEE06A2969E5
:10592000884200D928611421484316494018211D96
:10593000FFF757FEE06A2968C96A884200D3EE6122
:105940001048B43001680029DFD1002C01D0FFF7E6
:1059500061FBAC69002C08D0FFF762FF002800D083
:10596000EE61641EF8D10020A861E869002802D029
:105970000127FFF775FEFFF74DFE3846F8BD000022
:1059800050000020BC1600201F1E1F1E1F1F1E1FC0
:105990001E1F1F1DB56206010300F00100FB11B5BB
:1059A0006206010300F00200FC13B5620601030069
:1059B000F00300FD15B56206010300F00500FF19B4
:1059C000B56206010300F00000FA0FB56206160882
:1059D000000003030051A2060023E7B56206242459
:1059E00000FFFF020300000000102700000500FA7E
:1059F00000FA0064002C01003C00000000C8000018
:105A0000000000000016A0B5620686080000000035
:105A10000000000000945AB5620631200000010029
:105A20000032000000010000000100000000000042
:105A30008000000080000000006F000000FB4A00B2
:105A4000000000001F0000003B0000005A000000A2
:105A50007800000097000000B5000000D4000000AE
:105A6000F300000011010000300100004E010000B1
:105A70009C5C0008072F0008FDFF000000000000EC
:105A800040000000BC5C0008C13E000800000000AF
:105A90000000000080000000CC5C0008615300089A
:105AA000000000000000000080000000A85C00086A
:105AB0002D420008000000000000000080000000EF
:105AC00000000000000000000102030406070809AE
:105AD00000000000010203040040404040404040FC
