:020000040800F2
:10000000582900204D010008F13C00084F37000836
:1000100000000000000000000000000000000000E0
:100020000000000000000000000000008D420008F9
:1000300000000000000000000B0100089B420008C7
:100040005F0100085F0100085F0100085F01000810
:100050005F0100085F0100085F010008050B000850
:100060005F0100085F0100085F0100085F010008F0
:100070005F0100085F0100085F0100085F010008E0
:100080005F0100085F010008854300085F01000868
:100090005F0100085F0100085F0100085F010008C0
:1000A0005F0100085F0100085F010008C148000807
:1000B0005F0100085F0100085F010008115500089A
:1000C0000348854600F03EFC00480047C96600082A
:1000D00058290020084B19680868203080F30988E7
:1000E000022080F31488BFF36F8F3FBCAE4608BC7C
:1000F00004BC62B61847000090000020EFF31080A7
:1001000072B6704780F310887047EFF309800E4B8A
:100110001A6820381060F0C044464D4656465F4687
:10012000F0C008B572B607F0CBFC62B60CBC116823
:1001300008681030F0C8A046A946B246BB4680F316
:1001400009882038F0C818479000002004488047EC
:1001500004480047FEE7FEE7FEE7FEE7FEE7FEE7AE
:1001600029430008C100000830B50B4601460020B5
:100170002022012409E00D46D5409D4205D31D46AD
:100180009540491B2546954040191546521E002DA5
:10019000F1DC30BD70B500242546002801DA0124C9
:1001A0004042002901DA01254942FFF7DDFFAC4258
:1001B00000D04042002C00D0494270BD10B5202A2A
:1001C00004DB0846203AD040002110BD0B46D34046
:1001D000D0402024A21A91400843194610BD0000C7
:1001E00000487047187F000838B50446C0681821D9
:1001F000401E4843A16840183C21484361684018AC
:100200003C2148432168451860690C214843216915
:1002100040186921C900401A3021FFF7BBFF114A7D
:1002200050434219084600921A2902DB0E49511820
:1002300000910C21FFF7AEFF0C4A5043009A801842
:1002400000900B4806E0491E425C074B5A43009B56
:10025000D21800920029F6DC2146684600F086FAA2
:10026000009838BD801F8607805101008033E1016E
:100270001C7F000803460B439B0703D009E008C915
:10028000121F08C0042AFAD203E00B780370401C46
:10029000491C521EF9D27047D2B201E00270401CD4
:1002A000491EFBD270470022F6E710B513460A46F6
:1002B00004461946FFF7F0FF204610BD421C0178A6
:1002C000401C0029FBD1801A704710B5002200E0C5
:1002D000521C835C8C5CA34201D1002BF8D1D8B2B4
:1002E000E1B2401A10BD0000F7B5009C0F46002691
:1002F0002578641C002D05D0FFF772FF0068405D73
:10030000C007F5D12B2D02D02D2D18D0641E3946F3
:100310002046029A00F064FA002F04D03968A14206
:1003200001D1009939607105022400290BDA40429D
:10033000002803DD05F05AF90460A007FEBD012086
:1003400080020643E3E70028F8DA05F04FF904607D
:100350000048FEBDFFFFFF7FF0B507460846584046
:1003600087B0C00F049048000E4659004008490865
:10037000BC1A884105D2384631461E4617460B4600
:1003800002465800400810434CD0300D0390400501
:100390005900400D490D0590401A0290402872DA2C
:1003A00018030121000B09050843019004980092ED
:1003B000002805D001995242002088410092019006
:1003C000029840210A1A0199009800F0ABF90546FD
:1003D0000C466B4607CB00F0B5F9C0197141039A82
:1003E0000E0D0023D71756401A467A40164344D0C4
:1003F000049A002A2DD0029A012A039A15DC1205CC
:10040000C01A914101263605001C7141D20F059E8C
:10041000D2070093019202962A46234600F040FA42
:1004200007B0F0BD38463146FAE71605224A0F46B6
:10043000B218C01AB74101210905001C4F4100182C
:100440007F41114618187941E20F10436D1964413C
:1004500013E0E2076D0815436408C2071443039ACA
:1004600001261205C01A91413605001C7141CE07C4
:10047000400830434908C01851412A46234600F03D
:1004800002FACDE7FFE7049801224000C117121AD3
:1004900000238B4104983146C417381AA141EEE776
:1004A00030B40124E407634030BC55E730B4012484
:1004B000E407614030BC4FE70000E0FFF0B51FB437
:1004C00088B00B990998002448400999C00F490049
:1004D00049080991C0070B990090490049080B9100
:1004E00009990898A64608431CD00B990A98084316
:1004F00018D0099801244000420D4800410D099888
:1005000024050003000B204309900B980003000B07
:1005100020430B9050181C494018002201901446AB
:10052000104605E0002001460DB0F0BD032801DAB9
:10053000034600E003239C46C11A0AAE0AE05F00AE
:1005400008ADED5B4F00F75B7D430027AA187C41A7
:10055000491C5B1E6145F2DD410004AB5A52210487
:10056000120C0A43240C401C0828DFDB019802907F
:100570000099704601910090059B049A079906988E
:1005800000F08EF9D0E700000DFCFFFFF0B50C463F
:100590005C4085B0E40FE40703944C000026640837
:1005A00059009446490802460296224321D06246E9
:1005B0000A431ED06200570D4A000E032303550D57
:1005C000012402462C492405781B1B0B360B4018CE
:1005D00023432643614600901C46501AB44103D37E
:1005E0000098401C009002E0921800985B4100289F
:1005F00003DA0020014605B0F0BD00200121090505
:100600000746864611E064461D46141BB54106D3D5
:100610006546521BB341744607430C43A646CD07BB
:1006200040084908284392185B4105460D43EAD12A
:100630001046184313D06046194650407140084395
:1006400006D06046101AB34106D20122002306E00C
:1006500000220123DB0702E00122D243531000985D
:1006600074460105381C6141029C039D00196941D3
:1006700000F009F9BFE70000FD0300000EB50549D1
:100680000291002100910A460B46019100F008F901
:1006900003B000BD330400004A0009030123090B25
:1006A0001B051943094B10B5520D9A4201DA00207F
:1006B00010BD064B34339A4203DC9A1AFFF77EFDD5
:1006C00010BD03495118884010BD0000FF03000011
:1006D000CDFBFFFF10B5002904DB0124E4074042F5
:1006E0008C412146002B04DB1C460123DB075242D0
:1006F000A3418B4200D1824210BD000010B50029F9
:1007000004DB0124E40740428C412146002B04DB3A
:100710001C460123DB075242A341994200D190427B
:1007200010BD000010B5202A04DB0146203A91409C
:10073000002010BD914020239C1A0346E34019433A
:10074000904010BD10B5202A06DBCB170846203A92
:100750001041C1170B4306E00B461341D040202443
:10076000A21A91400843194610BD000070B50C460E
:1007700000683C21FFF7F8FC21603C21FFF7F4FC06
:1007800061601821FFF7F0FC0546A1600721001DFC
:10079000FFF7EAFCA1610F48A90008180E49FFF70E
:1007A000E3FC0246443288086261E0613B2802D3E0
:1007B000910700D0401C0021084B0A462161995C3A
:1007C000814203D8401A521C2261F8E7401CE060C5
:1007D000204670BD6C0B0000B50500004880000885
:1007E000F7B582B0029C00272078641C154601975B
:1007F000302802D0002D15D015E020780127641C88
:10080000782804D0582802D0002D09D00BE0002D04
:1008100001D0102D07D1002710252078641C02E09C
:10082000082500E00A250026009610E0009901271F
:1008300069430818020C294680B2714300908E1853
:100840003804864201D3012001902078641C294697
:1008500000F08AF80028E9DA0398002805D0002F74
:1008600001D0641E00E0029C04600198002806D0BC
:1008700004F0BCFE02210160C81E05B0F0BD009965
:1008800030040843F9E710B5002B08DA0024401CB7
:10089000614192185B411A4301D14008400010BDEC
:1008A000F0B51FB482B005460C0003D0084604F032
:1008B00049FE02E004F046FE203002460090214648
:1008C0002846FFF72FFF049B059A04460F4618435E
:1008D0001143084314D0184610431BD00098402100
:1008E0000A1A18460599FFF769FC05460E46009A54
:1008F00005990498FFF716FF084305D0012004E08E
:100900002046394607B0F0BD0020C11705430E430D
:100910002C43374300990E986305401A7905E40A81
:1009200000220C43FD0A0A3002D500200146E9E707
:100930000105101969410C9C0D9D00196941FFF7D3
:10094000A2FFDFE7064C0125064E05E0E36807CC71
:100950002B430C3C98471034B442F7D3FFF7B4FB59
:1009600090800008B08000083A2800D23038202358
:1009700002469A43412A01D310463738884201D3B0
:100980000020C043704770B54B005B0803430BD099
:100990004B005C0D002633466542B341D417AD1AB7
:1009A000A34102DB0020014670BD12053018514101
:1009B00070BD00000EB5C217C10F5040CA074018E5
:1009C0000021054B0293019200910A460B46FFF766
:1009D00067FF03B000BD00003304000070B5CD0F09
:1009E0004A0009030123090B1B0519430B4BED07B3
:1009F0000024520D9A4201DA002070BD074B3433B7
:100A00009A4203DC9A1AFFF7D9FB02E00449511815
:100A100088402C43F1D0404270BD0000FF0300002D
:100A2000CDFBFFFF70B58C180578401C6B075B0F82
:100A300001D10378401C2A1106D10278401C03E042
:100A400006780E70401C491C5B1EF9D12B0705D49B
:100A50000023521E0DD40B70491CFAE70378401C8A
:100A6000CB1A921C03E01D780D70491C5B1C521EB2
:100A7000F9D5A142D8D3002070BD000010B50428DC
:100A800011DD0B4C202806D021280CD022280AD0BA
:100A9000232808D109E000F035FB7D21C9008842F8
:100AA00001D901202060002010BD0020FAE70000DD
:100AB000540000200020704710B500220549064868
:100AC00003F0EFFF03490448803903F0E0FF002002
:100AD00010BD0000700D0020CC0A002010B50A687F
:100AE00004460146054805F0A0FD2146044803F0F0
:100AF000CEFF034803F0A5FF002010BD180E002014
:100B0000CC0A002010B50120C00300F033FA10BD5C
:100B1000F8B500250446403400952278012A3BD0E0
:100B20000122227003689E68760776D43F4F4E6894
:100B3000BE4254D09E6A0F78BA4016439E6201238B
:100B4000826B1B079A421FD0012A1DD0022A1BD09C
:100B5000032A19D0042A17D0052A15D0062A13D043
:100B6000072A11D002688B6856697607760FB34260
:100B70000AD05369DB08DB005361006842690B7AD5
:100B80005B075B0F1A4342610868102806D01128E2
:100B900004D0122802D045E00220F8BD244A936810
:100BA000102809D011280AD00120000603439360C1
:100BB0000868102806D035E00120C005F6E70120BE
:100BC0008005F3E71C481B490068FFF7CDFA0A21AE
:100BD000484300E0401E00900028FBD122E0986AC4
:100BE0000E78B240904398620868102803D011280C
:100BF00001D0122816D10E498A68102807D0112872
:100C000008D00120000682438A600BE005E0012045
:100C1000C005F8E701208005F5E7416C202211436B
:100C200041640125002020702846F8BD0110000015
:100C30000027014040420F0088000020F8B5002541
:100C40000446002803D0606C002802D008E0012090
:100C5000F8BD0020A06440210855204600F0A8F807
:100C6000606C1022104270D12068816849076CD4F2
:100C7000616C1301994302231943616481688907F8
:100C8000890F012905D10168C9070FD1C16809047D
:100C90000CD4C1681826B143A6683143C1602068EE
:100CA0000169666889008908314301612068C1686B
:100CB0003D4E3140C160A069E1698003C90308432A
:100CC000216A4E033043666B012E02D001263603A3
:100CD00000E000263043E66830432669022E08D043
:100CE00000263043266B76003043666A012E02D020
:100CF0000BE00426F5E7002928D0616C202631435B
:100D00006164A16C01263143A164A16A0E46FF3ED5
:100D1000C23E02D0E66A314308432168CE680643EA
:100D2000CE600126A16B3607B14213D0012911D044
:100D300002290FD003290DD004290BD0052909D091
:100D4000062907D0072905D010E028E00121090471
:100D50000843DAE721684E69F608F6004E6121681B
:100D60004E69278F7F077F0F3E434E612168C96818
:100D70000E4E3140814207D10020A064606C800893
:100D80008000401C606408E0606C9843104360641D
:100D9000A06C01210843A06401252846F8BD606CC1
:100DA00010436064F8E700001902FEFFE7FF3F838D
:100DB00000B500680C4987B0884212D10B4882699F
:100DC00041150A4382618069084005900220009025
:100DD000032001900020029009206946C00600F01F
:100DE000D5F807B000BD000000240140001002400B
:100DF00070B50024014620314A78022A03D004212C
:100E00008163012416E0026813680E25AB4313606A
:100E1000026813685B085B0013600122056C1346CF
:100E2000AB40C56B6B604A7000220A70416B0029B1
:100E300000D08847204670BD31B500F063F9009CB2
:100E40000546601C00D0641C00F05CF9401BA04209
:100E5000FAD338BD3EB5444C217A002965D1012131
:100E6000C903884261D1414D0920297CC00600296F
:100E700001D0002200E00122802100F03CF9E86B63
:100E8000112808DB394806F0B9FA002803D13748A1
:100E900005F00FFAA061344BA0699B1D401C5A1E3F
:100EA000511E6D46A0610EC50A216156E122120154
:100EB0005143DB1E08185A1E511E06F002FD607ACF
:100EC000002804D120790C2801D90C382071284A37
:100ED0002079114601231C3140B206F0D3FC244A8C
:100EE0006079383A114601231C3140B206F0CAFC41
:100EF0001F49E0795439002818D001230A46207B85
:100F00001C3A40B206F0BEFCE079194C3834012896
:100F100011D00025382014496843001901220E31F0
:100F200005F048FB6D1C062DF4DB3EBD104A012385
:100F3000703AA079E5E7002538200B49684300198D
:100F40000122113105F036FB6D1C022DF4DB022568
:100F5000382005496843001903220E3105F02AFBA9
:100F60006D1C062DF4DB3EBD58000020C010002093
:100F7000280F002010B504494A69024202D0486196
:100F8000FFF768FF10BD000000040140F8B5002322
:100F900093E0224601249C40A44622407ED04C6827
:100FA000022C01D0122C0CD1DC08A40027183C6ABA
:100FB0005D07ED0E0F26AE40B4430E69AE402643EA
:100FC0003E6205685E000324B4400F79A543BF0765
:100FD000BF0FB7402F4307604D68012D05D0022D8C
:100FE00003D0112D01D0122D0ED18568CF68A543F5
:100FF000B7402F43876047686546AF430D79ED06DC
:10100000ED0F9D403D434560C568A5438C68B440E5
:101010002C43C4604C68E4004ED52B4CA5690126D6
:101020003543A561A4699D0834400094274CAD0068
:101030002F19BC689D072E0F0F25B540AC4309251D
:10104000ED06A84201D1002514E0214DA84201D1AE
:1010500001250FE01F4DA84201D102250AE01E4DD7
:10106000A84201D1032505E01C4DA84201D1042569
:1010700000E00525B5402543BD60194C25684E6844
:101080009543F60300D51543256065684E68954382
:10109000B60300D515436560A56800E00CE04E6816
:1010A0009543F60200D51543A560E5684E68954363
:1010B000B60200D51543E5605B1C0A681446DA40A9
:1010C00000D066E7F8BD00000010024000000140BB
:1010D0000004004800080048000C004800100048C8
:1010E000000401400069084000D0012070474269B7
:1010F0004A4042617047002A01D081617047816295
:101100007047000001480068704700008C00002014
:1011100070B5024640325378202B1CD11378012B36
:1011200019D00123137024245470046825689D434A
:101130002560046825681E03B5432560046825689A
:101140000D4325600068016819430160202050703C
:101150000020107070BD022070BD70B50246403294
:101160005378202B1BD11378012B18D00124147035
:101170002423537003681D68A5431D6005682B6810
:101180000F263602B343090219432960006801683B
:1011900021430160202050700020107070BD02209B
:1011A00070BD000070B5040006D025464035687853
:1011B0000026002802D005E0012070BD2E702046D8
:1011C00000F0F0F92420687020680168490849009F
:1011D00001600F2160680906884321680861216861
:1011E0008A680120C00382438A60E1680129A168FE
:1011F00008D021229202114322689160E1680229FD
:1012000002D005E00143F7E701212268C9025160DD
:1012100021684A680F4B1A434A602168CA688243B2
:10122000CA60616920690843A1690902084321680D
:10123000C860216AE0690843216808602068016885
:101240000122114301606664202068702663AE703D
:10125000002070BD00800002FFB50446002083B06E
:101260002546403501906A78202A7FD1226892690C
:10127000D24312047AD52A78012A77D001222A7023
:1012800024226A7060648F05BF0DE06801280BD0CE
:101290000520C0020121381889028843216848606E
:1012A000FFF730FF064612E03148F3E70698401C8E
:1012B0000DD00698002805D0FFF724FF811B069863
:1012C000814204D9202068700020287043E0206803
:1012D0008169C943890606D58069C043C00602D525
:1012E0006878A028E2D120688069069BC043C006C8
:1012F00000960ED500222021204602F087FA002811
:1013000029D121682020C86168700020287007B0AA
:10131000F0BD00222021204602F078FA00281AD1E0
:1013200020681021C16120682021C1610198411C01
:1013300001910599884214D12068416801229203E5
:10134000114341600096002220212046069B02F0B6
:101350005DFA002802D00320D9E707E021682020A9
:10136000C8610199059881428FD3ABE70220CEE78F
:1013700000200002FFB5054604464035687881B07C
:1013800020287ED1287801287BD001202870FFF703
:10139000B9FE0746012200901923D103204602F02E
:1013A00035FA00283FD1222068701020A87000264E
:1013B000666403986062049860856663618D0920A5
:1013C0008002FF2903D9FF222285009034E0618D3D
:1013D0002185009036E02046029902F005FA36E0B9
:1013E00002F038FA002803D0606C042847D01AE0D5
:1013F0002068416A606A421C62620170208D401E52
:1014000080B22085618D491E618500281FD1608DC5
:1014100000281CD000970022802120460A9B02F061
:10142000F5F9002802D0032005B0F0BD608DFF283B
:1014300005D9FF222285009601231B06CBE7608D8C
:1014400020850096208D0123C2B25B06C3E7608D24
:101450000A9900283A462046C2D102F037FA0028FD
:10146000C2D121682020C86121684A68064B1A4011
:101470004A606870AE702E700020D5E701E0012050
:10148000D2E70220D0E7000000E800FEFFB50546E5
:1014900004464035687881B020287ED1287801281C
:1014A0007BD001202870FFF72DFE07460122009017
:1014B0001923D103204602F0A9F900283FD12120A9
:1014C00068701020A8700026666403986062049813
:1014D00060856663618D01204003FF2903D9FF22E7
:1014E0002285009034E0618D2185009036E0204611
:1014F000029902F079F936E002F00FFA002803D0E1
:10150000606C042847D01AE0606A411C616201786F
:1015100020688162608D401E6085208D401E000421
:10152000000C20851FD1608D00281CD00097002260
:10153000802120460A9B02F069F9002802D003208E
:1015400005B0F0BD608DFF2805D9FF2222850096E9
:1015500001231B06CBE7608D20850096208D01239B
:10156000C2B25B06C3E7608D0A9900283A4620465E
:10157000C2D102F0ABF90028C2D121682020C86195
:1015800021684A68064B1A404A606870AE702E7037
:101590000020D5E701E00120D2E70220D0E70000DB
:1015A00000E800FE00B500680E4987B0884216D1F9
:1015B00003200002009012200121019003200291DB
:1015C0000491039069460848FFF7E0FC0748C269A8
:1015D000012149050A43C261C0690840059007B06E
:1015E00000BD00000054004000040048001002400C
:1015F00070B504000FD021681348086021681348B3
:10160000086003CC41602068083C21688860FFF7CF
:1016100079FD054608E0012070BDFFF773FD401B12
:10162000272801D9032070BD2068C0680028F4D1A4
:1016300020680269E1688A4201D0016101E0044941
:101640000160002070BD0000CCCC000055550000AA
:10165000AAAA00000068024901600020704700004B
:10166000AAAA000002480168491C016070470000F6
:101670008C00002010B5064801681022114301605B
:10168000002000F007F800F041F8002010BD000035
:101690000020024000B5014687B00022122000F071
:1016A0005BF8122000F04EF81348C26920210A436B
:1016B000C261C0690840059004A9684600F042FF75
:1016C00000F062FF0D49FEF74FFD0E490C4A0A601B
:1016D0000D4A401ECA6048600020086188600846C4
:1016E00001F0CAFC002802D0012007B000BD054867
:1016F00001F0FAFCF9E700000010024040420F0040
:10170000001400408C080020E703000008B50C48D6
:10171000816901221143816180691040002200909B
:101720001146501F00F018F803210022481F00F056
:1017300013F803210022081F00F00EF808BD000076
:1017400000100240C106C90E01208840014908600E
:101750007047000000E100E010B502F0CBFA10BDC8
:10176000BFF34F8F04490348C860BFF34F8F00BFDA
:10177000FDE700000400FA0500ED00E010B50C06DE
:1017800006D54906490E1C2461430818283004E098
:101790001C2461430818FF30093099B2002A06D092
:1017A00001228272C180190C0181002010BD00222B
:1017B00082728180F9E71C224A43121810B5FF306B
:1017C000FF300230926BC06903F043FB10BD1C2256
:1017D0004A43121810B5FF30FF32FF300132023099
:1017E0009269C06903F090FB10BD0000F0B54A0695
:1017F000520E13461C256A43CC091218002C01D046
:10180000283201E0FF32093204461370C909FF345F
:101810005170E134217A01293DD001212172957A5C
:10182000494B002D4949557837D0002D0568167869
:10183000AC465BD0B600AD5B6F0404D5444F0D40A1
:101840003D436746BD5305681678AC46B600AD5BB0
:101850006F0605D53C4F0D4040373D436746BD53AD
:1018600015780668AF00F55B0D4039490D43F55317
:10187000364F117830373D40066889001D43755258
:101880001178334A00688900F13A15401D434552EA
:1018900000202072F0BD0220F0BD002D05681678F2
:1018A000AC4610D0B600AD5B6F0605D50D4026499D
:1018B00040310D4361468D5305681078234A8100FD
:1018C000685A30320EE0B600AD5B6F0404D50D40AF
:1018D0001F490D4361468D53056810781C4A8100ED
:1018E000685AF13A104018436852D1E7B600AD5B30
:1018F0006F0404D5164F0D403D436746BD53056840
:101900001678AC46B600AD5B6F0605D50E4F0D40A0
:1019100040373D436746BD5315780768AE00BD5B51
:101920000D40094940310D43BD53094F1678F13F31
:101930003D400168B6001D438D531178034A89006C
:1019400000683032A1E70000808000008F8F000027
:1019500080C00000F0B54B06CA095B0E002A04D017
:101960001C225A431218283204E01C224A4312183F
:10197000FF3209320024947013700346C909FF3303
:101980005170E133197A01291AD001211972517865
:101990001A4C00291178066814D08D00715B4F062F
:1019A00003D52140164C21437153117800688A00F9
:1019B000124C815A3034214010246140202414E01C
:1019C0000220F0BD8D00715B4F0403D521400D4C0A
:1019D00021437153117800688A000A4C815AF13C06
:1019E000214001242403614064006140044C403CD8
:1019F0002143815200201872F0BD00008F8F00003B
:101A0000C080000080C000004906490E1C225143DE
:101A10000818FF300130008C80B27047F0B54D06D9
:101A20006D0E2E461C246543CF092C18002F01D0C3
:101A3000283401E0FF3409342670C9096170014679
:101A4000FF31E260E131E3708C46097A01290DD063
:101A5000012261460A72E2789349002A08D0012ADD
:101A600020D0022A0DD0032A25D111E00220F0BD9A
:101A7000237802689B00D55A0D40FF35FF350235AB
:101A800004E0237802689B00D55A0D40D55212E03D
:101A90002278036892009D5A0D400321490269187B
:101AA000995208E0237802689B00D55A0D40012125
:101AB00089026918D15226780768B5007B5B7B499B
:101AC0007B4A0B40134333437B53A57A002D53D0FD
:101AD0002578784E0B400768AD0033437B53E3888D
:101AE00050265D0803686D00F65AF6182378DF006B
:101AF00001239B02FB18F552238950265D080368D9
:101B00006D00F65AF6182378DF005311FB18F552D2
:101B100063780768002B237875D09D007B5B5E049B
:101B200003D5654E0B4033437B53237807689D00F4
:101B30007B5B5E0604D55E4E0B40403633437B53E1
:101B4000237805689E00AB5B0B405B490B43AB53AE
:101B5000564E2178303633400568890013436B5266
:101B60002178554C00688900F13C234013434352CF
:101B7000002061460872F0BD6378002BA3881FD057
:101B80005D0803685026F65A6D00F6182378DF00CA
:101B900001239B02FB18F552237807689D007B5BAD
:101BA0005E0604D50B40424940310B437B5301682C
:101BB00020783E4C8300C85A30342040202440E036
:101BC0005D0803685026F65A6D00F6182378DF008A
:101BD0003A4BFB18F55203685025ED5A374EEB1877
:101BE0002578B61CED00AD195E19E3683E2B0BD9C4
:101BF000DD022D0CDB0601D16D1EADB2AB0201255D
:101C0000ED032B4307E020E0DD032D0CDB0701D0C3
:101C10006D1CADB2AB023380237807689D007B5BFF
:101C20005E0403D50B4024490B437B5301682078A5
:101C3000214C8300C85AF13C204001242403604019
:101C4000640060401043C85292E79D007B5B5E04D5
:101C500003D5194E0B4033437B53237807689D000F
:101C60007B5B5E0604D5124E0B40403633437B53FC
:101C7000237805689E00AB5B0B400D4940310B4358
:101C8000AB530D4E2178F13E3340012636037340AD
:101C9000760073400568890013436B522178034C2A
:101CA00089000068303460E78F8900008F8F000062
:101CB000808000008081000080C0000004040000DB
:101CC000F0B54906490E1C244C432418FF3409344E
:101CD000636122610022A26103466270FF332170BA
:101CE000E133197A012908D0012119726569E16887
:101CF0008D4204D96D1A656103E00220F0BD2946CA
:101D00006261A57A002D05D06578002D19D0012DCE
:101D100037D059E005685026765B76192578EF00B4
:101D2000324D7D1976193E293ED9CD022D0CC906BA
:101D300037D0A9020125ED03294300E0A902318033
:101D400042E005685026765B76192578EF00274D2E
:101D50002D1F7D1976193E290AD9CD022D0CCF06EB
:101D600001D16D1EADB2AD020127FF033D4306E078
:101D7000CD032D0CCF0701D06D1CADB2AD02358067
:101D800009E005685026765B76192578EF00174D37
:101D90002D1F7D1971536578002DBBD0012D0AD000
:101DA00012E06D1EADB2C4E7CD032D0CC907C5D03E
:101DB0006D1CADB2C2E705685026765B76192578B2
:101DC000EF000A4D7D197153217800688C00015B8A
:101DD000074D294001252D0369406D006940054DDF
:101DE000294301531A720020F0BD000006040000D0
:101DF0008FBF000080800000F0B50246FF32E13264
:101E0000137A012B0BD001244F06CB097F0E1472DD
:101E1000002B06D01C237B431B18283306E002202E
:101E2000F0BD1C234B431B18FF3309339C701F70FC
:101E3000CE095E70012424031025114B002F0BD016
:101E40004906C90D002E10D004680E4E605A30406D
:101E500068401843605210E001680B4E088830401B
:101E6000604068401843088007E00568064E685ADD
:101E7000303E304060401843685200201072F0BD80
:101E800080800000BF8F0000BFBF0000F0B5064695
:101E90004806400E1C2141438D19EB630021AA63C3
:101EA00029640121283537466970FF372870E137EA
:101EB000387A012806D03972EC686869A04203D9E3
:101EC000001B03E00220F0BD044600206861A87AF0
:101ED00000280CD0297830688A00825C52066A7823
:101EE0003AD54B4B002A13D0012A2DD032E0A3B2B1
:101EF000AA882969306802F0D0F830685021095A60
:101F000009182878C2004248001F10180C526CE0D3
:101F10005022125AC9001018C91841183E2C0AD96B
:101F2000E002000CE20601D1401E80B280020122D4
:101F3000D203104306E0E003000CE20701D0401C8E
:101F400080B28002088005E05022125AC9001018A1
:101F5000C91844522A892BE0002A02D0012A1ED037
:101F600025E05022125AC90012182948001F0818EB
:101F700011183E2C0AD9E002000CE20601D1401EE5
:101F800080B280020122D203104306E0E003000C7D
:101F9000E20701D0401C80B28002088007E0502296
:101FA000125A1018CA001A49091F51184452EA88D7
:101FB000A3B22969306802F070F8697815480029E1
:101FC00002D0012909D010E0297832688900535ADB
:101FD000034011480343535207E0297833688900CE
:101FE0005A5A02400D4802435A52287831688200FA
:101FF000084B885A3033184010235840202358404B
:10200000054B403B1843885200203872F0BD000059
:10201000060400008F8F0000C080000080C0000018
:1020200070B50446006840308088C00B02D020465E
:1020300001F082FE20684030818849050AD58188F8
:10204000334A11408180204600F0DAF80021204612
:1020500000F000F9206840308188490403D5818868
:102060002C4A11408180206840308188890403D542
:102070008188294A11408180206840308188042568
:10208000C904002910DA0188A9430180BD20216814
:10209000000240310880204600F0BEF82068403041
:1020A00081881E4A1140818020684030818809055E
:1020B00017D581881A4A11408180206840300188F4
:1020C00008221143018020684030018829430180A3
:1020D000206840308088C043C00402D5204600F00C
:1020E000E3F8206840308188890506D581880D4A4B
:1020F00011408180204600F0A5F82068403081889A
:10210000C90503D58188084A1140818070BD00004F
:10211000FFFB0000FFBF0000FFDF0000FFEF00003B
:10212000FFF70000FFFD0000FFFE0000F8B50027EC
:102130000446002807D02646FF36E136707A00258F
:10214000002802D005E00120F8BD3572204600F0DD
:102150003BF80320707201210BE01C207843021928
:102160001046203041720772C572556395637F1C1B
:10217000D5636068B842F0D800200BE01C224243CF
:102180001219FF32013255721072D5725561956184
:10219000401CD56162688242F0D8206840300180DE
:1021A00020684030058020684030858020684030BD
:1021B0000582BF2022680002403210802034257141
:1021C00071720020F8BD000008B500680A49884215
:1021D00010D10A48C2690121C9050A43C261C06918
:1021E00000220840009003211F20FFF7B5FA1F20AE
:1021F000FFF7A8FA08BD0000005C00400010024094
:1022000010B5C41DFF34FA340121E06902F081FFEA
:10221000E06902F046FF10BD10B504468069002851
:1022200006D00748016906229143016102F03AF89D
:10223000FF34FF340234E06902F056FF10BD0000A5
:1022400000ED00E0FF3010B5FF300230C06902F051
:1022500051FF10BD0246FF32E132137A012B08D044
:1022600001231372002906D0203001710020107262
:102270007047022070470068802140308181F5E777
:1022800010B5872189000A580146FF31ED3110460B
:1022900002F055FF10BD00684030018B0122D203CF
:1022A000114301830020704710B50446FF30FF3012
:1022B0000230C06902F098FFA069002804D00348EA
:1022C000016906221143016110BD000000ED00E02C
:1022D000F8B504460068434DC00352D5E8690026AE
:1022E000C00007D4E96928040143E961E9690140B4
:1022F000012600913C480168C90510D40168821587
:1023000011430160FEF7FEFE074604E0FEF7FAFE09
:10231000C01B642824D834480068C005F6D5286A54
:1023200003273F02384020D06168394081421CD0E9
:10233000286A2A6AB843012109040A432A622A6AE0
:102340008A432A622862C0070FD0FEF7DBFE0090A6
:1023500008E0FEF7D7FE0099411A2448814201D9CE
:102360000320F8BD286A8007F3D5286A6168B8435E
:1023700008432862002E04D0E86901210907884338
:10238000E8612078C00705D0286BA168800880002C
:10239000084328632078800706D5286B03210904A9
:1023A0008843E168084328632078800605D5286BB8
:1023B000102188432169084328632068800305D5DC
:1023C000286B80218843A169084328632088400541
:1023D00005D5286B402188436169084328630020A4
:1023E000F8BD00000010024000700040881300009B
:1023F000F8B505464E480E460068C007C00FB0420B
:102400000AD24B480168490849003143016000681D
:10241000C007C00FB04270D12878464C800705D560
:102420006068F0218843A968084360602878C00785
:1024300053D06868012817D0022818D0032819D073
:1024400021688907002958DA6168890889000143F1
:102450006160FEF757FE69680746012913D002291B
:102460001DD0032927D034E021688903EAE72168D9
:102470008901E7E7616BC903E4E7FEF743FEC11B8F
:102480002D48814223D860680007800F0128F4D1CD
:1024900023E0FEF737FEC11B2748814217D860684A
:1024A0000007800F0228F4D117E0FEF72BFEC11BB6
:1024B000214881420BD860680007800F0328F4D1BF
:1024C0000BE0FEF71FFEC11B1B48814201D9032010
:1024D000F8BD60680007800FF3D115480168C9078F
:1024E000C90FB1420BD90168490849003143016065
:1024F0000068C007C00FB04201D00120F8BD2878A5
:10250000400706D56068072109028843E968084347
:10251000606000F049F86168084A0906090F515CDB
:10252000C840074908600020FFF7B4F80020F8BD54
:102530000020024000100240881300007C7E00084A
:102540008800002010B5072202600A4A53689B07E2
:102550009B0F43605368F024234083605268072335
:102560001B021A40C26004480068C007C00F086020
:1025700010BD000000100240002002400148006829
:102580007047000088000020044805490068496839
:10259000044A4905490F515CC84070478800002033
:1025A000001002408C7E000830B516A30FCB89B016
:1025B0006C460FC417A30FCB0FC41A494A680C20EE
:1025C000144604401848042C05D0184B082C04D09D
:1025D0000C2C00D1184609B030BD9402240F6D4672
:1025E0002C5DC96A04AD0907090FD203695C920F1B
:1025F000022A02D0032A00D11846FDF7B5FD604338
:10260000E9E7000002030405060708090A0B0C0DA0
:102610000E0F10100102030405060708090A0B0C2F
:102620000D0E0F100010024000127A00006CDC0248
:10263000FEB504460078F04EF04DC00748D06868FB
:102640000007800F01281FD068680007800F02284C
:1026500004D16868C003800F022815D06168012981
:1026600019D001208004002901D0052917D029683C
:10267000B1432960296881432960606800281BD024
:10268000FEF740FD074613E02868800320D5606808
:10269000002876D01CE0286830432860EDE72968E0
:1026A00001432960F7E7FEF72DFDC01B642869D8B8
:1026B00028688003F7D50BE0FEF724FD074604E009
:1026C000FEF720FDC01B6428F1D828688003F7D4EA
:1026D000207880073ED568680007800F14D06868AE
:1026E0000007800F022804D16868C003800F01280A
:1026F0000AD0E068002828681DD00121084328601E
:10270000FEF700FD07460BE0286880070BD5E06860
:10271000012836D107E0FEF7F5FCC01B0228C6D819
:1027200028688007F7D52868F82188432169C900FF
:10273000084328600EE0400840002860FEF7E2FCF5
:10274000074604E0FEF7DEFCC01B0228AFD828686D
:102750008007F7D42078000724D5E0690028686A4C
:1027600011D0012108436862FEF7CCFC074604E063
:10277000FEF7C8FCC01B022899D8686A8007F7D505
:1027800010E036E1D1E0400840006862FEF7BAFC94
:10279000074604E0FEF7B6FCC01B022887D8686A2B
:1027A0008007F7D4207804274007002861DA00204A
:1027B0000190E869C00008D4E969B8060143E961FD
:1027C000E96901400120009101908D480168C90527
:1027D00011D40168821511430160FEF793FC00904B
:1027E00005E0FEF78FFC0099401A642897D88448CA
:1027F0000068C005F5D5A06801280AD0002801D0DE
:10280000052811D0286A400840002862286AB84389
:1028100002E0286A012108432862A068002812D03B
:10282000FEF770FC00900AE0286A38432862F0E75F
:10283000FEF768FC0099411A7248814275D8286AEF
:102840008007F5D50DE0FEF75DFC009006E0FEF791
:1028500059FC0099411A6B48814266D8286A800762
:10286000F5D40198002804D0E969012000078143CC
:10287000E9612078C00635D5606901280CD0401D7B
:10288000686B24D038436863686B40084000686315
:10289000FEF738FC074622E0686B38436863686BD4
:1028A000012108436863FEF72DFC074604E0FEF7AC
:1028B00029FCC01B022838D8686B8007F7D5686BE5
:1028C000F8218843A169C900084368630AE0B84356
:1028D0006863F4E7FEF716FCC01B022825D8686B76
:1028E0008007F7D42078800637D568680007800F06
:1028F000032813D068680007800F022804D1686895
:10290000C003800F032809D0206A0028686B16D006
:1029100030436863FEF7F6FB06460CE0686BC003C5
:102920001BD5206A012864D117E05BE0FEF7EAFBC3
:10293000801B022856D8686BC003F7D50DE0B04362
:102940006863FEF7DFFB064604E0FEF7DBFB801B57
:10295000022847D8686BC003F7D4606A002846D0C5
:1029600069680907890F022943D001263606022823
:10297000286805D0B0432860FEF7C4FB044633E066
:10298000B0432860FEF7BEFB074604E0FEF7BAFB43
:10299000C01B022826D828688001F7D4E86A216B7A
:1029A000000900010843E862A16AE06A0843696817
:1029B0007B22D20391430843686028683043286033
:1029C000FEF7A0FB044604E0FEF79CFB001B022878
:1029D00008D828688001F7D509E0FEF793FB001BB3
:1029E000022801D90320FEBD28688001F5D400200B
:1029F000FEBD0120FEBD00000000010000100240ED
:102A000000700040881300000068890050300818EA
:102A100000687047006889005030081802607047ED
:102A200010B500680B464068C021C9430140000250
:102A3000000ECC04D870E40E5C708C06A40E090461
:102A4000490F9C701970002A0AD101F039FBD87027
:102A5000587801F035FB5870987801F031FB987088
:102A6000002010BD30B50B460168896A59600168C5
:102A700009694904490C9960006804680F482146B7
:102A8000014088024D04800E18706D0E49065D707D
:102A9000490E99706102490E40242140D970002AE4
:102AA0000AD101F00DFB1870587801F009FB58703D
:102AB000987801F005FB9870002030BD7F7F7F0083
:102AC00070B5040003D0607F002802D006E001202A
:102AD00070BD00202077204600F04CF8022060777F
:102AE0002168CA204862216853204862204601F0CC
:102AF000FAFAFF250426002824D1206881681C4AA0
:102B000011408160216888686268636910432269A6
:102B10001A43104388602168E068086120680169F1
:102B200022891204114301612068C1688022914307
:102B3000C16020688068800608D4204600F000F953
:102B4000002803D0206845626677C0E72068016CE2
:102B500001229204914301642068016CA26911432F
:102B600001642068456201206077002070BD00008C
:102B7000BFFF8FFF00680549884205D10448016AFC
:102B80000122D20311430162704700000028004077
:102B900000100240F8B50446007F0B46012815D00E
:102BA00001202077022060775878002A10D001F0A9
:102BB00087FA987801F084FAD8789D780004054364
:102BC0005878197800024903084316E00220F8BD3E
:102BD000C10603D5EF2108400A305870D87801F0BB
:102BE00077FA0504587801F073FA000205439878E3
:102BF00001F06EFA05431878400305432168CA20A6
:102C00004862216853204862204601F06CFA002691
:102C1000FF27002811D11048054020684560206832
:102C2000C16880229143C1602068806880060BD40F
:102C3000204600F085F8002806D02068476204206E
:102C4000607726770120F8BD206847620120607711
:102C500026770020F8BD00003FFFFF00F8B50446CE
:102C6000007F0D4601280ED00120207702206077DA
:102C7000206800278068002A07D0400618D52878E9
:102C800001F01EFA15E00220F8BD400600D4EF70F6
:102C9000287801F01DFA0604687801F019FA00029C
:102CA0000643A87801F014FA0643E878000409E026
:102CB000EF702878AE78000406436878E97800025F
:102CC0000904084306432168CA204862216853204A
:102CD0004862204601F007FA00281ED11748064036
:102CE0002068066020688168012292049143816017
:102CF0002969E868084321688A6810438860206869
:102D0000C16880229143C1602068806880060CD42D
:102D1000204600F015F8002807D02168FF204862FF
:102D20000420607727770120F8BD2168FF204862E2
:102D30000120607727770020F8BD00007F7F7F00AB
:102D400070B504460068C168A0229143C160FEF7D7
:102D5000D9F97D260546F60006E0FEF7D3F9401BBB
:102D6000B04201D9032070BD2068C0688006F4D548
:102D7000002070BDF8B5040007D000262546403578
:102D8000A662687F002802D005E00120F8BD2E77FA
:102D9000204600F04BF802236B7720680168402240
:102DA000914301600721E0680902884201D90022AD
:102DB00001E0012212030F273F02B84202D08842ED
:102DC00000D0A662276B002F05D1884201D923636A
:102DD00001E001202063A1686068636908432169FC
:102DE000194308430123A1695B0219400843E169C3
:102DF0000843216A0843A16A084321680860616B9F
:102E0000606AA36908431B0C0427E1683B4019432F
:102E100008432168104348602068C1697A029143E1
:102E2000C1612666012068770020F8BD00B5006802
:102E30000D4987B0884214D10C48826981140A4335
:102E400082618069084005903820009002200021AE
:102E50000190032002910491039069460448FEF713
:102E600095F807B000BD000000300140001002409E
:102E700000040048FFB5064604464036307F002770
:102E800081B00D46012809D001203077FEF73AF9CC
:102E90000090707F012804D002279DE0022005B039
:102EA000F0BD002D72D0039800286FD003207077FA
:102EB00000202066A5630399A1870399E187206418
:102EC000B080F0802065E0640121A068C9038842D9
:102ED00005D1206801680122920311430160206836
:102EE0000168490603D401684022114301600720AC
:102EF000E16800028142606823D9002802D0E08F97
:102F000001281AD121682888C86005E020688168F6
:102F1000890706D52988C160E08F401EE087AD1C77
:102F20000BE0049800283ED0401C06D0FEF7EAF8DB
:102F30000099411A0498814235D2E08F0028E5D1EA
:102F400036E0002802D0E08F01282ED1E08F012842
:102F500003D921682888C8600CE0216828780873A4
:102F60000FE020688168890711D5E18F012906D912
:102F70002988C160E08F801EE087AD1C15E02978AC
:102F80000173E08F401EE0876D1C0EE023E0049883
:102F9000002808D0401C08D0FEF7B4F80099411A68
:102FA0000498814201D3032716E0E08F0028D8D18E
:102FB0002046009A049901F0B2F8002801D02020A0
:102FC0002066A068002803D12068C168806800904E
:102FD000206E002800D00127012070770020307774
:102FE00038465CE7042204490428086902D090436B
:102FF000086170471043FBE700E000E0094910B5A5
:10300000401E884201D9012010BD074C6061032198
:10301000081F00F06FFE0020A06107202061002043
:1030200010BD0000FFFFFF0000E000E070477047A8
:1030300070B502462032137F012B1BD0012313777A
:1030400002245477046865687026B5436560046897
:1030500065680E68354365600468A5688026B543D9
:10306000A5600068846849680C4384605377002039
:10307000107770BD022070BD70B5040005D02546E4
:103080002035687F002802D006E0012070BD0020B6
:103090002877204600F00AF802206877211D206872
:1030A00001F078F901206877002070BD08B500684C
:1030B00001218907884207D10448C16901221143CF
:1030C000C161C0691040009008BD000000100240BE
:1030D0000222014620314A77026813680120034327
:1030E00013604877002070470268D36801210B43C2
:1030F000D360006802680A43026000207047F8B598
:10310000054604462035287F012817D001272F7750
:1031100002206877226890687726FF23B0431B025D
:10312000984390600868502837D00EDC202857D08C
:1031300006DC00284ED0102840D14EE00220F8BD19
:10314000302850D0402839D13CE060282DD070285C
:1031500017D001221203801A0ED090422ED1CB68D4
:103160004A688968206801F05FF920688168012257
:1031700092031143816021E020688168C908C90079
:10318000F8E7CB684A688968206801F04DF9216842
:103190008868B0433043886010E0CA684968206896
:1031A00001F055F95021206806E0CA684968206896
:1031B00001F05EF96021206801F041F96F7700208D
:1031C0002877F8BDCA684968206801F040F94021B5
:1031D0002068F1E700212068EEE710212068EBE786
:1031E00020212068E8E730212068E5E7704770B5C6
:1031F0000446006801690025C9438907002915DBD9
:10320000C168C943890711D4E91E016101202077F3
:10321000206880698007204602D0FFF7E7FF04E0BE
:1032200000F096F8204600F094F8257720680169B0
:10323000C943490717D4C168C943490713D40421B6
:10324000C943016102202077206880698005800FD2
:10325000204602D0FFF7CAFF04E000F079F82046CC
:1032600000F077F8257720680169C943090716D46B
:10327000C168C943090712D40821C9430161042068
:1032800020772068C0698007204602D0FFF7AEFF94
:1032900004E000F05DF8204600F05BF82577206838
:1032A0000169C943C90617D4C168C943C90613D403
:1032B0001021C9430161082020772068C06980057A
:1032C000800F204602D0FFF791FF04E000F040F8A5
:1032D000204600F03EF8257720680169C943C907F8
:1032E00008D1C168C943C90704D1891E01612046BC
:1032F00000F030F820680169C943090609D4C168A3
:10330000C943090605D48021C94301612046FFF75E
:103310008DFE20680169C943490609D4C168C943C3
:10332000490605D44021C9430161204600F01CF83C
:1033300020680169C943890609D4C168C94389065F
:1033400005D42021C94301612046FFF770FE70BDFE
:103350007047704710B500680249884201D1FEF7F6
:1033600081F910BD001400407047704710B5006827
:103370000449884204D101220349044800F01AF9A3
:1033800010BD000000380140580000206C030020F0
:10339000F8B503680446D869196805072D0F07D1E9
:1033A000820605D58A0603D5204601F039F9F8BD15
:1033B0009A68002D64D0D507ED0FFF2621360E4008
:1033C0002E435DD0C60706D0CE0504D501261E6269
:1033D000E36E3343E366870702230426002F06DAF1
:1033E000D70704D027683B62E76E3743E766470795
:1033F00006D5D20704D022681662E26E1A43E2664E
:10340000020709D520220A402A4305D02368082252
:103410001A62E36E1343E366E26E002AC7D08006A9
:1034200004D5880602D5204601F0FAF8E06E0007C0
:1034300003D42068806840061CD5204601F0D4F8EB
:1034400020688168490611D58168402291438160D6
:10345000606E00280AD01A494163606EFDF7C8FC0F
:103460000028A4D0606E416B8847F8BD2046FFF766
:103470007DFFF8BD2046FFF779FF0020E066F8BD2C
:10348000C5020DD552020BD501200005186220217E
:1034900020466030417281722046FFF766FFF8BD1A
:1034A000020605D50A0603D5204601F0A5F9F8BDA8
:1034B0004006FCD54806FAD5204601F0A4F8F8BD30
:1034C000D545000870B5040005D025466035687AFA
:1034D000002802D006E0012070BD0020287220469E
:1034E00000F026F824206872206801684908490025
:1034F0000160204601F0D2F80128EDD0606A002872
:1035000002D0204600F0C7FF206841680922D2029D
:1035100091434160206881682A229143816020683C
:103520000168012211430160204601F019F870BDC5
:1035300070B51C4E05681C490222012303241B4858
:1035400086B0B54218D18E6955032E438E618969C4
:1035500029400591C0216D461EC500210491694690
:10356000FDF714FD002203211B20FEF7F5F81B20B8
:10357000FEF7E8F806B070BD0D4EB542FAD1CE693F
:103580000125AD042E43CE61C9692940059103216F
:1035900089026D461EC5042104916946FDF7F6FCBB
:1035A000E8E7000000380140001002400004004835
:1035B00000480040F0B5034660339C7A202C44D18B
:1035C00000290BD0002A09D0012584682D03AC42C4
:1035D00006D10669002E03D1CE0701D00120F0BD2F
:1035E0001E7A012E31D001261E72416501464031FE
:1035F0000A834A83FF27AC4204D10269002A12D110
:10360000134A0EE07F22002C08D001252D07AC4282
:103610000AD10469002C04D03F2202E00469002C86
:1036200001D08A8300E08F830021C16622229A7232
:10363000197201688A6832438A6000680168FF2253
:103640002132114301600020F0BD0220F0BD0000D6
:10365000FF01000010B500680649884209D10648FC
:103660000178064802F0CCFF012203490448FFF725
:10367000A1FF10BD0038014058000020B01000200C
:103680006C030020FFB5064604466036707A83B0AE
:103690000D46202858D1002D0CD00598002809D0BF
:1036A0000120A1680003814207D12069002804D1CC
:1036B000E80702D0012007B0F0BD307A012843D0DE
:1036C000012030720020E06621207072FDF71AFDA3
:1036D000019027464037059838820598788218E08F
:1036E000788A401E78820698009000228021204629
:1036F000019B01F0B4F8002818D10120A168000353
:10370000814202D12069002812D0216828780885DA
:103710006D1C788A0028E3D1069800900022402191
:103720002046019B01F09BF8002808D00320C2E747
:1037300028882168C005C00D0885AD1CE9E7202058
:10374000707200203072B6E70220B4E77047FEE7DF
:1037500001688A69D243920701D400228A62006814
:103760008169C943C90703D081690122114381617D
:1037700070470000F7B5044600680E468069C043F4
:10378000C0062CD420272546403520688069C043D8
:1037900080060FD5701CF8D0002E05D0FDF7B2FCC6
:1037A0000299401AB042F0D96F700020A8702870BA
:1037B0000320FEBD21681020C8612068C761204633
:1037C000FFF7C6FF20684168064A114041600420A7
:1037D00060646F700020A87028700120FEBD00207A
:1037E000FEBD000000E800FE70B50568049C686836
:1037F0008905890D1204044E1143194330402143B9
:103800000143696070BD0000009800FCF8B51C46DB
:1038100017460E46054611E0601C0FD0002C05D05F
:10382000FDF770FC0699401AA04207D920204035C8
:1038300068700020A87028700320F8BD286881698E
:103840003046884304D00020B842E5D00020F8BDBF
:103850000120F9E7F7B50027202605460446403544
:103860002AE02046029A0199FFF784FF002801D040
:103870000120FEBD20688069C04380060BD420680B
:10388000C66120684168104A1140416067646E70EB
:10389000AF702F70ECE70198002806D0FDF732FCDE
:1038A0000299411A0198814206D9606C30436064E4
:1038B0006E702F700320FEBD20688069C0434007F2
:1038C000CFD40020FEBD000000E800FE70B5164613
:1038D0000D4604461AE0324629462046FFF74AFFC5
:1038E000002801D0012070BD002D04D0FDF70AFC96
:1038F000801BA8420AD9616C2020014361644034D6
:1039000060700020A0702070032070BD2068806966
:10391000C0438006DFD4002070BD70B516460D464A
:1039200004461CE0324629462046FFF723FF0028C4
:1039300001D0012070BD681C11D0002D04D0FDF70E
:10394000E1FB801BA8420AD9616C2020014361641D
:10395000403460700020A0702070032070BD20688B
:103960008069C0438007DDD4002070BD3EB5154896
:1039700013490160002141608160C1608161C161C2
:10398000012401620422046142614162FF22C1629A
:10399000C232446382620163FDF750F9002800D00F
:1039A000FEE7012000030190072002900094694681
:1039B0000448FDF7ADF8002800D0FEE73EBD00004A
:1039C0000024014000020020F0B53A4887B0426967
:1039D0000121C9040A43426142690A4005924269D1
:1039E000C9000A43426142690A400592426949118D
:1039F0000A43426142690A400592426949000A430A
:103A0000426140692C4F08404C110590012221462B
:103A10003846FDF770FB092001222849C006FDF752
:103A20006AFB274E012231462648FDF764FB0094CD
:103A30000024012501950294694638460394FDF758
:103A4000A5FA03206A4631C269461F48FDF79EFA6F
:103A50008120009009200294694601950394C006D4
:103A6000FDF794FA154802948138009011200190D6
:103A7000092069460394C006FDF788FA0294694656
:103A80001048009601950394FDF780FAE803009032
:103A90000E480190694602940A48FDF777FA002221
:103AA00003210720FDF758FE0720FDF74BFE07B066
:103AB000F0BD00000010024000080048C180000076
:103AC00007700000000400480014004800001110B6
:103AD00010B5124810490160114941600021816010
:103AE0000161416181610122C161C2600162FDF732
:103AF00059FB002800D0FEE700210848FDF708FB2D
:103B0000002800D0FEE700210448FDF726FB00282E
:103B100000D0FEE710BD0000005400404C02002021
:103B20001A09102010B51D491D4886B0002412C086
:103B30007F2101608460C460FF2104614160083816
:103B4000FEF7BEFF002800D0FEE768460470447010
:103B5000847003940022694611480494FFF77EF8AC
:103B6000002800D0FEE70120694608754875887571
:103B7000CC75002205A90A48FFF70CF8002800D0F0
:103B8000FEE700210648FEF73FFF064A904203D0B9
:103B900000210348FEF73EFF06B010BD002800409C
:103BA000A8020020F232000010B511480F49016050
:103BB000FF2105314160002107228160120201616D
:103BC000C26001224161520282610162102241629F
:103BD000C26181620722C262016308214163FFF76B
:103BE000C9F8002800D0FEE710BD000000300140F9
:103BF000C802002010B50121124886B08907016073
:103C000000242F21846041600461611E8461C160D1
:103C1000FFF732FA002800D0FEE7012000030090F1
:103C200069460848FFF76BFA002800D0FEE70494C5
:103C300004A904480594FFF7FBF9002800D0FEE72B
:103C400006B010BD2C03002010B50D480B490160D3
:103C50004B21C901416000218160C1600161816126
:103C60000C22C16142610162082141620903416382
:103C7000FFF728FC002800D0FEE710BD0038014007
:103C80006C03002010B50C480A490160E12149028B
:103C9000416000218160C16001618161C1610C22CC
:103CA000016242614162FFF70DFC002800D0FEE78F
:103CB00010BD000000480040DC03002010B50022C9
:103CC0000749084801F086F80749064801F0BBFAA1
:103CD0000649044800F0D1FE024801F005FB10BD82
:103CE00004000020CC0A0020B80100203800002089
:103CF000704700008307FF22DB0E9A408907090EF8
:103D0000994000280BDA0007000F0838830808489C
:103D10009B001818C36993430B43C3617047830822
:103D200004489B001B1818689043084318607047AC
:103D300000ED00E000E400E0F0B585B004460020AE
:103D4000694688802646203678E19A8917073F0F12
:103D500026D0B9000291425A9A80998809047DD5EB
:103D6000BE490A400299425238461C21484305196F
:103D7000FF350935A87A0028206870D029788A0094
:103D8000825A52046CD55022125ACB00B4491218F0
:103D90005918515A8905890D00917DD0EA88BDE0F6
:103DA0009A89D20627D40188AE4A2546114001805F
:103DB00020685021095A283508182978CA00A849CE
:103DC0005118405A8005800D2064A16B0818A0632B
:103DD00000212046FDF7EFFC30790028B4D0686957
:103DE0000028B1D130798021084321684031888191
:103DF0000020307122E12546FF35028809359A807E
:103E00009B881B0519D5098A09182878C20094488F
:103E1000001D1018085A294683059B0DAB61AA881E
:103E2000E431206800F024F920688C4A01881140B0
:103E300001802046FEF724FA00E1694689880904DA
:103E4000D8D58649864F0A40028020685021095AF9
:103E50003F1D09182878C000C01902E085E03DE048
:103E60004FE0085A83059B0DAB6108D0AA882969E9
:103E7000206800F0FDF8A969286940182861002130
:103E80002046FDF7A4FC206801464030008A401817
:103E9000C119E8683E2800E044E00AD9C202120CC9
:103EA000C00601D1521E92B290020122D2031043E9
:103EB00006E0C203120CC00701D0521C92B290025D
:103EC00008802168684A0888104001221203504087
:103ED00052005040654A10430880AFE05021095A13
:103EE0000A182978CB005E49091D5918515A8905CD
:103EF000890D009121D0AA882969009B00F0B8F8AB
:103F00001BE05022CB00125A55491218091D5918AE
:103F1000515A8905890D009104D02A892969009B8D
:103F200000F0A6F8297820688A004E4B815A803329
:103F300019404E4B403319438152A9690098081823
:103F4000A861296900980A182A616B69002B03D0BF
:103F5000E9680098814204D929782046FDF737FCAA
:103F600003E029782046FDF7ABFE6846808800060E
:103F700064D51C204743206802993A4A415A3D19AA
:103F80001140029A28358152A87A0028206811D061
:103F900029788A00825C52061ED55022125AC90026
:103FA00012182F480818105A83059B0DAB6124D0B6
:103FB000EA881EE05021095A09182878C2002848CA
:103FC0001018085A83059B0DAB6121D0AA88296976
:103FD000206800F062F81BE05022125AC900121843
:103FE0001F48001D0818105A83059B0DAB6104D0B3
:103FF0002A892969206800F050F828782268800012
:10400000184B115A80331940174BF1331943115291
:1040100020685021095A09182878C2001048101841
:10402000085A8005800DA86129690A182A616B6900
:104030002978002B20460DD0FDF728FF2068014687
:1040400040318A886B469A81120400D57DE60020B3
:1040500005B0F0BDFDF7AFFBF0E700008F0F0000EB
:10406000020400000F8F00008FBF0000808000005E
:10407000101810B5012292025C088018002C07D09D
:1040800002880A70120A4A70801C891C641EF7D1CB
:10409000DA0701D00078087010BD101801225B1CEF
:1040A000920210B55B088018002B08D04A780C7873
:1040B000120222430280801C891C5B1EF6D110BDB7
:1040C00001090A2200075143000F4018C0B270478F
:1040D000002102E00A38C0B2491C0A28FAD20907B6
:1040E000090E0843704770B504460068C168490668
:1040F00013D40021C943C160FDF704F87D260546AD
:10410000F60006E0FCF7FEFF401BB04201D9032099
:1041100070BD2068C0684006F4D5002070BDF8B5B9
:104120000F460B4615460092032104460022C902A1
:1041300000F01BF82026002812D13B4600228021E7
:104140002046009500F05CF8002809D103213B4689
:10415000002249022046009500F007F8002803D00D
:10416000206E304320660320F8BDF8B51D46174683
:104170000E4604463DE0032149028E4205D1002F40
:1041800003D1017B684601700078681C31D0002D96
:1041900005D0FCF7B7FF0699401AA84229D320683A
:1041A0004168E022914341606068C11FFD390CD134
:1041B0000121A068C903884202D04911884204D174
:1041C000206801684022914301600120A16A4003F8
:1041D000814207D121680A6882430A6021680A681F
:1041E00002430A60012040346077002020770320DA
:1041F000F8BD206881683140B942BCD10020F8BDCB
:10420000F8B51D4617460E46044633E0681C31D00B
:10421000002D05D0FCF776FF0699401AA84229D355
:1042200020684168E022914341606068C11FFD3908
:104230000CD10121A068C903884202D049118842EB
:1042400004D1206801684022914301600120A16AE5
:104250004003814207D121680A6882430A602168CD
:104260000A6802430A60012040346077002020770A
:104270000320F8BD206881683046884304D00020C0
:10428000B842C3D10020F8BD0120F9E77047FF24F0
:10429000F534204602F00EFFFBE710B502F017FFE1
:1042A00010BD000070B598B0012438200594102688
:1042B0000025009008940696099507946846FEF735
:1042C000B7F9002800D0FEE70720149003201590CE
:1042D00016950121179514A8FEF78AF8002800D03A
:1042E000FEE710480D900120400213950E901196A4
:1042F0000F940DA8FDF7ECFF002800D0FEE7FEF7B5
:104300003DF97D21C900FBF72FFFFEF777FE042062
:10431000FEF768FE03210022081FFDF71DFA18B002
:1043200070BD000021000300124801680122114302
:1043300001604168104A1140416001680F4A114014
:1043400001600168012292049143016041683F22AB
:10435000120491434160C16A09090901C162016BFC
:10436000074A11400163416B49084900416300213C
:1043700081607047001002400CB8FF08FFFFF6FE96
:104380002CFEFCFF10B50248FEF731FF10BD000007
:104390008C080020F0B502681D4B0124A4071D4DB8
:1043A000984203D0A04201D0A84203D17026B24364
:1043B0004E683243184E194F98420DD0A0420BD090
:1043C000A84209D0164CA04206D0B04204D0B84250
:1043D00002D0144CA04204D103242402A243CC688E
:1043E00022438024A2434C69224302608A68C2624D
:1043F0000A688262984206D0B04204D0B84202D025
:10440000084A904201D10969016301214161F0BD6F
:10441000002C0140000400400040014000440140E5
:10442000002000400048014030B58468FF252D027F
:104430001B021343AC430B432343836030BD8268AC
:1044400070239A430A4307210A438260704730B5BC
:10445000036A046A6408640004628469F025AC435A
:10446000120122430A24A3430B438261036230BD3D
:1044700030B5036A1024A34303628469036A0F25DD
:104480002D031203AC432243A024A3430901194383
:104490008261016230BD10B5818CC90707D0016807
:1044A0004A6801235B049A43836A1A434A60818CF9
:1044B000890707D501684A6801231B049A43C36A28
:1044C0001A434A60818C490707D501684A6801236D
:1044D0009B049A43036B1A434A60818C090707D5F2
:1044E00001684A680123DB039A43436B1A434A601D
:1044F000818CC90607D50268916801231B03994383
:10450000836B19439160818C890607D501688A689D
:1045100001235B039A43C36B1A438A60818C49066B
:1045200012D503685A6801210905046C8A432243A5
:104530005A60026C8A4207D10268516803235B0506
:104540009943436C19435160818C090607D5016872
:104550004A680123DB04806C9A4302434A6010BD21
:10456000F8B500260446C666FCF7CCFD054616499C
:104570002068884202D0154988421DD10068144F36
:10458000000709D501212B46002249052046009746
:1045900000F065F900280DD12068006840070BD5B0
:1045A00001212B46002289052046009700F057F98B
:1045B000002801D00320F8BD202060346072A07272
:1045C00026720020F8BD0000003801400044004081
:1045D000FFFFFF0110B5406A0022014640314A83C7
:1045E0004A82FEF7C3FE10BD01680A68FF2321332B
:1045F0009A430A6001688A68520852008A60202142
:1046000060308172704710B501680A6840239A4390
:104610000A60202269210A54FFF798F8002010BD93
:1046200070B50246403203466033948B9D7A016830
:10463000222D05D08869082210438861022070BDB0
:10464000898C012685683603B54202D10569002DA3
:104650000BD02140446D651C45652170518B491E6E
:104660000904090C518307D015E0456D21402980CC
:10467000416D891C4165F1E701680A68FF24213416
:10468000A2430A6001688A68520852008A602021A9
:104690009972FEF7DFFF002070BD0000F8B50446F8
:1046A0002369A268E5691A43636910202B4300213E
:1046B00025681A432B680E46474F3B4013432B6037
:1046C00023685A6803252D03AA43E5682A435A60E4
:1046D000236AA26925681A43AB680B273F02BB43D4
:1046E0001343AB603D4F25683D4B0203BD420AD1E9
:1046F0001B6B9B079B0F20D0012B14D0022B14D0D7
:10470000032B1BD10DE0374FBD4210D11B6B03278C
:104710003F043B4011D09B1A05D09B1A05D0934211
:104720000CD102200AE0042008E0082006E02E4B0D
:104730009D4202D02D4B9D4200D100200123E7690C
:10474000DB039F4222D100280CD002280DD0042880
:1047500013D0082817D001260A0912010807400FB4
:1047600010432EE0FDF710FF09E06168204A480879
:104770008018FBF7F9FC81B2EEE7FDF715FF6168E1
:1047800040004A08F4E761684808F1E7002808D0CB
:10479000022809D004280CD0082815D0012630465C
:1047A000F8BDFDF7F1FE06E06168124A480880187E
:1047B0000DE0FDF7F9FE61684A088018FBF7D4FCAC
:1047C00080B22168C860EAE761684808C018FBF752
:1047D000CBFC80B2E860E2E7F369FFEF003801400C
:1047E000001002400044004000480040004C0040DF
:1047F0000024F40000127A006921095C212901D00B
:104800000220704702464032518A002912D001230B
:1048100081681B03994202D10169002915D0C16C3E
:104820004B1CC364006809780185508A401E508281
:104830000020704701680A6880239A430A60006874
:104840000168402211430160F2E7C16C03680988E6
:10485000C905C90D1985C16C891CC164E5E7FFB59F
:1048600081B017460E4604460A9D1DE0681C1BD009
:10487000002D05D0FCF746FC0499401AA84213D934
:1048800020680168FF22A13291430160206881689D
:10489000490849008160202060346072A0720020C5
:1048A0002072032005B0F0BD2068C16930468843FE
:1048B00004D00020B842D9D00020F3E70120F9E766
:1048C00010B50248FEF764FD10BD00006C03002027
:1048D000FF30FF3002308069002806D0FF30002111
:1048E000FF3002304161084670470220704770B5C2
:1048F000C21DFF32FA321546946900F03FFBE11DFC
:10490000FF31FA31C860A869002808D04868E96911
:10491000CA688321890061189047002070BD022079
:1049200070BD70B504460025812100F07FFA012199
:10493000204600F07BFA8221204600F077FAFF340F
:10494000FF340234A069002807D0E069406880473E
:10495000A06900F0D7FD0020A061284670BDFF309F
:1049600010B5FF301A300AC8002B0AD0CC1DFF3416
:10497000FA342078FF2804D09B6862789847FF209B
:104980002070002010BD00000A21018000487047FF
:10499000E0000020432101800048704730010020E2
:1049A0004321018000487047EC0000204321018032
:1049B0000048704774010020F8B50446007C0126C9
:1049C00000257602002830D0402302228121204693
:1049D00000F03EFB402302220121204600F038FB7C
:1049E000082303228221204600F032FB872080002A
:1049F00000F08AFDE11DFF31FA31886100281CD0EA
:104A00000746C86900688047FF370020FF37023734
:104A10007861B861207C7A68002810D04023012199
:104A2000204600F02BFB2846F8BD334602228121A8
:104A3000204600F00DFB3346CDE70125F3E7334672
:104A4000EDE710B54321C9000958002913D0027CB5
:104A5000002A09D0FF31FF3102314A684023012189
:104A600000F00CFB002010BDFF31FF3102310123AB
:104A70005B024A68F3E7022010BD024602200029CB
:104A800004D0FF32FF3202320020D1617047FF3084
:104A9000FF3002308069FF30FF300230416000207B
:104AA0007047FF30FF3002308069FF30FF30023046
:104AB000026181600020704770B50C46C11D05463B
:104AC000FF31FA31207860228E69024022D0202AFC
:104AD00028D1E288002A16D0000607D5C969607877
:104AE0008B6831469847E288314618E0F01DFF3068
:104AF0006178FA300170A1794170E2883146284628
:104B000000F036F80EE0C96960788B680022214613
:104B1000984707E060780A2804D103490122284613
:104B200000F042F8002070BDDC00002010B58522A6
:104B30009200125852689047002010BD134610B5DD
:104B40000A46002100F09AFA002010BD134610B565
:104B50000A46002100F050FB002010BD10B50446AD
:104B6000802100F01BFB0021204600F017FB10BD48
:104B700010B5FF230324F5331C50C31DF9339A608D
:104B8000DA6013460A46002100F078FA002010BDD2
:104B900010B5FF210522F5310A5000231A461946A7
:104BA00000F06CFA002010BD10B5FF230224F5338D
:104BB0001C5082611346C2610A46002100F01CFBB2
:104BC000002010BD10B5FF210422F5310A5000234A
:104BD0001A46194600F010FB002010BD10B50A4619
:104BE000024903A000F0D4F8004810BDCC08002012
:104BF00043444320436F6E666967000012200880BB
:104C0000004870472400002010B50A46024903A05E
:104C100000F0BEF8004810BDCC08002043444320FB
:104C2000496E746572666163650000000420088047
:104C3000004870472000002010B50A46024903A032
:104C400000F0A6F8004810BDCC08002053544D6970
:104C500063726F656C656374726F6E696373000075
:104C600010B50A46024903A000F092F8004810BDB2
:104C7000CC08002053544D3332205669727475614C
:104C80006C20436F6D506F727400000010B50A46BF
:104C9000024903A000F07CF8004810BDCC080020B9
:104CA00030303030303030303030314100000000B2
:104CB000F8B50D4604464988FF300A0AFF30023035
:104CC000130000F06FFC084905091649493E4649A2
:104CD0000069237C02682AE0217C022640690029C1
:104CE00005D0C16A684688470146467040E0816A3F
:104CF000F8E7C9B20B0000F055FC0604080F1317C3
:104D00001E2F0069227C436802E00069227C8368D0
:104D100069461046984712E00069227CC368F7E7AD
:104D20000069227C0369F3E70069237C42696946D4
:104D30001846904703E00069227C8369E8E7014652
:104D400016E0217C002907D14069416B68468847FD
:104D5000F5E7217C002904D029462046FFF7FEFE16
:104D6000F8BD4069016B68468847072201464270DA
:104D7000684600880028F3D0EA88002AF0D08242F2
:104D800000D90246684602802046FFF70DFFF8BDB5
:104D900070B5002300281CD00446002502E06D1CDD
:104DA000EDB2641C2678002EF9D16C00A41C14808E
:104DB000CC5403225B1CCA5400245B1C06E0CA547A
:104DC0005B1CDAB28C54521CD3B2401C0278002A0D
:104DD000F5D170BD10B5002813D0C31DFF33FA33D1
:104DE0005C69002C01D000245C61002900D01961AD
:104DF000FF210123FD310B54027000F0C7F80020A1
:104E000010BD022010BD10B5FF30FF30023000246D
:104E1000006AFCF79FFD002806D0012801D0022877
:104E200001D0022400E00124204610BD10B5FF305F
:104E3000FF3002300024006AFCF7D8FC002806D0BE
:104E4000012801D0022801D0022400E001242046DC
:104E500010BDFEB50446FF30E51DE130FF35FA35E3
:104E600013460190002908D068694269002A49D098
:104E70000198007F032843D044E02646FF36813660
:104E80002046716F1430022934D1C26881680092C3
:104E9000914207D9891A81608AB219462046FFF7E4
:104EA00055FE13E0406811460746FBF75DF90029FF
:104EB00013D10098874210D3B06F87420DD20022E1
:104EC00011462046FFF742FE0020B06700231A4635
:104ED0001946204600F0D2F80CE06869C168002944
:104EE00005D00198007F032801D12046884720463D
:104EF000FFF74EFE2878012804D10020287001E039
:104F0000204690470020FEBD70B50546FF35E135CF
:104F10002B46203316460446002907D0586982697B
:104F2000002A29D0287F032824D025E0FF21F5314D
:104F3000E01D0959FD3003291ED18268C1688A42EB
:104F40000BD9511A8160C068814200D301468AB2F0
:104F500031462046FFF7F2FD0EE05869016900294D
:104F600004D0287F032801D1204688472046FFF738
:104F700029FE01E020469047002070BDFF3010B5AB
:104F8000FF300230006AFCF73FFD10BD10B51F492D
:104F9000C41DC861FF341E49FA341E4821620860EE
:104FA000022208208A6048600020C8608861C861C9
:104FB0000A6108620846FDF7B9F8002804D0FF210D
:104FC000253115A000F0ACFA002218231146206A02
:104FD000FCF7D4FB582300228021206AFCF7CEFB8B
:104FE000C02300228121206AFCF7C8FBFF23113374
:104FF00000220121206AFCF7C1FBFF2301330022BC
:105000008221206AFCF7BAFB002010BD6C0800204A
:105010006C060020005C00402E2E2F5372632F750B
:105020007362645F636F6E662E630000FF30CA09AF
:10503000FF3049060230490E1C23006A5943081804
:10504000002A01D0203001E0FF300130807A704723
:1050500070B5FF301D46FF30023013460024006A51
:105060002A46FCF7DBFC002806D0012801D00228E4
:1050700001D0022400E00124204670BD10B5FF30AD
:10508000FF3002300024006AFCF71AFE002806D028
:10509000012801D0022801D0022400E0012420468A
:1050A00010BD70B50022044640231146FFF7D0FF23
:1050B0004025FF20113005512B460022802120463B
:1050C000FFF7C6FFFF200121FD3025620155E01DDD
:1050D000FF30FA308169002904D0406921794268A3
:1050E00020469047002070BDFF30E130417F0177BE
:1050F0000020704710B5FF21FD31095C032906D15E
:10510000852189000958C969002900D088470020F5
:1051100010BD01740020704710B5FF30FF30023021
:105120000024006AFDF796F8002806D0012801D077
:10513000022801D0022400E00124204610BD70B5F1
:1051400004464120C0002018054600F068F82146BA
:10515000FF3181310122084680304A67C2898A675F
:10516000007AC106C90E0AD001290DD0022910D03B
:10517000C109C901204600F011F8002070BD294680
:10518000204600F0B6F8F8E72946204600F09DF9E1
:10519000F3E72946204600F023F9EEE710B5FF308B
:1051A000FF3002300024006AFCF726FE002806D0FB
:1051B000012801D0022801D0022400E00124204669
:1051C00010BD10B5FF30FF3002300024006AFDF73B
:1051D00062F8002806D0012801D0022801D002245C
:1051E00000E00124204610BDFF30E130017F41770F
:1051F000042101770020704710B5FF30FF300230E6
:105200000024006AFCF742FE002806D0012801D0E5
:10521000022801D0022400E00124204610BD0A78B3
:1052200002704A784270CB788A781B02D21842808A
:105230004B790A791B02D21882808A79C9790902CE
:105240005118C180704702460020002904D0FF3267
:10525000FF320232516170470220704710B585223B
:10526000920012580224002A04D0126890470028A5
:1052700000D10024204610BD70B50E468978194D26
:1052800004462970012904D931462046FFF766FCFF
:1052900070BD2046FF30E130027F022A15D0032A7C
:1052A000F2D1002917D0606888420AD0C1B22046E6
:1052B000FFF73CFC297861602046FFF7CFFF02280A
:1052C000E2D02046FFF77EFC70BD0029F9D0032212
:1052D00061600277F0E70222027720466160FFF703
:1052E00025FCEEE7D800002010B5FFF76AFF00208C
:1052F00010BDF8B500220092C61DFF364C78174647
:10530000FA3632460125203A230000F04BF90A3CD8
:10531000564150410906412B2841FFF7C9FC5DE089
:1053200004468888002818D1C888002815D18878B4
:1053300017464606107F760E03280ED0BE773146FC
:105340002046FFF7E9FE2046FFF73CFC002E02D086
:105350000220387742E03D7740E0204618E0FFF732
:105360008BFF3BE0CB88012B12D1127F022A02D0A7
:10537000032A0DD104E0012201460831876013E0C1
:105380000122011D10E0127F022A04D0032A02D05C
:10539000FFF7E4FB22E0C5607168002901D003211A
:1053A000C160014602220C31FFF7FEFB16E0044605
:1053B0004888012812D1756009E00446107F022850
:1053C00001D00328C9D14888012807D177607069C6
:1053D0008268204690472046FFF7F4FB0098F8BD0E
:1053E000F8B504460D462878E61D4006FF3600272E
:1053F0000979800FFA36012809D06A7830462038BA
:10540000002A38D0012A1ED0032A3DD106E0706957
:1054100029468268204690470020F8BD007F022878
:1054200017D003282CD16888002806D1002904D081
:10543000802902D02046FFF7B1FE706929468268B4
:105440002046904713E0007F022802D0032817D19E
:1054500004E0002918D080291AD115E068880028B6
:1054600012D1480603D02046FFF7CDFCE5E72046E1
:10547000FFF7A8FB08E0007F022807D003280BD025
:1054800029462046FFF76AFB3846F8BD4806FBD0A0
:105490002046FFF783FEF7E7C80904D04806400D11
:1054A0000519143504E04806400D0519FF3505358A
:1054B0002046FFF7BBFD002800D001202860022213
:1054C00029462046FFF770FBDEE770B50446FF3043
:1054D000E130007F0D4603280FD1287901280CD830
:1054E000852080000059826820469047E88800287F
:1054F00006D12046FFF766FB02E02046FFF72EFBB1
:10550000002070BD70470000004870474C04002028
:1055100010B50248FCF784FD10BD00006C060020A9
:10552000FEE700000FB410B503A9044B044A02982B
:1055300000F03CFC10BC08BC04B018478D620008A9
:10554000F00100202021020C01D010211046020A97
:1055500001D010460839020901D01046091F8208FF
:1055600001D01046891E420801D0881E7047081AD3
:105570007047F0B4040C8BB2264682B25E430D0C29
:105580001046370C584336048019002179411646DD
:105590006E43370C36048019794126466E438919CB
:1055A000F0BC704730B47446641E2578641CAB426E
:1055B00000D21D46635D5B00E31830BC1847000055
:1055C0004900CA020243100000D004204A0D01D055
:1055D00001221043044A490D914201D1022108439E
:1055E000012800D105207047FF07000000487047E0
:1055F000FC010020F7B596B014460021A160D160EF
:10560000179909914D00CD496D088D4205DC179918
:1056100061602060002019B0F0BDC949C94E8D42BB
:1056200038DAD32709997F050029C74A17993346E5
:1056300017DDFAF735FFB54206D0C44AC44BFAF776
:105640002FFF6160206009E03A46C14BFAF728FF5E
:10565000C04AC14BFAF724FF61602060012019B0F5
:10566000F0BDFAF779FEB54206D0B84AB84BFAF762
:1056700073FE6160206009E03A46B54BFAF76CFEB4
:10568000B44AB54BFAF768FE616020600020C04361
:1056900019B0F0BDB1498D42179977DC490049082E
:1056A0000746AF4AAF4B0491FAF708FF0022AE4B12
:1056B000FAF752FEFBF792F90A90FBF77BF9A24A40
:1056C000334603910290FAF7F9FE3A46049BFAF743
:1056D000EDFE06460F469D4A9D4B03990298FAF748
:1056E000EDFE2A0D01250C9232463B46FAF7DEFE0E
:1056F00061602060032D39D04800410D0C98401A9C
:10570000690169181139814230DA984928017944D0
:1057100008960D9008180497436802680399029848
:10572000FAF7CCFE02460B460791069004990898BA
:10573000FAF7B6FE06460F46049B089AFAF7B6FE3D
:10574000079B069AFAF7ACFE0591894904907944C3
:105750000D984018C368826803990298FAF7AEFE64
:10576000059B049AFAF79CFE6D1CBDE7099800287A
:1057700009DA01226068D207504060600A9819B0C7
:105780004042F0BD02E00A9819B0F0BD09030122C1
:10579000090B12050E908918179810914000754951
:1057A000400D40184111C006C00E0D9113902021EC
:1057B000081A1490002006900525079013980028D9
:1057C0000D980CD0401982006B4878448758139983
:1057D0008F40101841681498C1400F4304E04019ED
:1057E000810066487844475810993846FFF7C1FE53
:1057F00006460A9138460E99FFF7BBFE8A190A9BA6
:105800008A4201D2012100E00021C9188C46AF0074
:10581000694679188B684E68C318834201D201200B
:1058200000E0002096193618002802D0964202D9CE
:1058300003E0964201D2012000E0002062461218E7
:105840004E6068468B60C25128466D1E0028B5DC4C
:105850000121029849074018800F1390029805997A
:105860008000039E049D0B91FBF7A4F80746304689
:105870000891FAF703FF1D22D243FBF784F810903A
:105880000F912846FAF7FAFE3D22D243FBF77BF848
:105890000E900D910B98FAF7F1FE5D22D243FBF7C3
:1058A00072F80B910C900D9B0E9AFAF755FD0F9B19
:1058B000109AFAF751FD3A46089BFAF74DFD00257C
:1058C0000E463A462846089BFAF7EAFD0F9B109AC7
:1058D000FAF7E6FD0D9B0E9AFAF7E2FD0B9B0C9A88
:1058E000FAF7E4FD264A274BFAF7E8FD07460D9143
:1058F000254A264B31462846FAF7E0FD3A460D9BED
:10590000FAF72AFD0F4615220C9092061D4B3146E0
:105910002846FAF7D3FD3B460C9AFAF71DFD179A75
:10592000002A05DA139A524213920122D2075140FB
:1059300061602060139819B0F0BD0000FB21E93FC1
:105940007CD90240FB21F93F000040543163621AC8
:1059500061B4D03D7370032E8A19A33BFB213941FA
:1059600083C8C96D305FE43F0000E03F4628000077
:10597000062800000BFCFFFFBA270000A02700004C
:10598000182D4454FB21F93D3326A611460B113C3A
:10599000F0B51FB44E00F9207608800584B00F469C
:1059A000864204DA0498FBF719F8002838D0049AE4
:1059B0003B4610461946FAF781FD044602462C483C
:1059C0000D460B460621784400F05CF822462B4633
:1059D000FAF774FD019100903946079B069A0498E6
:1059E000FAF76CFD0746029120462946019B009A72
:1059F000FAF764FD3A46029BFAF752FD0746002289
:105A00000091D24320462946FAF7BDFF194A964233
:105A10000ADA3A46009BFAF743FD0022164B23E0D0
:105A20000020154909B0F0BD144A964202DD002459
:105A3000134D03E001225205B51A002422462B46DD
:105A4000FAF72EFD0646019122462B4600200A4910
:105A5000FAF726FD0D4604463A463046009B01996A
:105A6000FAF71EFD22462B46FAF720FD09B0F0BDDD
:105A70005E2500003333D33F0000F03F0000E93FD4
:105A80000000D23FF8B504464F1EC8000838211860
:105A900015461E46086849683A4606239A4310D0C0
:105AA0002A463346FAF70AFD3A46D200083AA318C6
:105AB0001A687F1E5B68FAF74FFC06223B46934349
:105AC000EED1022F23D0042F11D0062F2FD12A463A
:105AD0003346FAF7F3FCE36AA26AFAF73DFC2A467A
