:020000040800F2
:10000000582500204D010008D9330008D12D0008E3
:1000100000000000000000000000000000000000E0
:10002000000000000000000000000000FD35000896
:1000300000000000000000000B0100080D36000861
:100040005F0100085F0100085F0100085F01000810
:100050005F0100085F0100085F010008DD0900087A
:100060005F0100085F0100085F0100085F010008F0
:100070005F0100085F0100085F0100085F010008E0
:100080005F0100085F010008F93600085F01000801
:100090005F0100085F0100085F0100085F010008C0
:1000A0005F0100085F0100085F0100082D3F0008A4
:1000B0005F0100085F0100085F0100085F010008A0
:1000C0000348854600F044FC00480047B16F000833
:1000D00058250020084B19680868203080F30988EB
:1000E000022080F31488BFF36F8F3FBCAE4608BC7C
:1000F00004BC62B61847000068000020EFF31080CF
:1001000072B6704780F310887047EFF309800E4B8A
:100110001A6820381060F0C044464D4656465F4687
:10012000F0C008B572B608F0F1FF62B60CBC1168F9
:1001300008681030F0C8A046A946B246BB4680F316
:1001400009882038F0C81847680000200448804714
:1001500004480047FEE7FEE7FEE7FEE7FEE7FEE7AE
:100160009D360008C100000830B50B46014600204E
:100170002022012409E00D46D5409D4205D31D46AD
:100180009540491B2546954040191546521E002DA5
:10019000F1DC30BD70B500242546002801DA0124C9
:1001A0004042002901DA01254942FFF7DDFFAC4258
:1001B00000D04042002C00D0494270BDF0B51FB4C1
:1001C0000646002082B005464024019100901BE0C5
:1001D000019922460F46304600F020F8049A059B0C
:1001E000801A994110D310461946224600F0BAFAF7
:1001F000361A8F410197224601200021009F00F00E
:10020000B1FA38184D4100902046641E0028DFDC0A
:10021000019B00982946324607B0F0BD10B5202A50
:1002200004DB0846203AD040002110BD0B46D340E5
:10023000D0402024A21A91400843194610BD000066
:1002400000487047709B000803460B439B0703D090
:1002500009E008C9121F08C0042AFAD203E00B788B
:100260000370401C491C521EF9D27047D2B201E003
:100270000270401C491EFBD270470022F6E710B501
:1002800013460A4604461946FFF7F0FF204610BD04
:1002900010B5044605E00B780370401C002B00D01D
:1002A000491C521EF7D2204610BD421C0178401C4A
:1002B0000029FBD1801A704710B5002200E0521CC3
:1002C000835C8C5CA34201D1002BF8D1D8B2E1B29F
:1002D000401A10BDF7B5009C0F4600262578641C17
:1002E000002D05D0FFF7ACFF0068405DC007F5D1D9
:1002F0002B2D02D02D2D18D0641E39462046029A8F
:1003000000F053FA002F04D03968A14201D10099BE
:1003100039607105022400290BDA4042002803DD10
:1003200003F0ECFE0460A007FEBD0120800206433E
:10033000E3E70028F8DA03F0E1FE04600048FEBDC0
:10034000FFFFFF7FF0B507460846584087B0C00F53
:10035000049048000E46590040084908BC1A8841DC
:1003600005D2384631461E4617460B46024658000F
:10037000400810434CD0300D039040055900400D0B
:10038000490D0590401A0290402872DA18030121A5
:10039000000B09050843019004980092002805D03D
:1003A0000199524200208841009201900298402118
:1003B0000A1A0199009800F0D5F905460C466B46DB
:1003C00007CB00F0DFF9C0197141039A0E0D00232D
:1003D000D71756401A467A40164344D0049A002A4A
:1003E0002DD0029A012A039A15DC1205C01A9141F8
:1003F00001263605001C7141D20F059ED2070093DD
:10040000019202962A46234600F02FFA07B0F0BD6B
:1004100038463146FAE71605224A0F46B218C01A86
:10042000B74101210905001C4F4100187F411146C9
:1004300018187941E20F10436D19644113E0E20787
:100440006D0815436408C2071443039A0126120578
:10045000C01A91413605001C7141CE074008304357
:100460004908C01851412A46234600F0F1F9CDE76A
:10047000FFE7049801224000C117121A00238B41A4
:1004800004983146C417381AA141EEE730B401246C
:10049000E407634030BC55E730B40124E407614011
:1004A00030BC4FE70000E0FFF0B51FB488B00B99F7
:1004B0000998002448400999C00F4900490809914A
:1004C000C0070B990090490049080B9109990898B9
:1004D000A64608431CD00B990A98084318D00998DF
:1004E00001244000420D4800410D099824050003F5
:1004F000000B204309900B980003000B20430B9046
:1005000050181C494018002201901446104605E07E
:10051000002001460DB0F0BD032801DA034600E0DB
:1005200003239C46C11A0AAE0AE05F0008ADED5BEA
:100530004F00F75B7D430027AA187C41491C5B1ED6
:100540006145F2DD410004AB5A522104120C0A430A
:10055000240C401C0828DFDB0198029000997046AB
:1005600001910090059B049A0799069800F07DF987
:10057000D0E700000DFCFFFFF0B50C465C4085B0F5
:10058000E40FE40703944C000026640859009446E5
:10059000490802460296224321D062460A431ED0F1
:1005A0006200570D4A000E032303550D0124024635
:1005B0002C492405781B1B0B360B4018234326437C
:1005C000614600901C46501AB44103D30098401C69
:1005D000009002E0921800985B41002803DA0020A6
:1005E000014605B0F0BD00200121090507468646F9
:1005F00011E064461D46141BB54106D36546521BE7
:10060000B341744607430C43A646CD07400849084A
:10061000284392185B4105460D43EAD11046184322
:1006200013D06046194650407140084306D06046DA
:10063000101AB34106D20122002306E00022012352
:10064000DB0702E00122D2435310009874460105F3
:10065000381C6141029C039D0019694100F0F8F8C3
:10066000BFE70000FD03000070B54B005B080343CB
:100670000BD04B005C0D002633466542B341D417C6
:10068000AD1AA34102DB0020014670BD12053018EF
:10069000514170BD0EB5C217C10F5040CA07401876
:1006A0000021054B0293019200910A460B4600F08F
:1006B000DCF803B000BD0000330400000EB50549AE
:1006C0000291002100910A460B46019100F0CDF8FD
:1006D00003B000BD330400004A0009030123090BE5
:1006E0001B051943094B10B5520D9A4201DA00203F
:1006F00010BD064B34339A4203DC9A1AFFF78EFD85
:1007000010BD03495118884010BD0000FF030000D0
:10071000CDFBFFFF10B5002904DB0124E4074042B4
:100720008C412146002B04DB1C460123DB0752428F
:10073000A3418B4200D1824210BD000010B50029B8
:1007400004DB0124E40740428C412146002B04DBFA
:100750001C460123DB075242A341994200D190423B
:1007600010BD000010B5202A04DB0146203A91405C
:10077000002010BD914020239C1A0346E3401943FA
:10078000904010BD10B5202A06DBCB170846203A52
:100790001041C1170B4306E00B461341D040202403
:1007A000A21A91400843194610BDF7B582B0029CC9
:1007B00000272078641C15460197302802D0002DB0
:1007C00015D015E020780127641C782804D058281B
:1007D00002D0002D09D00BE0002D01D0102D07D143
:1007E000002710252078641C02E0082500E00A2577
:1007F0000026009610E00099012769430818020CB2
:10080000294680B2714300908E183804864201D385
:10081000012001902078641C294600F0ABF80028E4
:10082000E9DA0398002805D0002F01D0641E00E00B
:10083000029C04600198002806D003F05FFC0221AE
:100840000160C81E05B0F0BD009930040843F9E707
:1008500010B5002B08DA0024401C614192185B415E
:100860001A4301D14008400010BDF0B51FB482B05A
:1008700005460C0003D0084603F0ECFB02E003F051
:10088000E9FB20300246009021462846FFF76AFF28
:10089000049B059A04460F4618431143084314D09D
:1008A000184610431BD0009840210A1A1846059993
:1008B000FFF7B4FC05460E46009A05990498FFF729
:1008C00051FF084305D0012004E02046394607B017
:1008D000F0BD0020C11705430E432C433743009958
:1008E0000E986305401A7905E40A00220C43FD0ABC
:1008F0000A3002D500200146E9E7010510196941D7
:100900000C9C0D9D00196941FFF7A2FFDFE7000075
:100910004A0009030123090B1B0519430A4B10B5B3
:10092000520D9A4202DA0020014610BD064B3433C4
:100930009A4203DC9A1AFFF771FC10BD034BD218E0
:10094000FFF710FF10BD0000FF030000CDFBFFFF0D
:10095000064C0125064E05E0E36807CC2B430C3C12
:1009600098471034B442F7D3FFF7AEFB409D000820
:10097000609D00083A2800D23038202302469A436E
:10098000412A01D310463738884201D30020C043A2
:100990007047000070B5CD0F4A0009030123090B11
:1009A0001B0519430B4BED070024520D9A4201DA47
:1009B000002070BD074B34339A4203DC9A1AFFF7CC
:1009C0002DFC02E00449511888402C43F1D04042EC
:1009D00070BD0000FF030000CDFBFFFF10B501203C
:1009E000C00300F0BDF910BD00B5002200F002F810
:1009F00000BD000030B4054601200D4B5C7A012C8F
:100A000014D8587A00241C54587A8000C0184560C5
:100A10005D7A08482A54587A421C5A72303008705D
:100A20003A2048702F208870CC70002030BC70476E
:100A30004C1F0020541F002030B4014620314A785A
:100A40000023022A05D0042282630B7030BC0120EF
:100A50007047026814680E25AC431460026814687D
:100A60006408640014600125046C2A46C06BA2402F
:100A700042604D700B7030BC0020704770B5002490
:100A8000014620314A78022A03D0042181630124DF
:100A900016E0026813680E25AB4313600268136802
:100AA0005B085B0013600125036C2A469A40C36B08
:100AB0005A604D7000220A70416B002900D08847AF
:100AC000204670BD70B5044600F022FA0546601C51
:100AD00002D004480078241800F01AFA401BA04203
:100AE000FAD370BD5C000020F0B5002200295CD074
:100AF000012393409E460B40002B52D095082B4C6F
:100B0000AD002D19AC689607360F0F27B7403C4053
:100B1000A4460924E406A04201D1002414E0244C98
:100B2000A04201D101240FE0224CA04201D10224B5
:100B30000AE0214CA04201D1032405E01F4CA04251
:100B400001D1042400E00524B44064450FD11C4CBD
:100B500026689E43266066689E436660E6689E43FC
:100B6000E660A6689E43A660AB68BB43AB600468C2
:100B700055000323AB409C430460D408A400241810
:100B8000266A5507EF0E0F25BD40AE432662C468A6
:100B90009C43C46044687546AC43446084689C438D
:100BA0008460521C0B46D340A2D1F0BD000001402E
:100BB0000004004800080048000C004800100048ED
:100BC0000004014070B5614E88B0317A00297DD1B2
:100BD0000121C903884279D15D4C0920E16BC0062F
:100BE000112901DB002200E00122802100F089F9B7
:100BF000E06B112803DB564805F05CFF00E0F0696C
:100C0000524A401C921D511EF061481E6B4607C39C
:100C10000A203056E12109014843F169D31E4018EA
:100C2000121F511E08F00FF9707A002804D1307994
:100C30000C2801D90C383071464A3079114601230D
:100C40001C3140B208F0E0F8424A7079383A114657
:100C500001231C3140B208F0D7F83E49F0795439ED
:100C6000002855D001230A46307C1C3A40B208F0D7
:100C7000CBF8384DF079383501284ED00024382093
:100C80003249604340190122123106F00DF9641C0B
:100C9000062CF4DB707B1421401CC0B27073FFF78C
:100CA00063FA002932D180212B4807F012FA0E2076
:100CB000305EFFF7EFFC0322D243FFF7D5FC04467A
:100CC0000D46FF2124480131803000E01EE0FFF78F
:100CD000D4FA0A22B256B179707904901E4B05A855
:100CE0000EC03379F278B178707803936B4607C3FE
:100CF000194822462B461949803003F097F91648C7
:100D0000803008F05BFA317B4018307308B070BD5A
:100D1000104A0123703AB079A8E7002438200B4923
:100D2000604340190122153106F0BEF8641C022C04
:100D3000F4DB0224382005496043401903221231B4
:100D400006F0B2F8641C062CF4DBA3E700000020D8
:100D5000E002002048010020DC080020989C0008E8
:100D600010B504494A69024202D04861FFF72AFFE0
:100D700010BD000000040140F8B400220B68002BF5
:100D800072D001270B6897403B40002B6DD00C7947
:100D9000A407A40F012C01D0022C10D185685400A7
:100DA0000326A640B543CE68A6402E43866044681D
:100DB000BC430D79ED06ED0F9540254345600C7958
:100DC000E443A40708D0C56854000326A640B543F1
:100DD0008E68A6402E43C6600C79A407A40F022C8F
:100DE0000CD1D408A40027183D6A5407E40E0F263E
:100DF000A640B5430E69A6402E433E6205685400E6
:100E00000326A640B5430E79B607B60FA6402E437B
:100E100006604C68A403A40F4ED02B4CA569012694
:100E20003543A561A469344000949508274CAD0072
:100E30002F19BD689407240F0F26A640B543092635
:100E4000F606B04201D1002616E0214EB04201D193
:100E5000012611E01F4EB04201D102260CE01E4EC9
:100E6000B04203D1032607E02BE025E01B4EB04241
:100E700001D1042600E00526A6402E43BE60184D91
:100E8000AC689C434E68F60200D51C43AC60EC682D
:100E90009C434E68B60200D51C43EC606C689C43D2
:100EA0004E68B60300D51C436C602C689C434E68AA
:100EB000F60300D51C432C60521C0B68D34000D0B5
:100EC0005FE7F8BC704700000010024000000140DE
:100ED0000004004800080048000C004800100048CA
:100EE000000401400069084201D001207047002041
:100EF0007047426913460B401B0491430B438361C7
:100F00007047002A01D081617047816270470000FC
:100F100001488068704700005C00002070B4024601
:100F200040325378202B02D070BC022070471378D7
:100F3000012B1AD0012414702423537003681D68F8
:100F4000A5431D6003681D682603B5431D60036843
:100F50001D680D431D600068016821430160202069
:100F600050700020107070BC704770BC0220704739
:100F700070B4024640325378202B02D070BC02205D
:100F800070471378012B19D0012515702423537055
:100F900003681C68AC431C6003681C680F2636029B
:100FA000B4430902214319600068016829430160C4
:100FB000202050700020107070BC704770BC022060
:100FC0007047000070B50446002C06D02546403519
:100FD00068780026002802D005E0012070BD2E7040
:100FE000204600F053FA2420687020680168490800
:100FF000490001600F216068090688432168086183
:10100000206882680121C9038A438260E068012860
:1010100030D02122A0689202104322689060012201
:10102000E068D20202282AD02068436893434360D4
:1010300020684268144B1A4342602068C2688A43A1
:10104000C260616920690843A169090208432168F7
:10105000C860216AE0690843216808602068016867
:101060000122114301606664202068702663AE701F
:10107000002070BDA068226808439060CFE7206818
:10108000436813434360D3E700800002FFB585B097
:1010900004461D4600200290264640367278202ADB
:1010A00002D0022009B0F0BD22689269D243120436
:1010B00002D4022009B0F0BD3278012A23D00122E7
:1010C000327024227270002060643D4A8805800DD1
:1010D0008118D213914304913A49401890430390E8
:1010E000E068012812D0039821684860FFF710FFDC
:1010F0000746206881698906C90F8069C006C00F4C
:10110000014305D016E0022009B0F0BD0498EBE7DA
:10111000681C06D0FFF7FCFEC01BA8421BD8002DA0
:1011200019D0206881698906C90F8069C006C00F7F
:101130000143EDD020688069C043C0061DD52B4611
:10114000002220212046009701F0F4FE00280CD058
:10115000012009B0F0BD20207070616C0143616412
:1011600000203070012009B0F0BD21682020C86146
:1011700070700020307009B0F0BD2B460022202195
:101180002046009701F0D6FE002802D0012009B0C9
:10119000F0BD21681020C86121682020C861029834
:1011A000401C029002990798814299D320207070C8
:1011B000616C0143616400203070012009B0F0BD12
:1011C0000020000200280002FFB581B00446254639
:1011D00040356878202802D0022005B0F0BD28787C
:1011E000012810D001202870FFF792FE0646012248
:1011F0001923D1032046009601F09CFE002805D05B
:10120000012005B0F0BD022005B0F0BD22206870BD
:101210001020A870002767640398606204986085B6
:101220006763618D3A48FF2908D901222285009021
:1012300013062046029901F067FE0AE0618D2185C0
:101240000090208D0123C2B25B062046029901F076
:101250005BFE608D002843D0324620460A9901F09B
:10126000ADFE002802D0012005B0F0BD2068406A24
:10127000616A0870606A401C6062208D401E80B206
:101280002085618D491E6185618D002925D000284A
:1012900023D100960022802120460A9B01F04AFEBD
:1012A000002802D0012005B0F0BD608DFF2809D9CB
:1012B000FF22228501231B0600972046029901F098
:1012C00023FE0AE0608D20850097208D0123C2B2A5
:1012D0005B062046029901F017FE608D0028BBD105
:1012E000324620460A9901F0BDFE002802D00120B6
:1012F00005B0F0BD20682021C16120684268054B1F
:101300001A4042606970AF702F70002005B0F0BDC8
:101310000024008000E800FEFFB581B004462546A9
:1013200040356878202802D0022005B0F0BD28782A
:10133000012810D001202870FFF7EAFD064601229F
:101340001923D1032046009601F0F4FD002805D0B2
:10135000012005B0F0BD022005B0F0BD212068706D
:101360001020A87000276764039860620499618563
:101370006763618DFF2904D9FF21218501231B06A5
:1013800003E0618D218501235B06228D3D49002A02
:1013900013D0226800789062606A401C6062608DA1
:1013A000401E6085208D401E2085401CC2B20091E9
:1013B0002046029901F0A8FD05E000910022204698
:1013C000029901F0A1FD608D002843D032462046ED
:1013D0000A9901F077FE002802D0012005B0F0BD87
:1013E000606A216800788862606A401C6062608D73
:1013F000401E6085208D401E80B22085618D0029B1
:1014000025D0002823D100960022802120460A9B67
:1014100001F090FD002802D0012005B0F0BD608DE4
:10142000FF2809D9FF22228501231B0600972046A9
:10143000029901F069FD0AE0608D20850097208DFA
:101440000123C2B25B062046029901F05DFD608D6A
:101450000028BBD1324620460A9901F003FE00283D
:1014600002D0012005B0F0BD20682021C1612068B4
:101470004268054B1A4042606970AF702F700020BF
:1014800005B0F0BD0020008000E800FE10B586B079
:10149000044614216846FEF7F0FE1249206888428F
:1014A0001ED1114C616901208004014361616169B1
:1014B00001400591032000020090122001210190BB
:1014C000032002910491039069460848FFF754FCF9
:1014D000E169012040050143E161E16901400591B5
:1014E00006B010BD00540040001002400004004847
:1014F00070B50446002C1DD021681748086021688B
:10150000164808602168606848602168A0688860A3
:10151000FFF7FEFC05462068C068400710D0FFF7C3
:10152000F7FC401B272807D92068C068400703D074
:10153000032070BD012070BD2068C0684007EED157
:1015400020680269E1688A4201D0016101E0044932
:101550000160002070BD0000CCCC0000555500009B
:10156000AAAA00000068024901600020704700003C
:10157000AAAA000002488168027889188160704731
:101580005C00002010B5064801681022114301607C
:10159000002000F007F800F053F8002010BD000014
:1015A0000020024030B505461F4887B0C26920219F
:1015B0000A43C261C0690840049005A9684600F06A
:1015C000C9F90398002815D000F0E6F94000174942
:1015D000FEF7CAFD411E1748154A0260164AC2604E
:1015E0004160002101618160816100F093FF04008E
:1015F00003D015E000F0D0F9E9E70E4800F0EEFF67
:1016000004000DD1122000F033F8042D07D200227F
:101610002946122000F038F80848056000E001244F
:10162000204607B030BD00000010024040420F00CD
:1016300000140040E40D0020E703000060000020DB
:1016400008B50A488169012211438161816911400D
:101650000091C26901040A43C261C06900220840C6
:1016600003210090481F00F00FF808BD0010024051
:10167000002805DBC106C90E012088400149086029
:101680007047000000E100E08207D30EFF229A407D
:101690008907090E9940002808DB830809489B0048
:1016A0001818036893430B43036070470007000F4B
:1016B0000838830804489B001818C36993430B43F8
:1016C000C361704700E400E000ED00E0BFF34F8F1E
:1016D00004490348C860BFF34F8F00BFFDE7000017
:1016E0000400FA0500ED00E0F8B504462068484E15
:1016F000C0035CD50025F069C00007D4F06931044F
:101700000843F061F06908400090012541480168F4
:10171000C90517D40068FF21013108433D4908601D
:10172000FFF7F6FB07463B480068C0050AD4FFF701
:10173000EFFBC01B642801D90320F8BD35480068C1
:10174000C005F4D5306A032109020840002821D0E1
:1017500062680A4082421DD0306A8843326A0121A1
:1017600009040A433262326A8A4332623062C00735
:1017700010D0FFF7CDFB0746306A80070AD4FFF789
:10178000C7FBC11B2448814201D90320F8BD306A40
:101790008007F4D5306A0321090288436168084351
:1017A0003062012D03D1F06929078843F061207868
:1017B000C00705D0306BA168800880000843306303
:1017C0002078800706D5306B032109048843E1683F
:1017D000084330632078800605D5306B102188439C
:1017E0002169084330632068800305D5306B802170
:1017F0008843A169084330632088400505D5306BD4
:10180000402188436169084330630020F8BD00002F
:10181000001002400070004088130000F8B5044634
:101820000D46002C12D046480068C007C00FA842E1
:101830000ED2434801684908490029430160006805
:10184000C007C00FA84203D00120F8BD0120F8BD99
:1018500020683C4E81070CD5400704D570680721ED
:101860000902084370607068F0218843A16808434A
:1018700070602078C00738D06068012808D002283E
:101880000BD003280ED03168890710D40120F8BD91
:10189000316889030BD40120F8BD3168890106D471
:1018A0000120F8BD716B890301D40120F8BD716876
:1018B0008908890001437160FFF72AFB07467068B9
:1018C00062680C210840920090420ED0FFF720FB86
:1018D000C11B1D48814201D90320F8BD70680C214D
:1018E0000840616889008842F0D115480168C9073D
:1018F000C90FA9420BD90168490849002943016071
:101900000068C007C00FA84201D00120F8BD2078B0
:10191000400706D57068072109028843E16808433B
:10192000706000F049F87168084A0906090F515CB7
:10193000C840074908600020FFF734FE0020F8BDCA
:10194000002002400010024088130000B49A0008F2
:101950005800002010B4072202600A4A53689B070F
:101960009B0F43605368F024234083605268072331
:101970001B021A40C26004480068C007C00F08601C
:1019800010BC70470010024000200240014800686F
:10199000704700005800002000B5FFF7F7FF04492A
:1019A0004968044A4905490F515CC84000BD000020
:1019B00000100240C49A000870B51B4B59680C20F7
:1019C0000A4602401948042A05D0194D082A03D0B6
:1019D0000C2A00D1284670BD8A02164C120FA45C56
:1019E000DA6A154B1207120F9A5CC903890F022994
:1019F00009D003290FD000231946FEF7DFFB21464B
:101A000002F03FFB70BD00231946FEF7D7FB2146CD
:101A100002F037FB70BD002328461946FEF7CEFBC7
:101A2000214602F02EFB70BD0010024000127A0029
:101A3000006CDC02CC9A0008DC9A0008F0B583B098
:101A40000446002C0ED02078F94DC00769D0686894
:101A50000007800F01282ED068680007800F022839
:101A600003D007E0012003B0F0BD6868C003800F19
:101A7000022820D06068012826D00121890400288E
:101A800028D005282FD02A68881082432A60286829
:101A9000884328606068002832D0FFF739FA06468C
:101AA000286880033DD4FFF733FA801B642823D9CC
:101AB000032003B0F0BD2868800332D56068002899
:101AC0002FD1012003B0F0BD28680121090408438B
:101AD0002860DFE72A680120000482432A60286822
:101AE00088432860D6E728680843286028680121D1
:101AF000090408432860CDE728688003D3D510E0A7
:101B0000FFF706FA0646286880030AD5FFF700FAB1
:101B1000801B642802D9032003B0F0BD286880032D
:101B2000F4D42078800753D568680007800F1ED052
:101B300068680007800F022804D16868C003800F1E
:101B4000012814D0E06800282DD02868012108431E
:101B50002860FFF7DDF90646286880071BD4FFF7E9
:101B6000D7F9801B022813D9032003B0F0BD2868E1
:101B7000800705D5E068012802D0012003B0F0BD40
:101B80002968F82081432069C000014329601FE0D3
:101B900028688007E3D52868F82188432169C900AF
:101BA0000843286014E02868400840002860FFF7D8
:101BB000AFF90646286880070AD5FFF7A9F9801B08
:101BC000022802D9032003B0F0BD28688007F4D4AE
:101BD000207800072DD5E069002815D0686A01211A
:101BE00008436862FFF794F90646686A800720D4C4
:101BF000FFF78EF9801B022802D9032003B0F0BD45
:101C0000686A8007F4D514E0686A4008400068629A
:101C1000FFF77EF90646686A80070AD5FFF778F96C
:101C2000801B022802D9032003B0F0BD686A800738
:101C3000F4D420780427400700287DDA0026E869DC
:101C4000C00007D4E869B9060843E861E8690840BC
:101C50000190012677480168C90519D40068FF2161
:101C60000131084373490860FFF752F90290714847
:101C70000068C0050CD4FFF74BF90299401A64289C
:101C800002D9032003B0F0BD6A480068C005F2D550
:101C9000A06801281DD0002820D0052826D0286A59
:101CA000400840002862286AB8432862A0680028DB
:101CB00028D0FFF72DF90290286A800736D4FFF765
:101CC00027F90299411A5C48814217D9032003B0D1
:101CD000F0BD286A012108432862E7E7286A400826
:101CE00040002862286AB8432862DFE7286A384340
:101CF0002862286A012108432862D7E7286A8007FA
:101D0000DDD513E0FFF704F90290286A80070DD5AE
:101D1000FFF7FEF80299411A4748814203D9032090
:101D200003B0F0BD08E0286A8007F1D4012E03D18A
:101D3000E86931078843E8612078C00647D56069C3
:101D4000012816D0401D34D0686B38436863686B37
:101D5000400840006863FFF7DBF80646686B8007C1
:101D600035D5FFF7D5F8801B02282DD9032003B005
:101D7000F0BD686B38436863686B01210843686392
:101D8000FFF7C6F80646686B80070AD4FFF7C0F86D
:101D9000801B022802D9032003B0F0BD686B8007C6
:101DA000F4D5686BF8218843A169C90008436863CA
:101DB0000DE0686BB8436863686BF8218843A169DC
:101DC000C9000843686302E0686B8007C9D42078C3
:101DD00080064CD568680007800F03281FD068680C
:101DE0000007800F022804D16868C003800F032811
:101DF00015D0206A002825D0686B0121090408430A
:101E00006863FFF785F80646686B80032FD4FFF7F9
:101E10007FF8801B022811D9032003B0F0BD686B46
:101E2000800324D5206A012821D0012003B0F0BD11
:101E3000001002400070004088130000686B8003AF
:101E4000E5D514E0696B0120000481436963FFF765
:101E50005FF80646686B800309D5FFF759F8801BC9
:101E6000022801D90320E1E7686B8003F5D4606A9A
:101E700000286BD069680907890F02294DD0012617
:101E8000360602280FD02868B0432860FFF740F8D4
:101E900004462868800159D5FFF73AF8001B02284C
:101EA00037D90320C2E72868B0432860FFF730F82D
:101EB00007462868800109D5FFF72AF8C01B0228C9
:101EC00001D90320B2E728688001F5D4E86A216BC4
:101ED000000900010843E862A16AE06A08436968F2
:101EE0007B22D2039143084368602868304328600E
:101EF000FFF70EF804462868800127D4FFF708F89A
:101F0000001B022801D9032090E728688001F5D53D
:101F10001CE028688001BFD418E0012814D068684C
:101F2000E96A0322D203A36A02409A420AD109074E
:101F3000226B090F914205D10F2189040840E16A03
:101F4000884203D0012071E701206FE700206DE790
:101F500070B50446002C10D0022025464035687725
:101F600020680168402291430160204600F080F81B
:101F7000002020666877287770BD012070BDF8B515
:101F80000446002C0CD0606A002600280AD0266186
:101F90006661A66225464035687F002808D00BE0C0
:101FA0000120F8BD6168C81FFD38F2D0E661F0E796
:101FB0002E77204600F072F802226A7720680168C6
:101FC0004023994301600723E1681B02994201D92C
:101FD000002001E0012000030F273F02B94202D098
:101FE000994200D0A662FF2361680533194021277A
:101FF000A368BF023B40194323691340227D194364
:10200000D207D20F11430123A2695B021A40114388
:10201000E26938231A401143226A80231A4011438F
:10202000A26A9B011A40114322681160A16904222F
:10203000090C1140626A10231A401143626B082395
:102040001A4011430F23E2681B021A401143012278
:10205000120310400143206841602068C16952109A
:102060009143C1612666012068770020F8BD000019
:1020700010B500680649884208D106488169821473
:102080009143816138210448FEF72EFD10BD000008
:1020900000300140001002400004004810B586B036
:1020A000044614216846FEF7E8F811492068884282
:1020B0001BD11048826981140A43826182690A40F7
:1020C0000592426989010A434261406908400590CE
:1020D00038200090022000210190032002910491F9
:1020E000039069460448FEF747FE06B010BD0000A5
:1020F000003001400010024000040048FFB583B0EA
:1021000004461D46002726464036307F01280AD067
:1021100001203077FEF7FCFE02900598717F0129BF
:1021200004D00227B1E0022007B0F0BD04990029D5
:1021300033D00599002930D0032171770021216621
:10214000049AA263059AA287059AE2872164B18066
:10215000F1802165E1640122A168D203914209D195
:1021600021680A6840239A430A6021680A681B02B2
:102170001A430A6021680A68520603D40A68402399
:102180001A430A600722E1681202914234D9616859
:10219000002904D0012802D00BE0012775E0A06BD4
:1021A00021680088C860A06B801CA063E08F401E7F
:1021B000E087E08F00284CD020688168890709D526
:1021C000A16B0988C160A06B801CA063E08F401EDA
:1021D000E08709E0FEF79CFE0299401AA84201D36D
:1021E000681C05D1002D03D0E08F0028E4D130E039
:1021F00003270120707748E06168002901D0012899
:1022000009D1A06B216800780873A06B401CA06303
:10221000E08F401EE087E08F00281AD02068816898
:10222000890709D5A16B09780173A06B401CA063D5
:10223000E08F401EE08709E0FEF76AFE0299401A2F
:10224000A84201D3681C11D1002D0FD0E08F0028C7
:10225000E4D129462046029A01F0BFF8002801D0B7
:1022600020202066A068002804D007E00327012072
:1022700070770AE02068C16880680190206E0028AD
:1022800001D0012701E00120707700203077384627
:1022900007B0F0BDFFB583B00C9F044601260020B7
:1022A000019025464035287F012810D0012028774D
:1022B000FEF72EFE0290697F6268069801290ED013
:1022C000D31FFD3B08D1A268002A05D102E00220FD
:1022D00007B0F0BD042902D002200190E1E004998A
:1022E000002926D00599002923D00699002920D05D
:1022F000697F042901D005216977002222660599AA
:1023000021640699E9800699A9800499A163069938
:10231000E1870699A187E264226507230122E1682B
:102320001B021203994207D921684B6893434B6003
:1023300006E001200190B4E021684B6813434B6034
:1023400021680A68520603D40A6840231A430A60C7
:102350000721E26809028A4247D96168002901D051
:1023600001283BD1A06B21680088C860A06B801C4D
:10237000A063E08F401EE08730E020688168890715
:102380000ED5E18F00290BD0012E09D1A16B098850
:10239000C160A06B801CA063E08F401EE087002618
:1023A00020688168C9070CD0E988002909D0C06875
:1023B000216C0880206C801C2064E888401EE88026
:1023C0000126FEF7A5FD0299401AB84206D3781CF3
:1023D00004D0032001900120687762E0E08F00289C
:1023E000CBD1E8880028C8D143E06168002901D03A
:1023F000012838D1A06B216800780873A06B401CBD
:10240000A063E08F401EE0872DE020688168890787
:102410000ED5E18F00290BD0012E09D1A16B0978CF
:102420000173A06B401CA063E08F401EE087002674
:1024300020688168C9070CD0E988002909D0007B91
:10244000216C0870206C401C2064E888401EE880E5
:102450000126FEF75DFD0299401AB84201D3781CAF
:1024600018D1002F16D0E08F0028CED1E8880028A0
:10247000CBD139462046029A00F0AFFF002803D0A6
:102480000120019020202066206E002807D0012026
:10249000019006E0032001900120687701E001200F
:1024A000687700202877019807B0F0BD7047704723
:1024B000F0B402462032137F012B22D0012616777A
:1024C0000223537703685D689C687027BD430F68DB
:1024D0002F435F6000680C4B984208D0B3079842C6
:1024E00005D00A4B984202D0094B984204D1802370
:1024F0009C43496821438160567700201077F0BCE7
:102500007047F0BC02207047002C014000040040DE
:102510000040014070B50446002C05D0254620350A
:10252000687F002802D006E0012070BD00202877D7
:10253000204600F015F802206877211D206801F080
:10254000E3F801204034A071A877E877207060702C
:10255000A070E070207160716877002070BD00008D
:1025600008B5006801218907884207D10448C1697C
:1025700001221143C161C0691040009008BD0000F4
:1025800000100240014620314A7F012A01D001207B
:10259000704702224A7700680D490122884208D01C
:1025A0009107884205D00B49884202D00A498842E7
:1025B00008D181684907490F062906D001681143EF
:1025C000016002E0016811430160002070470000D3
:1025D000002C014000040040004001400146203131
:1025E0004A7F012A01D00120704702224A77016800
:1025F000CB6801221343CB6000680D49884208D0A4
:102600009107884205D00B49884202D00A49884286
:1026100008D181684907490F062906D0016811438E
:10262000016002E001681143016000207047000072
:10263000002C01400004004000400140F8B5044671
:10264000002625462035287F012817D0012028772D
:1026500002206877206882687727BA43FF231B022D
:102660009A4382600868502838D00EDC202853D066
:1026700006DC002850D010281ED14DE00220F8BD05
:10268000302849D0402817D13CE0602830D070284D
:1026900019D001221203801A0FD090420CD1CB68BE
:1026A0004A688968206801F081F820688168012201
:1026B00092031143816000E0012601206877002029
:1026C00028773046F8BDCB684A688968206801F0F1
:1026D0006DF82068816839438160EEE7CA6849680F
:1026E000206801F077F85021206801F06BF8E4E7EA
:1026F000CA684968206801F07FF86021206801F00D
:1027000061F8DAE7CA684968206801F063F8402197
:10271000206801F057F8D0E722680146104601F022
:1027200051F8CAE77047F8B504462068C5680669DD
:102730000027B107002914DAA90712D5F91E016193
:102740000120207720688069800703D02046FFF7AA
:10275000E9FF05E0204600F07EF8204600F07CF816
:102760002777700717D5680715D504202168C0435F
:10277000086102202077206880698005800F03D0DF
:102780002046FFF7CFFF05E0204600F064F8204622
:1027900000F062F82777300716D5280714D50820EF
:1027A0002168C0430861042020772068C069800741
:1027B00003D02046FFF7B6FF05E0204600F04BF8B7
:1027C000204600F049F82777F00617D5E80615D51A
:1027D00010202168C0430861082020772068C06964
:1027E0008005800F03D02046FFF79CFF05E02046C0
:1027F00000F031F8204600F02FF82777F00708D0D6
:10280000E80706D001202168C0430861204600F097
:1028100025F8300608D5280606D580202168C04353
:1028200008612046FFF742FE700608D5680606D507
:1028300040202168C0430861204600F019F8B00626
:1028400008D5A80606D520202168C0430861204687
:10285000FFF72DFEF8BD70477047000010B5006807
:102860000249884201D1FEF785FE10BD00140040E8
:10287000704770477047000010B5006804498842EF
:1028800004D101220349044800F0E8F910BD00001A
:102890000038014000000020780B0020F8B5044605
:1028A0002268D06911689368A24D06462E40002E1A
:1028B00009D1850607D58D0605D5A16E002901D061
:1028C00020468847F8BD25468035002E7FD09A4F98
:1028D000DE07F60F0F40374379D0C70706D0CF0584
:1028E00004D5012717626A683A436A60820708D5EF
:1028F000DA0706D0276802223A626A6804273A4358
:102900006A60420708D5DA0706D0236804221A62F3
:102910006A6802231A436A60020709D520220A4026
:10292000324305D0236808221A626B6813436B6038
:10293000020509D54A0107D501222368D2021A628D
:102940006A6820231A436A606A68002ABAD080063F
:1029500006D5880604D5A16E002901D020468847F7
:10296000686821688968490602D42821084228D06D
:10297000204601F02DF82068816849061DD5EFF347
:102980001081012282F31088836840229343836080
:1029900081F31088606F00280BD068494163606F35
:1029A000FEF76CF800288DD0606F416B8847F8BD4A
:1029B0000DE02046FFF760FFF8BD2046FFF75CFF03
:1029C000F8BD2046FFF758FF00206860F8BD266E6E
:1029D000012E7DD1C6067BD5CE0679D51023136294
:1029E0002068816826464906403600294BDA626F26
:1029F0001168496889B20029E8D0378B8F42E5D940
:102A000071839169202934D0EFF31081012282F380
:102A1000108802681F01BA43026081F31088EFF347
:102A20001081012080F310882068826852085200CB
:102A3000826081F31088EFF31081012080F3108809
:102A4000206882684027BA43826081F31088202082
:102A5000286000202066EFF31081012080F31088A9
:102A6000206802689A43026081F31088606FFDF766
:102A7000E3FF02206066308B718B401A81B22046E2
:102A8000FFF7F7FEF8BD318B728B891A89B2728B12
:102A9000002AF7D00029F5D0EFF31082012686F343
:102AA00010880668FF272137BE43066082F310882E
:102AB000EFF31082012080F3108820688668760882
:102AC0007600866082F3108820202860002000E0D5
:102AD00012E02066A066EFF31082012080F31088D8
:102AE000206805689D43056082F3108802206066B7
:102AF0002046FFF7BEFEF8BDC50208D55B0206D52D
:102B00000120000510622046FFF7B4FEF8BD020662
:102B100007D50A0605D5E16E0029F7D0204688477B
:102B2000F8BD4006FCD54806FAD5204600F080FFE7
:102B3000F8BD00000F08000020010004BD390008A6
:102B400010B50446002C03D0E06F002802D007E047
:102B5000012010BD002178200155204600F028F802
:102B60002420E06720680168490849000160606A24
:102B7000002802D0204600F053FE204601F03CF829
:102B8000012813D0206841680922D2029143416094
:102B9000206881682A2291438160206801680122AF
:102BA00011430160204600F0A1FE10BD012010BDC0
:102BB000F0B587B0044614216846FDF75EFB226835
:102BC000224B012400252249A40402260327214880
:102BD0009A421FD18B69221113438B618B69134079
:102BE00005934A6922434A6149690295214005914A
:102BF000C02100910397019604956946FEF7BCF841
:102C0000002211461B20FEF73FFD1B20FEF730FD82
:102C100007B0F0BD104B9A42FAD1CA692243CA618B
:102C2000CA69224005924A6922434A614969039769
:102C3000214005910321890200910421049101960C
:102C400002956946FEF798F8E2E700000038014077
:102C500000100240000400480048004070B5802386
:102C60001B58202B01D0022070BD00290AD0002A59
:102C700008D0012483682403A34209D10369002BEF
:102C800002D005E0012070BDCB0701D0012070BD4E
:102C90000023036603685C6824020BD5EFF31084FD
:102CA000012585F310881D680126B60635431D6091
:102CB00084F3108801F06CF870BD000010B5006856
:102CC0000649884209D106480178064804F012F9FD
:102CD000012203490448FFF7C1FF10BD003801403D
:102CE00000000020D0020020780B0020FFB583B048
:102CF00004460F461546E06F202802D0022007B098
:102D0000F0BD002F0AD0002D08D00120A1680003DB
:102D100081420BD12069002803D007E0012007B0D1
:102D2000F0BDF80702D0012007B0F0BD00218420DB
:102D300001512120E067FEF7EBF80290264640366D
:102D4000358275820120A1680003814202D1206989
:102D5000002813D03D460027708A00281CD0069812
:102D60000090002280212046029B01F081F800287B
:102D700006D02020E067032007B0F0BD0025EBE778
:102D8000002D18D02168287808856D1C708A401E97
:102D90007082708A0028E2D10698009000224021BB
:102DA0002046029B01F064F800280BD02020E06749
:102DB000032007B0F0BD38882168C005C00D088524
:102DC000BF1CE3E72020E067002007B0F0BD70479C
:102DD000FEE701688A69D243920701D400228A6221
:102DE00000688169C943C90703D081690122114381
:102DF00081617047F7B582B0044617460026206807
:102E000081690025CA06214640310191002A47DA2E
:102E10001021C16135E00398401C32D0FEF778F8EC
:102E2000C11B0398814202D80398002829D1206849
:102E30004168012292031140019A92788369DB4331
:102E40001B040BD401239B03994207D0202A05D0F1
:102E5000416819434160FEF75BF8074620688069C6
:102E6000C04380060DD5FEF753F8C01B192803D9BF
:102E700020200543012604E020688069C0438006C5
:102E8000F1D420688069C043800601D5002EC2D0ED
:102E9000002E02D121682020C861042005430126AC
:102EA00021688869C20504D5012215431202CA614E
:102EB0000126410505D508210D432268C901D161CC
:102EC0000126800505D50220054321680002C8615E
:102ED0000126002E12D02046FFF77BFF20684168B4
:102EE000084A11404160606C2843606401992020C9
:102EF000487001990020887001990870304605B02B
:102F0000F0BD000000E800FE10B4019C8905890DA9
:102F100012041143194321434900490800684268DB
:102F2000630D034C23439A430A43426010BC70472D
:102F3000FF63FF03F8B504460E4617461D4620689A
:102F40008169304688430BD00020B84231D12946F0
:102F50002046069AFFF74EFF002803D00120F8BD57
:102F60000120F2E7681C1CD0FDF7D2FF0699401A39
:102F7000A84201D8002D14D12068816930468843C9
:102F80000DD00020B8420CD1616C20200143616457
:102F9000403460700020A07020700120F8BD012036
:102FA000F0E7206881693046884304D00020B842A9
:102FB000CDD00020F8BD0120F9E70000F7B50446A8
:102FC0000F4600252646403640E039462046029A04
:102FD000FFF710FF002800D0012520688169C94350
:102FE00089061CD4002D1AD18169C943490781691A
:102FF000C943C90611D41021C1610420606420684E
:103000002022C26120684168154B194041607270EE
:103010000020B0703070012501E000206064FDF7F1
:1030200077FF0299401AB84201D8002F0ED1002D27
:103030000CD120688069C043400707D5616C20200F
:103040000143616470700020307001252068806940
:10305000C043400701D5002DB7D0284603B0F0BDCE
:1030600000E800FE70B504460D46164620688069EB
:10307000C043800624D5324629462046FFF7BAFED3
:10308000002801D0012070BDFDF742FF801BA8423F
:1030900001D8002D0FD120688069C04380060AD571
:1030A000616C202001436164403460700020A07096
:1030B0002070012070BD20688069C0438006DAD48A
:1030C000002070BD70B504460D4616462068806924
:1030D000C043800726D5324629462046FFF78AFEA0
:1030E000002801D0012070BD681C16D0FDF710FF2C
:1030F000801BA84201D8002D0FD120688069C043F1
:1031000080070AD5616C20200143616440346070FF
:103110000020A0702070012070BD20688069C0432D
:103120008007D8D4002070BD10B504490448FDF7CD
:103130005BFC0249491E087010BD000051000020D0
:103140003C000020F0B587B014216846FDF795F8E3
:103150003E4842690121C9040A43426142690A406A
:1031600005924269C9000A43426142690A400592D8
:10317000426949110A43426142690A400592426923
:1031800049000A4342614069314F08404C110590A3
:10319000012221463846FDF7B4FE092001222D49BF
:1031A000C006FDF7AEFE2C4E012231462B48FDF73E
:1031B000A8FE009400240125019502946946384632
:1031C0000394FDF7D9FD032769462548009702952A
:1031D0000194FDF7D1FD81200090092002946946F9
:1031E00001950394C006FDF7C7FD02200090092059
:1031F000694601970294C006FDF7BEFD154802948A
:103200008138009011200190092069460394C0067E
:10321000FDF7B2FD029469461048009601950394AB
:10322000FDF7AAFDE8030090112000040190694613
:1032300002940A48FDF7A0FD002203210720FEF7B3
:1032400023FA0720FEF714FA07B0F0BD0010024081
:1032500000080048C180000007700000000400481A
:103260000014004810B5124810490160114941602E
:10327000002181600161416181610122C161C260FF
:103280000162FDF79FFE002800D0FEE700210848FC
:10329000FDF744FE002800D0FEE700210448FDF7BA
:1032A00067FE002800D0FEE710BD0000005400407B
:1032B000680A00201A09102010B511480F49016052
:1032C000FF21053141600021072281601202016166
:1032D000C260012241615202826101621022416298
:1032E000C26181620722C262016308214163FEF765
:1032F00046FE002800D0FEE710BD0000003001406F
:10330000CC0A002010B586B0002400940121144896
:1033100001940294039404948907059401602F2179
:10332000846041600461611E8461C160FFF7F2F84E
:10333000002800D0FEE701200003009069460848FD
:10334000FFF77CF9002800D0FEE7049404A90448A4
:103350000594FFF7ADF8002800D0FEE706B010BDD9
:10336000300B002010B50D480B4901604B21C901FD
:10337000416000218160C160016181610C22C161F5
:10338000426101620821416209034163FFF7D8FBF2
:10339000002800D0FEE710BD00380140780B002067
:1033A00010B50C480A490160E12149024160002141
:1033B0008160C16001618161C1610C220162426171
:1033C0004162FFF7BDFB002800D0FEE710BD000002
:1033D00000480040000C00207047F8B504460F4636
:1033E000154603213B460022C9022046009500F005
:1033F00027F82026002804D0206E304320660320C2
:10340000F8BD3B46002280212046009500F08AF856
:10341000002804D0206E304320660320F8BD03212D
:103420003B46002249022046009500F009F800289A
:1034300004D0206E304320660320F8BD0020F8BD84
:10344000FFB585B00E9D04460E461746002001903C
:10345000FDF75EFD411B0898451AFDF759FD0390E5
:10346000206801460C3102912D49232209685143FD
:10347000090D6943049180683040B8424DD0032063
:103480004002864206D1002F04D1029800780190B4
:10349000694608790898401C3AD0FDF739FD039930
:1034A000401AA84205D2002D03D0049800282BD042
:1034B0002BE020684168E022914341606068C11FB1
:1034C000FD390CD10121A068C903884202D04911FD
:1034D000884204D1206801684022914301600121A3
:1034E000A06A4903884207D1206802688A430260C3
:1034F000206802680A43026001204034607700209F
:103500002077032009B0F0BD00250498401E0490E8
:10351000206880683040B842B1D1002009B0F0BDC9
:1035200058000020FFB583B004460E4617460C9D98
:10353000FDF7EEFC411B0698451AFDF7E9FC0190EA
:103540002D4800684001000D6843029020688168A2
:103550003046884311D00020B84247D00698401C1E
:103560003CD0FDF7D5FC0199401AA84207D2002DA6
:1035700005D0029800282DD02DE00120ECE720682E
:103580004168E022914341606068C11FFD390CD160
:103590000121A068C903884202D04911884204D1A0
:1035A000206801684022914301600121A06A49031B
:1035B000884207D1206802688A4302602068026856
:1035C0000A43026001204034607700202077032006
:1035D00007B0F0BD00250298401E02902068816867
:1035E0003046884305D00020B842B7D1002007B04C
:1035F000F0BD0120F8E70000580000207047FF24CC
:10360000F534204604F0E8F9FBE7000010B5FCF7BC
:1036100075FD044606F0AEF8002803D001200349EA
:10362000000748602046FCF76DFD10BD00ED00E08E
:1036300030B599B034216846FCF71FFE002414947D
:10364000159416941C210DA81794FCF716FE28203B
:10365000012500900895079509946846FEF7EEF954
:10366000002800D0FEE70720149003201590169440
:103670000121179414A8FEF7D1F8002800D0FEE726
:1036800021200D90102011900F950DA8FEF72CF819
:10369000002800D0FEE719B030BD000012480168D4
:1036A0000122114301604168104A114041600168E4
:1036B0000F4A1140016001680122920491430160A8
:1036C00041683F22120491434160C16A090909011E
:1036D000C162016B074A11400163416B490849000F
:1036E0004163002181607047001002400CB8FF0860
:1036F000FFFFF6FE2CFEFCFF10B50248FFF713F8A3
:1037000010BD0000E40D0020F0B40268214B01243C
:10371000A407214D984203D0A04201D0A84203D172
:103720007026B2434E6832431C4E1D4F98420DD056
:10373000A0420BD0A84209D01A4CA04206D0B042F9
:1037400004D0B84202D0184CA04204D10324240271
:10375000A243CC6822438024A2434C6922430260E6
:103760008A68C2620A688262984206D0B04204D077
:10377000B84202D00C4A904201D10969016301218B
:1037800041610169C90703D0016949084900016124
:10379000F0BC7047002C0140000400400040014094
:1037A00000440140002000400048014030B48468DB
:1037B000FF252D02AC431B0213430B4323438360BD
:1037C00030BC7047826870239A430A4307210A433A
:1037D0008260704730B4036A046A6408640004625B
:1037E0008469F025AC43120122430A24A3430B430E
:1037F0008261036230BC704730B4036A046A1025EA
:10380000AC43046284690F252D03AC4312032243A9
:10381000A024A343090119438261016230BC7047AF
:1038200010B4818C090707D501684A680123DB03BE
:103830009A43436B1A434A60818CC90707D00168D9
:103840004A6801235B049A43836A1A434A60818C65
:10385000890707D501684A6801231B049A43C36A94
:103860001A434A60818C490707D501684A680123D9
:103870009B049A43036B1A434A60818CC90607D59F
:1038800001688A6801231B039A43836B1A438A6089
:10389000818C890607D501688A6801235B039A43F6
:1038A000C36B1A438A60818C490612D501684B6844
:1038B00001221205046C934323434B60016C914237
:1038C00007D101684A6803235B059A43436C1A4396
:1038D0004A60818C090607D501684A680123DB0428
:1038E000806C9A4302434A6010BC7047F0B583B0C5
:1038F00004462646002780367760FDF709FB0290D4
:103900002068006825460007603500281CDA2A4830
:1039100000900121002249052046029B00F0A8FAF0
:10392000002811D0EFF31081012080F31088206867
:10393000026880239A43026081F310882020E067A8
:103940002F76032003B0F0BD20680068400729D51A
:10395000194800900121002289052046029B00F0B1
:1039600087FA00281ED0EFF31081012080F3108821
:1039700020680268FF2321339A43026081F3108894
:10398000EFF31081012080F31088206882685208CC
:103990005200826081F31088202030602F7603204F
:1039A00003B0F0BD2020E0673060276667662F76A1
:1039B000002003B0F0BD0000FFFFFF0110B5406A1A
:1039C0000022014640314A834A82FEF755FF10BD6E
:1039D00010B4EFF31082012181F3108801680B68A5
:1039E000FF242134A3430B6082F31088EFF310828D
:1039F000012181F3108801688B685B085B008B6094
:103A000082F31088016E01290AD1EFF3108281F34D
:103A1000108801680B681024A3430B6082F31088A0
:103A2000202280210A5000210166816610BC704767
:103A300010B5EFF31082012181F3108801680B6843
:103A40004024A3430B6082F310882021C16700212A
:103A5000C166FFF7BCF910BD70B5014640318B8BD4
:103A600002468032156814460268222D04D09069FF
:103A700008210843906170BD928C456D1A402A80E0
:103A8000426D921C42654A8B521E4A834A8B002A21
:103A9000F1D1EFF31083012282F3108802681568D8
:103AA000FF262136B543156083F31088EFF31083AA
:103AB000012282F31088026895686D086D00956098
:103AC00083F3108820222260002484664466026802
:103AD00053681B020BD5EFF31083012585F3108883
:103AE00015680126B606B543156083F31088026E8B
:103AF000012A02D0FFF7E2F870BD0466EFF31083ED
:103B0000012282F31088026815681024A54315600D
:103B100083F310880268D369DB43DB0600D41462A8
:103B2000098BFEF7A6FE70BD70B5014640318B8B48
:103B300002468032156814460268222D04D090692E
:103B400008210843906170BD928C1A40436D1A7031
:103B5000426D521C42654A8B521E4A834A8B002A90
:103B6000F1D1EFF31083012282F310880268156807
:103B7000FF262136B543156083F31088EFF31083D9
:103B8000012282F31088026895686D086D009560C7
:103B900083F3108820222260002484664466026831
:103BA00053681B020BD5EFF31083012585F31088B2
:103BB00015680126B606B543156083F31088026EBA
:103BC000012A02D0FFF77AF870BD0466EFF3108384
:103BD000012282F31088026815681024A54315603D
:103BE00083F310880268D369DB43DB0600D41462D8
:103BF000098BFEF73EFE70BD70B504460025A16836
:103C00002069E2690143606910430143206802684A
:103C1000564B1A400A43026020684168032212038F
:103C20009143E26811434160A069216A0143206821
:103C300082680B231B029A430A4382604C4A206825
:103C40004C49904213D1086B8007800F07D00128A0
:103C500009D0022809D0032803D010202CE000202E
:103C60002AE0022028E0042026E0082024E0424A3E
:103C7000904216D1086B0321090408400BD00121A2
:103C80000904401A09D0401A09D0884201D1022003
:103C900012E0102010E000200EE004200CE00820CC
:103CA0000AE03649884201D1002005E034498842C3
:103CB00001D1002000E010200122E369D203314944
:103CC000314E934229D100281BD002281DD0042850
:103CD0001DD0082801D000220125002A41D06168AA
:103CE00050004A088018FCF73FFA01461039B142EB
:103CF00011D8264901400007420F0A432068C260DC
:103D00002FE0FDF749FE0246E7E70A46E5E7FDF743
:103D100053FE0246E1E7012523E0002816D00228E1
:103D200018D0042818D0082801D000220125002A24
:103D300017D0616848088018FCF716FA0146103958
:103D4000B1420DD8216880B2C8600AE0FDF724FEB8
:103D50000246ECE70A46EAE7FDF72EFE0246E6E7F2
:103D600001250020A066E066284670BDF369FFEFDC
:103D7000003801400010024000440040004800406C
:103D8000004C004000127A00EFFF0000F0FF00003E
:103D900070B44165014640310A834A830024846639
:103DA000012382681B03FF259A4207D10269002A7A
:103DB00001D08D8319E02B4A8A8316E07F26002AE2
:103DC00009D001252D07AA420ED10269002A09D087
:103DD0003F228A8309E00269002A01D08E8304E031
:103DE0008D8302E08E8300E08C83014680314C603D
:103DF00022220A60EFF31082012181F3108801680A
:103E00008C6801252C438C6082F31088816899426C
:103E100002D10169002912D0134981660169002984
:103E200010D0EFF31081012282F31088006802683D
:103E3000FF2321331A43026081F310880EE00B49FF
:103E40008166EBE7EFF31081012282F310880068AE
:103E5000026820231A43026081F3108870BC00209E
:103E600070470000FF010000293B0008593A000894
:103E7000FFB583B00C9E04460D4617462068C16905
:103E8000284688432BD00020B84249D120468030B4
:103E9000029020380190701C3AD0FDF739F806994D
:103EA000401AB0421DD8002E1BD020680168490777
:103EB0002ED5802D2CD0402D2AD0C169C9430907A9
:103EC00012D42068082505622046FFF781FD02987C
:103ED0004560019900200876012007B0F0BD01205F
:103EE000D2E7032007B0F0BDC069C04300050FD47E
:103EF00001202168C00208622046FFF769FD029890
:103F000020214160019900200876032007B0F0BD10
:103F10002068C1692846884305D00020B842BAD03D
:103F2000002007B0F0BD0120F8E7000010B50248FE
:103F3000FEF7B4FC10BD0000780B002010B505485A
:103F400002F07BFE002803D00348012101700078B5
:103F500010BD0000D40D002038000020002910D032
:103F60000948012909D0022903D0032907D00120DB
:103F7000704701204002108003E0406800E0806844
:103F80001060002070470000D40D0020F8B51D46D9
:103F900016460F4600240AE06002C219311906488D
:103FA00004F0C0FA002801D00120F8BD641CAC4226
:103FB000F2D30020F8BD0000D40D002005480068B1
:103FC000002801D0002070470348012101700078CB
:103FD00070470000D40D002038000020F8B51D46C1
:103FE00016460F4600240AE06002C219311906483D
:103FF00004F0DEFB002801D00120F8BD641CAC42B7
:10400000F2D30020F8BD0000D40D00200FB410B58D
:1040100003A9044B044A029800F00AFD10BC08BC36
:1040200004B018476D690008B40000200FB410B543
:1040300004A9074B02AA039800F0FAFC044602A95F
:10404000002001F091F8204610BC08BC04B01847CD
:10405000695100082021020C01D010211046020AEB
:1040600001D010460839020901D01046091F820804
:1040700001D01046891E420801D0881E7047081AD8
:104080007047F0B4040C8BB2264682B25E430D0C2E
:104090001046370C584336048019002179411646E2
:1040A0006E43370C36048019794126466E438919D0
:1040B000F0BC704730B47446641E2578641CAB4273
:1040C00000D21D46635D5B00E31830BC184700005A
:1040D0004900CA020243100000D004204A0D01D05A
:1040E00001221043044A490D914201D102210843A3
:1040F000012800D105207047FF07000000487047E5
:10410000C0000020F7B596B014460021A160D16030
:10411000179909914D00CD496D088D4205DC17991D
:1041200061602060002019B0F0BDC949C94E8D42C0
:1041300038DAD32709997F050029C74A17993346EA
:1041400017DDFCF7A3F9B54206D0C44AC44BFCF70F
:104150009DF96160206009E03A46C14BFCF796F991
:10416000C04AC14BFCF792F961602060012019B090
:10417000F0BDFCF7E7F8B54206D0B84AB84BFCF7FB
:10418000E1F86160206009E03A46B54BFCF7DAF8E7
:10419000B44AB54BFCF7D6F8616020600020C043FC
:1041A00019B0F0BDB1498D42179977DC4900490833
:1041B0000746AF4AAF4B0491FCF776F90022AE4BAD
:1041C000FCF7C0F8FCF7E6FB0A90FCF763FAA24A9A
:1041D000334603910290FCF767F93A46049BFCF7DB
:1041E0005BF906460F469D4A9D4B03990298FCF7E2
:1041F0005BF92A0D01250C9232463B46FCF74CF93F
:1042000061602060032D39D04800410D0C98401AA0
:10421000690169181139814230DA984928017944D5
:1042200008960D900818049743680268039902984D
:10423000FCF73AF902460B46079106900499089854
:10424000FCF724F906460F46049B089AFCF724F96C
:10425000079B069AFCF71AF905918949049079445D
:104260000D984018C368826803990298FCF71CF9FE
:10427000059B049AFCF70AF96D1CBDE70998002814
:1042800009DA01226068D207504060600A9819B0CC
:104290004042F0BD02E00A9819B0F0BD09030122C6
:1042A000090B12050E908918179810914000754956
:1042B000400D40184111C006C00E0D9113902021F1
:1042C000081A1490002006900525079013980028DE
:1042D0000D980CD0401982006B4878448758139988
:1042E0008F40101841681498C1400F4304E04019F2
:1042F000810066487844475810993846FFF7C1FE58
:1043000006460A9138460E99FFF7BBFE8A190A9BAA
:104310008A4201D2012100E00021C9188C46AF0079
:10432000694679188B684E68C318834201D2012010
:1043300000E0002096193618002802D0964202D9D3
:1043400003E0964201D2012000E0002062461218EC
:104350004E6068468B60C25128466D1E0028B5DC51
:104360000121029849074018800F1390029805997F
:104370008000039E049D0B91FCF78CF907463046A4
:104380000891FCF79BF91D22D243FCF76DF91090C0
:104390000F912846FCF792F93D22D243FCF764F9CD
:1043A0000E900D910B98FCF789F95D22D243FCF732
:1043B0005BF90B910C900D9B0E9AFBF7C3FF0F9BC3
:1043C000109AFBF7BFFF3A46089BFBF7BBFF00259F
:1043D0000E463A462846089BFCF758F80F9B109A61
:1043E000FCF754F80D9B0E9AFCF750F80B9B0C9AB7
:1043F000FCF752F8264A274BFCF756F807460D9172
:10440000254A264B31462846FCF74EF83A460D9B86
:10441000FBF798FF0F4615220C9092061D4B314674
:104420002846FCF741F83B460C9AFBF78BFF179A9E
:10443000002A05DA139A524213920122D207514000
:1044400061602060139819B0F0BD0000FB21E93FC6
:104450007CD90240FB21F93F000040543163621ACD
:1044600061B4D03D7370032E8A19A33BFB213941FF
:1044700083C8C96D305FE43F0000E03F865900000B
:10448000465900000BFCFFFFFA580000E0580000FE
:10449000182D4454FB21F93D3326A611460B113C3F
:1044A000F0B51FB44E00F9207608800584B00F46A1
:1044B000864204DA0498FCF76DFA002838D0049A92
:1044C0003B4610461946FBF7EFFF044602462C48D0
:1044D0000D460B460621784400F05CF822462B4638
:1044E000FBF7E2FF019100903946079B069A04987A
:1044F000FBF7DAFF0746029120462946019B009A06
:10450000FBF7D2FF3A46029BFBF7C0FF07460022AB
:104510000091D24320462946FCF7A6F8194A964254
:104520000ADA3A46009BFBF7B1FF0022164B23E064
:104530000020154909B0F0BD144A964202DD00245E
:10454000134D03E001225205B51A002422462B46E2
:10455000FBF79CFF0646019122462B4600200A49A4
:10456000FBF794FF0D4604463A463046009B0199FE
:10457000FBF78CFF22462B46FBF78EFF09B0F0BD00
:104580009E5600003333D33F0000F03F0000E93F68
:104590000000D23FF8B504464F1EC8000838211865
:1045A00015461E46086849683A4606239A4310D0C5
:1045B0002A463346FBF778FF3A46D200083AA3185A
:1045C0001A687F1E5B68FBF7BDFE06223B469343DD
:1045D000EED1022F23D0042F11D0062F2FD12A463F
:1045E0003346FBF761FFE36AA26AFBF7ABFE2A469C
:1045F0003346FBF759FF636A226AFBF7A3FE2A469C
:104600003346FBF751FFE369A269FBF79BFE2A469D
:104610003346FBF749FF63692269FBF793FE2A469D
:104620003346FBF741FFE368A268FBF78BFE2A469F
:104630003346FBF739FF63682268FBF783FEF8BD5A
:10464000F0B51FB4054648000C46F921400889051D
:1046500086B088420BDA28462146FFF739FD042848
:1046600001D100F071F8284621460BB0F0BD2A4672
:10467000234610461946FBF717FF06460F462A4603
:104680002346FBF711FF00902548019132463B4637
:1046900005217844FFF77EFF0290109803910028CF
:1046A00029D0204A204B01990098FBF7FDFE049089
:1046B000059168460FC8FBF7F7FE002201910090B4
:1046C000D24309990898FBF7CFFF019B009AFBF7AB
:1046D000DDFE32463B46FBF7E7FE099B089AFBF7F7
:1046E000D5FE059B049AFBF7D1FE2A462346FBF72D
:1046F000D3FE0BB0F0BD0B4630463946029AFBF7AD
:10470000D3FE084A084BFBF71DFE019B009AFBF7FE
:10471000CBFE2A462346FBF715FE0BB0F0BD00008A
:10472000DA550000495555555555C5BF10B50122FC
:10473000FBF79AFF10BD002210B513461046114634
:10474000FBF71AFF10BD0000034A10B50020110747
:10475000FBF78AFF10BD000001FDFFFF02E008C863
:10476000121F08C1002AFAD170477047002001E0EB
:1047700001C1121F002AFBD170470000FEB50C4694
:104780004549464E40183146FBF704FD0546009169
:10479000002902DA88196D1E00900721E81CFBF73A
:1047A000F9FC0F0000D5CF1D3D492846FBF7F2FC70
:1047B00002900E0004D53A480E180298401E02904E
:1047C00038493046FBF7E6FC0546042800D10325AE
:1047D000344835496843301A0190FBF7DBFC064644
:1047E000192800D11826304801997043081AFF2172
:1047F0006E310190FBF7CEFC0146042800D1032165
:10480000FF206E30019A4843101A002903D1002E70
:104810001AD1002D18D00023C2189C46FF333B321A
:104820006E339A4203DB6346D21AFF3A6E3AB30004
:10483000591864235D434B19FF250299913569434B
:104840005D180021194E03E00123E5E7C01A491C59
:10485000735C8342FADD6435891C656121610C2932
:1048600003DB0C396D1C65612161A761401CE261AD
:10487000E121E06009010098FBF78CFCA0603C217D
:104880000098FBF787FC0D463C21FBF783FC256075
:1048900000206160FEBD000080A243C7805101007E
:1048A000B13A0200AC8E0000B50500005499000832
:1048B0000149086070470000C0000020F0B51FB437
:1048C00086B00998089A030D0021024314D051487C
:1048D000514A1818504305141198012810981AD0FD
:1048E000281A401C00264D4F4D4900960191049016
:1048F000002812DA444211E01198012449A301284A
:1049000001D11098C1430698119A84600360C26077
:1049100041600BB0F0BD4042E4E7044621050020B1
:104920003F4A001C51410391029012E0E00707D07A
:1049300032463B4601990098FBF7B6FD0191009085
:1049400032463B4610461946FBF7AEFD06460F467B
:104950006410002CEAD10498039B0028029A09995C
:10496000089806DAFBF7A0FD019B009AFBF79CFD77
:1049700005E0FBF701FE019B009AFBF7FDFD0446F5
:104980000E460022284BFBF7D9FE03D80020C04377
:10499000014607E00022254B20463146FBF7D2FCBA
:1049A000FBF7B6FF102409E0002C0ADB0A220023E3
:1049B000FBF704FC079B30321A55641E02460A437B
:1049C000F2D11122641C079B121B1C19119B012B95
:1049D00003D0012308430ED10AE0084304D011207C
:1049E00010900020119077E71098151A6D1E0BE0BB
:1049F0001098824202DD00236D1C03E0824201DA3E
:104A000000236D1E002BEED0069811998260C160C4
:104A100030C07EE701FCFFFF104D00000000144095
:104A20000000F03F300000000000F0430000E03FD5
:104A3000FFB597B00646002518E2252877D1002457
:104A40002746FD49049400E00443761C3278012097
:104A5000203A90400842F7D130782A280ED002221E
:104A6000307801463039092916D804990A23594368
:104A7000303940181443761C0490F1E7189802C8A6
:104A800004911890002904DA0120400304434842AD
:104A9000049002200443761C30782E2814D1042080
:104AA00004437078761C2A2809D11898761C80C88F
:104AB000189009E00A214F43303FC719761C30781F
:104AC000014630390929F5D930786C2810D006DC38
:104AD0004C281AD068280ED06A2817D104E0742810
:104AE00013D07A2812D110E00120400504430CE0D5
:104AF0000121090501E0032109050C437178814278
:104B000003D1012000052418761C761C3078119002
:104B100066280BD013DC58287DD009DC00287BD018
:104B20004528F6D04628F4D047281AD1A5E118E048
:104B3000632835D0642870D0652812D19DE1702893
:104B40006CD008DC6728F1D069287BD06E280DD0A6
:104B50006F2806D1BAE073282ED0752871D0782836
:104B600059D01A9A199990476D1C7EE16002400F46
:104B7000022809D003280DD00428189801680DD008
:104B80000D60001D189070E11898EA1701680D601B
:104B90004A60F6E7189801680D80F2E70D70F0E7BB
:104BA00018986A4601781172001D18900020507202
:104BB00002A80090012005E0189802C81890002073
:104BC0000091C04361070DD5002101E00199491C06
:104BD0000191B94212DA8142F8DB009A515C002956
:104BE000F4D10BE0002101E00199491C01918142BF
:104BF000FADB019A0099895C0029F5D101990498A2
:104C00001A9B471A21463846199A00F097FA0199DB
:104C1000401945180BE04FE02CE113E04EE00098FE
:104C200000990078491C00911A9A199990470198A7
:104C3000401E0190401CF2D1214638461A9B199A19
:104C400010E137E00A200021009001916002410F3D
:104C5000022907D0189A01CA1892C217944603294C
:104C600008D00AE01898C01DC108C90005C91891EC
:104C7000944607E000B2C2179446042902D140B21C
:104C8000C1178C4600226146944506DA0A46002187
:104C9000404291418C462D2102E0210504D52B2173
:104CA0006A461173012103E0E10701D02021F7E7F3
:104CB000029155E00A200AE0102008E01020009040
:104CC0000021042004430191082703E0082000216B
:104CD000019100906002410F022907D0189A01CA81
:104CE000189200229446032908D008E01898C01DA5
:104CF000C108C90005C91891944603E080B204298F
:104D000000D1C0B200210291210729D51199702943
:104D100006D0009A1021019B4A401A4305D00EE0AC
:104D200040216A461173012108E06146014306D023
:104D300030216A4611731199517302210291009A30
:104D40000821019B4A401A430AD16146014301D11F
:104D5000610705D530216A46117301217F1E02913A
:104D60001199582904D035A10E910DA90D910DE08E
:104D700037A1F9E76146019B009AFBF71FFA0E9BEA
:104D80008C469B5C0D9A521E0D9213706146014336
:104D9000F0D10D9805A9081A20300190600703D5BD
:104DA00001200004844300E001270198874201DDCF
:104DB000381A00E000200199009041180298091863
:104DC0000498401A0490E00306D421461A9B199ACD
:104DD000049800F0B3F94519002706E003A81A9AD1
:104DE000C05D199990476D1C7F1C02988742F5DBC6
:104DF000E0030CD521461A9B199A049800F09EF9FD
:104E0000451904E01A9A3020199990476D1C0099B1
:104E1000481E00900029F5DC08E00D980D990078F7
:104E2000491C0D911A9A199990476D1C0199481EB9
:104E300001900029F1DC63E10928010030313233AF
:104E400034353637383961626364656600000000C6
:104E500030313233343536373839414243444546B0
:104E60000000000000F05AF94519761C307800283F
:104E700000D0E2E528461BB0F0BD600700D406274D
:104E80001898C01DC108C90048680A680831C30FD6
:104E9000DB071891190001D09CA108E0210501D57C
:104EA0009BA104E0E10701D09AA100E09AA1430090
:104EB00011985B08109165280CD006DC452809D0B4
:104EC00046281DD0472841D141E0662818D06728E0
:104ED0003CD13CE00021112F01DB112000E0781CC7
:104EE0000191009008A911A8FFF7E8FC139905911A
:104EF0000021119A15927F1C12980197009150E0A1
:104F00000120C00703900120019008A9009711A873
:104F1000FFF7D4FC139A149905920022119B00927A
:104F200012981593059A0192002901D0104602E0CB
:104F3000791C40180190381A01D5019804E04042CC
:104F4000401E0090781C0190C01B029043E0012F8E
:104F500000DA01270021112F01DD112000E0384681
:104F60000191009008A911A8FFF7A8FC13990591D9
:104F7000119A0021129815920091019721070CD4E3
:104F80000599B94201DB019900E00191012904DD95
:104F9000159A491E515C302906D0B84201DA011D2C
:104FA00005DA0121029115E00199491EEDE700287B
:104FB00005DC0099411800910199091A03E0019A52
:104FC000411C914200DD01910099401A401C029061
:104FD0000120C0070390200706D40299019881425E
:104FE00002DB0020C043029000206946C87707AF6B
:104FF000012103980337C907884224D00220119069
:105000002B201290039800280CDA404203902D20A8
:10501000129007E00A210398FBF7A6F830317F1EB3
:10502000039039701199481E11900029F2DC039801
:105030000028EFD1791E129808703078202108409E
:105040004530BF1E387006A8C01BC01D03901098C5
:105050000078002800D00120019941180298C0175B
:105060000918039809180498401A401E0490E00398
:1050700006D421461A9B199A049800F05FF8451946
:1050800010980078002803D01A9A199990476D1C3F
:10509000E00324D521461A9B199A049800F04EF893
:1050A00045191CE00098002807DB00990598884204
:1050B00003DD1598405C199901E0199930201A9A7E
:1050C000904700986D1C401C00900298401E029072
:1050D000002804D11A9A2E20199990476D1C019925
:1050E000481E01900029DDDC05E038781A9A7F1C03
:1050F000199990476D1C0399481E03900029F4DC10
:1051000021461A9B199A0498ACE600002D00000075
:105110002B0000002000000000000000F8B504464D
:1051200000251E461746880404D405E03946202091
:10513000B0476D1C641EF9D52846F8BDFFB504467E
:10514000002581B01E46C80301D5302700E0202786
:10515000880404D505E038460399B0476D1C641EE9
:10516000F9D5284605B0F0BD0A68531C0B601070D5
:1051700070470000F8B5044641682A480268207A62
:10518000511A00282CD025460935022822D00328A0
:1051900027D0012824D127786078874220D01E2983
:1051A0001ED80846FBF78AFA00221F4BFBF77CF952
:1051B000064600221D4B0091FBF76EF9FBF78CFAB7
:1051C000785530460022194B0099FBF7BBF8FBF7E6
:1051D00083FA03E0217800204855FF206178485584
:1051E000F8BD1046FBF76AFA114A124BFBF75CF95F
:1051F00003F0DEFB00220D4BFBF756F900220E4BAD
:10520000FBF7A0F806460F460022084BFBF796FA7C
:1052100001D2064F002621780020485530463946F5
:10522000D5E70000180000200000214000E06F409A
:105230009A9999999999B93F00C0724010B5102177
:10524000017041700021416001728176C1761121A7
:105250000930FBF712F810BD2D4F2E482C4C8169F8
:105260000025491CA83C81611C2068430019FFF7F8
:1052700081FF38206843C01901F074FD6D1C062DB4
:10528000F2DB0025224AAA20B83A10701C202946D9
:1052900041431046103009184878022801D00328ED
:1052A00001D1AB20107001200B185B7A5B088033B2
:1052B0001354401C0B28F7DB0B200B185B7A5B08A0
:1052C00080331354401C0D28F7DB284638210D2469
:1052D0004843C619E0003118084680388039006A12
:1052E000496AFBF7F9F90006410E09488031B838E0
:1052F0000155641C102CEDDBEAB2102103F0A6FB73
:105300006D1C062DBEDB112002F066FBA5E7000038
:10531000800100200000002010B50446012020700C
:10532000FBF7F6FD606010BD70B50E460446002523
:10533000FBF7EEFD002E02D0012E04D00FE0217805
:1053400001290BD00BE02178002908D161687D226A
:105350000125411AD200914200DD022560602670CD
:10536000284670BD10B50446E01D0022FF30FA301B
:105370000271521E0263204602F082FA002801D018
:10538000032010BD2046FF30E130C17F807F09023D
:1053900001431448814201D0022010BD2046203034
:1053A000427E817D12061143027EC07D12040002FE
:1053B0000243114308020C49884201D1002010BD6C
:1053C0004034627DA07C12061043227DE37C1204EF
:1053D0001B021A4310430002884201D1002010BD75
:1053E000012010BD55AA00000046415400E0401CB9
:1053F0000278002A01D08A42F9D100787047000073
:10540000F0B400221346FF301A4EFF3002300C2455
:1054100054433559002D0CD00768BD420AD1A41958
:1054200065688768BD4205D12489C588AC4204D02F
:1054300000E00123521C022AE9D3022A02D00029EB
:1054400014D109E0002B04D1022902D0F0BC1220B3
:105450007047F0BC002070470C20424390194089EF
:10546000C11FF93902D0F0BC00207047F0BC1020F9
:1054700070470000341F002030B40021064B002488
:105480000C224A439D58854200D19C50491C022958
:10549000F6D330BC70470000341F002010B50A4618
:1054A000FF30FF300230446A241D0068FF30FF30B7
:1054B00002308178500AFAF757FE02CC002904D056
:1054C000884204D22168081810BD002010BD401A7F
:1054D000241DF2E7891EFF30FF3002308269921EE0
:1054E0008A4201D8002070478278C06A4A43101867
:1054F0007047000000B54A00224B520887B09A421C
:1055000002DC0022134625E01F4B9A4208D10028F6
:1055100008D10120FFF7CCF9FFF70DF907B000BD66
:105520009A4203DBFFF702F907B000BD02AAFEF7BB
:10553000E9FD8107890F0BD0012001290ED0022936
:1055400016D0009002A80FC8FFF77AF807B000BD88
:1055500002A80FC8FEF7A4FF07B000BD009002A884
:105560000FC8FFF76DF80122D207514007B000BD08
:1055700002A80FC8FEF794FF0122D207514007B0DE
:1055800000BD0000FB21E93F0000F07F30B504467C
:10559000002002460EE0030AA55C000203436B40B4
:1055A0001806000F5840030343409BB21806C00C76
:1055B0005840521C8A42EEDB30BD4840002189220F
:1055C000030600D550404006000E491C0829F7DBB1
:1055D00070470000F3B581B00F46019DFF35FF35E0
:1055E0000235002F08D03946019801F0D2F902287F
:1055F0000AD2012003B0F0BD2E69002E02D0A869A6
:10560000B04207D8012605E0411CF3D0A9698142C8
:10561000F0D83E463446641CA869A04205D802244E
:10562000022E02D2002003B0F0BD2146019801F005
:10563000B0F9002808D0411CF5D00128F3D0B442BD
:10564000E9D1002003B0F0BD114A2146019802F0D3
:1056500055FC002806D1002F04D022463946019877
:1056600002F04CFC002805D001280ED00124204671
:1056700003B0F0BD2C616869411CF8D0401E686120
:105680006879012108436871F1E70024E443EEE7FB
:10569000FFFFFF0FF3B583B004990F6800E07F1C94
:1056A00039782F29FBD05C29F9D0FF30FF30023048
:1056B000806902900B222021029801F038FD00251C
:1056C0002E460095082001900099481C00907C5CB3
:1056D000202C0CD92F2C0AD05C2C08D02E2C02D0D8
:1056E0000198864216D3019808280AD107E000984D
:1056F000391804980160202C2ED804202DE02E2C7F
:1057000002D0062005B0F0BD08260B200190A806A7
:10571000050ED9E7802C02D3062005B0F0BD214646
:105720001FA0FFF763FE002802D0062005B0F0BDE1
:1057300020464138192802D80220054307E02046B8
:105740006138192803D801200543203CE4B23046D3
:105750000299761C0C54B7E70020002E04D0029961
:105760000978E52903D005E0062005B0F0BD0299CF
:1057700005220A700199082901D1A9060D0EA90771
:10578000890F012901D1102108432907890F012917
:1057900001D1082108430299C872002005B0F0BD6C
:1057A000222A2B2C3A3B3C3D3E3F5B5D7C7F000038
:1057B00010B4401E022813D20C210B4B4843C218D0
:1057C0005189CC1FF93C00D10021002901D0491E8C
:1057D00089B25181002900D1195010BC00207047B6
:1057E00010BC022070470000341F002004490968E3
:1057F00009684A6A4B6A9B1A8342FBD370470000D0
:105800003000002010B502490860FCF7BBFE10BD57
:1058100030000020F8B507460E460021384600F05B
:1058200010F9002816D10025FC1DFF34FA34216937
:10583000206802F025F800280CD161690978E52973
:105840000CD000290AD000250121384600F034F898
:105850000028ECD0042800D10720F8BD6D1CB5420B
:10586000F8D0F1E770B506460021304600F0E9F8BF
:1058700000281ED1F41DFF34FA342169206801F09C
:10588000FFFF0546280013D160690178002911D077
:10589000C17A090705D40B22A16901F02FFC002869
:1058A00006D00021304600F007F805462800E4D075
:1058B000284670BD0425FBE7F8B50D46C41DFF342E
:1058C000FA34E7887F1C3804000C05D020690028D2
:1058D00002D0390702D085E00420F8BD401C2061C9
:1058E000E16800290DD0434B20683A091B5C5B1E20
:1058F0001A4277D101F04DF80646012E0AD802204F
:10590000F8BD2068FF30FF3002300089B84269D806
:105910000420F8BD701C1BD020680246FF30FF3009
:1059200002308069B04257D8002D13D01046E1688C
:10593000FFF750FE064630000ED0012E0ED0701C30
:105940000ED0206803F04AF900280BD00120F8BDE2
:105950000120F8BD0420F8BD0720F8BD0220F8BDE5
:105960000120F8BD012252020021206801F0DFFB76
:1059700031462068FFF7AEFD2168FF31FF3102316B
:10598000086300252068FF30FF300230807800284F
:105990001BD921680120FF31FF31023108712068D5
:1059A00003F01CF9002801D00120F8BD2068FF3069
:1059B000FF300230016B491C01636D1C2068FF3011
:1059C000FF3002308078A842E3D82068FF30FF30F3
:1059D0000230016B491B0163E66031462068FFF726
:1059E00079FD2061E78039072068C90D40186061A2
:1059F0000020F8BD0202000070B5044601212046D7
:105A0000FFF708FF0546002D19D1FF34FF3402349B
:105A10002169206801F034FF0546002D0FD12022B6
:105A20000021606901F083FB0B22A169606901F02C
:105A300073FB20680121FF30FF30023001712846DE
:105A400070BD70B50D46C41DFF34FA34E580A368FF
:105A5000012B06D02068FF30FF3002308169994267
:105A600001D8022070BD002B03D10178032900D199
:105A7000836A002B15D080780601B5421DD31946E4
:105A8000206800F086FF0346581C11D0022B06D375
:105A90002068FF30FF300230806998420AD8022027
:105AA00070BD0189A94201D8022070BD806A08E05A
:105AB000012070BDAD1BB542E1D219462068FFF749
:105AC00009FDE360002809D0290908182061290789
:105AD0002068C90D40186061002070BD022070BDB3
