:020000040800F2
:10000000582500204D01000881330008792D000893
:1000100000000000000000000000000000000000E0
:10002000000000000000000000000000A5350008EE
:1000300000000000000000000B010008B5350008BA
:100040005F0100085F0100085F0100085F01000810
:100050005F0100085F0100085F0100089D090008BA
:100060005F0100085F0100085F0100085F010008F0
:100070005F0100085F0100085F0100085F010008E0
:100080005F0100085F010008A13600085F01000859
:100090005F0100085F0100085F0100085F010008C0
:1000A0005F0100085F0100085F010008D53E0008FD
:1000B0005F0100085F0100085F0100085F010008A0
:1000C0000348854600F0FAFB0048004741680008F5
:1000D00058250020084B19680868203080F30988EB
:1000E000022080F31488BFF36F8F3FBCAE4608BC7C
:1000F00004BC62B61847000068000020EFF31080CF
:1001000072B6704780F310887047EFF309800E4B8A
:100110001A6820381060F0C044464D4656465F4687
:10012000F0C008B572B608F04BFC62B60CBC1168A2
:1001300008681030F0C8A046A946B246BB4680F316
:1001400009882038F0C81847680000200448804714
:1001500004480047FEE7FEE7FEE7FEE7FEE7FEE7AE
:1001600045360008C100000830B50B4601460020A6
:100170002022012409E00D46D5409D4205D31D46AD
:100180009540491B2546954040191546521E002DA5
:10019000F1DC30BD70B500242546002801DA0124C9
:1001A0004042002901DA01254942FFF7DDFFAC4258
:1001B00000D04042002C00D0494270BDF0B51FB4C1
:1001C0000646002082B005464024019100901BE0C5
:1001D000019922460F46304600F020F8049A059B0C
:1001E000801A994110D310461946224600F090FA21
:1001F000361A8F410197224601200021009F00F00E
:1002000087FA38184D4100902046641E0028DFDC34
:10021000019B00982946324607B0F0BD10B5202A50
:1002200004DB0846203AD040002110BD0B46D340E5
:10023000D0402024A21A91400843194610BD000066
:10024000004870472494000803460B439B0703D0E3
:1002500009E008C9121F08C0042AFAD203E00B788B
:100260000370401C491C521EF9D27047D2B201E003
:100270000270401C491EFBD270470022F6E710B501
:1002800013460A4604461946FFF7F0FF204610BD04
:1002900010B5044605E00B780370401C002B00D01D
:1002A000491C521EF7D2204610BD421C0178401C4A
:1002B0000029FBD1801A704710B5002200E0521CC3
:1002C000835C8C5CA34201D1002BF8D1D8B2E1B29F
:1002D000401A10BDF7B5009C0F4600262578641C17
:1002E000002D05D0FFF7ACFF0068405DC007F5D1D9
:1002F0002B2D02D02D2D18D0641E39462046029A8F
:1003000000F029FA002F04D03968A14201D10099E8
:1003100039607105022400290BDA4042002803DD10
:1003200003F0ACFE0460A007FEBD0120800206437E
:10033000E3E70028F8DA03F0A1FE04600048FEBD00
:10034000FFFFFF7FF0B507460846584087B0C00F53
:10035000049048000E46590040084908BC1A8841DC
:1003600005D2384631461E4617460B46024658000F
:10037000400810434CD0300D039040055900400D0B
:10038000490D0590401A0290402872DA18030121A5
:10039000000B09050843019004980092002805D03D
:1003A0000199524200208841009201900298402118
:1003B0000A1A0199009800F0ABF905460C466B4605
:1003C00007CB00F0B5F9C0197141039A0E0D002357
:1003D000D71756401A467A40164344D0049A002A4A
:1003E0002DD0029A012A039A15DC1205C01A9141F8
:1003F00001263605001C7141D20F059ED2070093DD
:10040000019202962A46234600F005FA07B0F0BD95
:1004100038463146FAE71605224A0F46B218C01A86
:10042000B74101210905001C4F4100187F411146C9
:1004300018187941E20F10436D19644113E0E20787
:100440006D0815436408C2071443039A0126120578
:10045000C01A91413605001C7141CE074008304357
:100460004908C01851412A46234600F0C7F9CDE794
:10047000FFE7049801224000C117121A00238B41A4
:1004800004983146C417381AA141EEE730B401246C
:10049000E407634030BC55E730B40124E407614011
:1004A00030BC4FE70000E0FFF0B51FB488B00B99F7
:1004B0000998002448400999C00F4900490809914A
:1004C000C0070B990090490049080B9109990898B9
:1004D000A64608431CD00B990A98084318D00998DF
:1004E00001244000420D4800410D099824050003F5
:1004F000000B204309900B980003000B20430B9046
:1005000050181C494018002201901446104605E07E
:10051000002001460DB0F0BD032801DA034600E0DB
:1005200003239C46C11A0AAE0AE05F0008ADED5BEA
:100530004F00F75B7D430027AA187C41491C5B1ED6
:100540006145F2DD410004AB5A522104120C0A430A
:10055000240C401C0828DFDB0198029000997046AB
:1005600001910090059B049A0799069800F053F9B1
:10057000D0E700000DFCFFFFF0B50C465C4085B0F5
:10058000E40FE40703944C000026640859009446E5
:10059000490802460296224321D062460A431ED0F1
:1005A0006200570D4A000E032303550D0124024635
:1005B0002C492405781B1B0B360B4018234326437C
:1005C000614600901C46501AB44103D30098401C69
:1005D000009002E0921800985B41002803DA0020A6
:1005E000014605B0F0BD00200121090507468646F9
:1005F00011E064461D46141BB54106D36546521BE7
:10060000B341744607430C43A646CD07400849084A
:10061000284392185B4105460D43EAD11046184322
:1006200013D06046194650407140084306D06046DA
:10063000101AB34106D20122002306E00022012352
:10064000DB0702E00122D2435310009874460105F3
:10065000381C6141029C039D0019694100F0CEF8ED
:10066000BFE70000FD0300000EB50549029100211F
:1006700000910A460B46019100F0CDF803B000BD91
:10068000330400004A0009030123090B1B05194329
:10069000094B10B5520D9A4201DA002010BD064BED
:1006A00034339A4203DC9A1AFFF7B8FD10BD0349B0
:1006B0005118884010BD0000FF030000CDFBFFFF74
:1006C00010B5002904DB0124E40740428C41214697
:1006D000002B04DB1C460123DB075242A3418B4263
:1006E00000D1824210BD000010B5002904DB0124B6
:1006F000E40740428C412146002B04DB1C460123C9
:10070000DB075242A341994200D1904210BD000044
:1007100010B5202A04DB0146203A9140002010BD8C
:10072000914020239C1A0346E3401943904010BD9A
:1007300010B5202A06DBCB170846203A1041C11716
:100740000B4306E00B461341D0402024A21A9140EF
:100750000843194610BDF7B582B0029C00272078E7
:10076000641C15460197302802D0002D15D015E0E5
:1007700020780127641C782804D0582802D0002D46
:1007800009D00BE0002D01D0102D07D10027102536
:100790002078641C02E0082500E00A250026009667
:1007A00010E00099012769430818020C294680B21D
:1007B000714300908E183804864201D301200190C5
:1007C0002078641C294600F08BF80028E9DA0398A9
:1007D000002805D0002F01D0641E00E0029C0460B8
:1007E0000198002806D003F049FC02210160C81ED0
:1007F00005B0F0BD009930040843F9E710B5002BAF
:1008000008DA0024401C614192185B411A4301D16F
:100810004008400010BDF0B51FB482B005460C0082
:1008200003D0084603F0D6FB02E003F0D3FB2030F0
:100830000246009021462846FFF76AFF049B059A6E
:1008400004460F4618431143084314D0184610437A
:100850001BD0009840210A1A18460599FFF7DEFCC4
:1008600005460E46009A05990498FFF751FF084384
:1008700005D0012004E02046394607B0F0BD002035
:10088000C11705430E432C43374300990E98630567
:10089000401A7905E40A00220C43FD0A0A3002D509
:1008A00000200146E9E70105101969410C9C0D9DE6
:1008B00000196941FFF7A2FFDFE70000064C0125A0
:1008C000064E05E0E36807CC2B430C3C98471034F8
:1008D000B442F7D3FFF7F8FB84950008A49500080D
:1008E0003A2800D23038202302469A43412A01D3C5
:1008F00010463738884201D30020C043704770B596
:100900004B005B0803430BD04B005C0D00263346C5
:100910006542B341D417AD1AA34102DB0020014662
:1009200070BD12053018514170BD00000EB5C217E0
:10093000C10F5040CA0740180021054B0293019295
:1009400000910A460B46FFF766FF03B000BD0000AA
:100950003304000070B5CD0F4A0009030123090BD1
:100960001B0519430B4BED070024520D9A4201DA87
:10097000002070BD074B34339A4203DC9A1AFFF70C
:100980004DFC02E00449511888402C43F1D040420C
:1009900070BD0000FF030000CDFBFFFF10B501207C
:1009A000C00300F0A1F910BD00B5002200F002F86C
:1009B00000BD000030B4054601200D4B5C7A012CCF
:1009C00014D8587A00241C54587A8000C018456006
:1009D0005D7A08482A54587A421C5A72303008709E
:1009E0003A2048702F208870CC70002030BC7047AF
:1009F0004C1F0020541F002030B4014620314A789B
:100A00000023022A05D0042282630B7030BC01202F
:100A10007047026814680E25AC43146002681468BD
:100A20006408640014600125046C2A46C06BA2406F
:100A300042604D700B7030BC0020704770B50024D0
:100A4000014620314A78022A03D00421816301241F
:100A500016E0026813680E25AB4313600268136842
:100A60005B085B0013600125036C2A469A40C36B48
:100A70005A604D7000220A70416B002900D08847EF
:100A8000204670BD70B5044600F006FA0546601CAD
:100A900002D004480078241800F0FEF9401BA04260
:100AA000FAD370BD5C000020F0B5002200295CD0B4
:100AB000012393409E460B40002B52D095082B4CAF
:100AC000AD002D19AC689607360F0F27B7403C4094
:100AD000A4460924E406A04201D1002414E0244CD9
:100AE000A04201D101240FE0224CA04201D10224F6
:100AF0000AE0214CA04201D1032405E01F4CA04292
:100B000001D1042400E00524B44064450FD11C4CFD
:100B100026689E43266066689E436660E6689E433C
:100B2000E660A6689E43A660AB68BB43AB60046802
:100B300055000323AB409C430460D408A400241850
:100B4000266A5507EF0E0F25BD40AE432662C468E6
:100B50009C43C46044687546AC43446084689C43CD
:100B60008460521C0B46D340A2D1F0BD000001406E
:100B70000004004800080048000C0048001000482D
:100B800000040140FEB5534E317A00297ED1012187
:100B9000C90388427ED1504C0920E16BC00611295F
:100BA00001DB002200E00122802100F06EF9E06B01
:100BB000112803DB484805F0C7FB00E0F069454A0F
:100BC000401C921D511EF061481E6B4607C30A204F
:100BD0003056E12109014843F169D31E4018121F24
:100BE000511E07F08AFD707A002804D130790C2854
:100BF00001D90C383071394A3079114601231C3142
:100C000040B207F05BFD354A7079383A114601234E
:100C10001C3140B207F052FD3049F07954390028B8
:100C200039D001230A46B07B1C3A40B207F046FD9A
:100C30002A4DF0793835012832D000243820254952
:100C4000604340190122103105F076FD641C062C2A
:100C5000F4DB8021224806F096FE2148FF21013175
:100C60008030FFF70AFB1E491EA0803103F0A2F975
:100C7000707B1E21401CC0B27073FFF775FA00290B
:100C800008D11748803007F0F3FE00E002E0317B26
:100C900040183073FEBD114A0123703AB079C4E7A1
:100CA000002438200B49604340190122133105F01C
:100CB00043FD641C022CF4DB022438200549604308
:100CC00040190322103105F037FD641C062CF4DBBB
:100CD000BFE7000000000020E002002048010020E3
:100CE000DC0800202573000010B504494A6902425F
:100CF00002D04861FFF746FF10BD0000000401402C
:100D0000F8B400220B68002B72D001270B689740C3
:100D10003B40002B6DD00C79A407A40F012C01D00F
:100D2000022C10D1856854000326A640B543CE6836
:100D3000A6402E4386604468BC430D79ED06ED0F56
:100D40009540254345600C79E443A40708D0C56865
:100D500054000326A640B5438E68A6402E43C660C5
:100D60000C79A407A40F022C0CD1D408A4002718D6
:100D70003D6A5407E40E0F26A640B5430E69A6400F
:100D80002E433E62056854000326A640B5430E7903
:100D9000B607B60FA6402E4306604C68A403A40F06
:100DA0004ED02B4CA56901263543A561A46934407A
:100DB00000949508274CAD002F19BD689407240FA7
:100DC0000F26A640B5430926F606B04201D10026FB
:100DD00016E0214EB04201D1012611E01F4EB04273
:100DE00001D102260CE01E4EB04203D1032607E0DB
:100DF0002BE025E01B4EB04201D1042600E0052681
:100E0000A6402E43BE60184DAC689C434E68F60267
:100E100000D51C43AC60EC689C434E68B60200D51C
:100E20001C43EC606C689C434E68B60300D51C43C1
:100E30006C602C689C434E68F60300D51C432C6004
:100E4000521C0B68D34000D05FE7F8BC704700002D
:100E50000010024000000140000400480008004863
:100E6000000C0048001000480004014000690842DE
:100E700001D00120704700207047426913460B40A3
:100E80001B0491430B4383617047002A01D08161A9
:100E90007047816270470000014880687047000019
:100EA0005C00002070B4024640325378202B02D000
:100EB00070BC022070471378012B1AD001241470E3
:100EC0002423537003681D68A5431D6003681D68D3
:100ED0002603B5431D6003681D680D431D6000684F
:100EE000016821430160202050700020107070BC08
:100EF000704770BC0220704770B40246403253788D
:100F0000202B02D070BC022070471378012B19D01F
:100F1000012515702423537003681C68AC431C60C2
:100F200003681C680F263602B44309022143196086
:100F30000068016829430160202050700020107073
:100F400070BC704770BC02207047000070B504464A
:100F5000002C06D02546403568780026002802D0AF
:100F600005E0012070BD2E70204600F053FA2420C9
:100F70006870206801684908490001600F216068B5
:100F80000906884321680861206882680121C90335
:100F90008A438260E068012830D02122A068920252
:100FA0001043226890600122E068D20202282AD011
:100FB000206843689343436020684268144B1A4397
:100FC00042602068C2688A43C26061692069084340
:100FD000A169090208432168C860216AE0690843E1
:100FE000216808602068016801221143016066647D
:100FF000202068702663AE70002070BDA068226853
:1010000008439060CFE72068436813434360D3E709
:1010100000800002FFB585B004461D460020029006
:10102000264640367278202A02D0022009B0F0BD50
:1010300022689269D243120402D4022009B0F0BDA2
:101040003278012A23D001223270242272700020CB
:1010500060643D4A8805800D8118D2139143049144
:101060003A49401890430390E068012812D0039851
:1010700021684860FFF710FF0746206881698906EC
:10108000C90F8069C006C00F014305D016E00220D9
:1010900009B0F0BD0498EBE7681C06D0FFF7FCFE32
:1010A000C01BA8421BD8002D19D020688169890671
:1010B000C90F8069C006C00F0143EDD02068806968
:1010C000C043C0061DD52B46002220212046009794
:1010D00001F004FF00280CD0012009B0F0BD202051
:1010E0007070616C0143616400203070012009B0B0
:1010F000F0BD21682020C86170700020307009B0F8
:10110000F0BD2B46002220212046009701F0E6FE8C
:10111000002802D0012009B0F0BD21681020C8616C
:1011200021682020C8610298401C0290029907980B
:10113000814299D320207070616C0143616400206A
:101140003070012009B0F0BD00200002002800022C
:10115000FFB581B00446254640356878202802D086
:10116000022005B0F0BD2878012810D00120287099
:10117000FFF792FE064601221923D103204600966E
:1011800001F0ACFE002805D0012005B0F0BD022022
:1011900005B0F0BD222068701020A8700027676499
:1011A00003986062049860856763618D3A48FF29FF
:1011B00008D901222285009013062046029901F0E9
:1011C00077FE0AE0618D21850090208D0123C2B257
:1011D0005B062046029901F06BFE608D002843D02B
:1011E000324620460A9901F0BDFE002802D00120B7
:1011F00005B0F0BD2068406A616A0870606A401CF2
:101200006062208D401E80B22085618D491E6185FF
:10121000618D002925D0002823D10096002280214D
:1012200020460A9B01F05AFE002802D0012005B09A
:10123000F0BD608DFF2809D9FF22228501231B06FE
:1012400000972046029901F033FE0AE0608D208568
:101250000097208D0123C2B25B062046029901F05F
:1012600027FE608D0028BBD1324620460A9901F046
:10127000CDFE002802D0012005B0F0BD206820215D
:10128000C16120684268054B1A4042606970AF70C6
:101290002F70002005B0F0BD0024008000E800FEA3
:1012A000FFB581B00446254640356878202802D035
:1012B000022005B0F0BD2878012810D00120287048
:1012C000FFF7EAFD064601221923D10320460096C6
:1012D00001F004FE002805D0012005B0F0BD022079
:1012E00005B0F0BD212068701020A8700027676449
:1012F00003986062049961856763618DFF2904D951
:10130000FF21218501231B0603E0618D2185012337
:101310005B06228D3D49002A13D022680078906236
:10132000606A401C6062608D401E6085208D401E9A
:101330002085401CC2B200912046029901F0B8FD00
:1013400005E0009100222046029901F0B1FD608D78
:10135000002843D0324620460A9901F087FE002833
:1013600002D0012005B0F0BD606A21680078886273
:10137000606A401C6062608D401E6085208D401E4A
:1013800080B22085618D002925D0002823D10096C8
:101390000022802120460A9B01F0A0FD002802D0F7
:1013A000012005B0F0BD608DFF2809D9FF222285FC
:1013B00001231B0600972046029901F079FD0AE0FF
:1013C000608D20850097208D0123C2B25B062046E8
:1013D000029901F06DFD608D0028BBD13246204698
:1013E0000A9901F013FE002802D0012005B0F0BDDB
:1013F00020682021C16120684268054B1A40426084
:101400006970AF702F70002005B0F0BD0020008023
:1014100000E800FE10B586B0044614216846FEF7C9
:101420002CFF1249206888421ED1114C61690120AD
:10143000800401436161616901400591032000025C
:101440000090122001210190032002910491039049
:1014500069460848FFF754FCE16901204005014353
:10146000E161E1690140059106B010BD0054004002
:10147000001002400004004870B50446002C1DD046
:10148000216817480860216816480860216860686C
:1014900048602168A0688860FFF7FEFC0546206868
:1014A000C068400710D0FFF7F7FC401B272807D97A
:1014B0002068C068400703D0032070BD012070BDC4
:1014C0002068C0684007EED120680269E1688A425E
:1014D00001D0016101E004490160002070BD0000FD
:1014E000CCCC000055550000AAAA000000680249B3
:1014F0000160002070470000AAAA0000024881682D
:1015000002788918816070475C00002010B5064899
:101510000168102211430160002000F007F800F07C
:1015200053F8002010BD00000020024030B50546F1
:101530001F4887B0C26920210A43C261C0690840C0
:10154000049005A9684600F0D9F90398002815D041
:1015500000F0F6F940001749FEF706FE411E174855
:10156000154A0260164AC260416000210161816033
:10157000816100F0A3FF040003D015E000F0E0F962
:10158000E9E70E4800F0FEFF04000DD1122000F044
:1015900043F8042D07D200222946122000F048F813
:1015A0000848056000E00124204607B030BD000077
:1015B0000010024040420F0000140040E40D0020E3
:1015C000E70300006000002008B50A488169012295
:1015D00011438161816911400091C26901040A438C
:1015E000C261C0690022084003210090481F00F03A
:1015F0001FF808BD00100240002809DBC106C90E13
:101600000120884003490860BFF34F8FBFF36F8FFD
:101610007047000080E100E0002805DBC106C90E2C
:1016200001208840014908607047000000E100E0A7
:101630008207D30EFF229A408907090E994000289D
:1016400008DB830809489B001818036893430B4381
:10165000036070470007000F0838830804489B00A8
:101660001818C36993430B43C361704700E400E05B
:1016700000ED00E0BFF34F8F04490348C860BFF39B
:101680004F8F00BFFDE700000400FA0500ED00E009
:10169000F8B504462068484EC0035CD50025F069C3
:1016A000C00007D4F06931040843F061F0690840D4
:1016B0000090012541480168C90517D40068FF2141
:1016C000013108433D490860FFF7E6FB07463B4808
:1016D0000068C0050AD4FFF7DFFBC01B642801D9EE
:1016E0000320F8BD35480068C005F4D5306A0321F1
:1016F00009020840002821D062680A4082421DD0B9
:10170000306A8843326A012109040A433262326A2C
:101710008A4332623062C00710D0FFF7BDFB074634
:10172000306A80070AD4FFF7B7FBC11B2448814207
:1017300001D90320F8BD306A8007F4D5306A03214F
:1017400009028843616808433062012D03D1F069C2
:1017500029078843F0612078C00705D0306BA16865
:1017600080088000084330632078800706D5306BFE
:10177000032109048843E168084330632078800628
:1017800005D5306B102188432169084330632068F8
:10179000800305D5306B80218843A16908433063FD
:1017A0002088400505D5306B402188436169084396
:1017B00030630020F8BD00000010024000700040BF
:1017C00088130000F8B504460D46002C12D0464898
:1017D0000068C007C00FA8420ED2434801684908FC
:1017E0004900294301600068C007C00FA84203D028
:1017F0000120F8BD0120F8BD20683C4E81070CD5C2
:10180000400704D5706807210902084370607068BA
:10181000F0218843A168084370602078C00738D061
:101820006068012808D002280BD003280ED0316848
:10183000890710D40120F8BD316889030BD4012039
:10184000F8BD3168890106D40120F8BD716B8903A8
:1018500001D40120F8BD71688908890001437160D5
:10186000FFF71AFB0746706862680C210840920077
:1018700090420ED0FFF710FBC11B1D48814201D9D9
:101880000320F8BD70680C21084061688900884217
:10189000F0D115480168C907C90FA9420BD90168E1
:1018A00049084900294301600068C007C00FA842E9
:1018B00001D00120F8BD2078400706D570680721C7
:1018C00009028843E1680843706000F049F87168D4
:1018D000084A0906090F515CC84007490860002002
:1018E000FFF724FE0020F8BD002002400010024057
:1018F00088130000689300085800002010B40722E5
:1019000002600A4A53689B079B0F43605368F024A8
:1019100023408360526807231B021A40C2600448B8
:101920000068C007C00F086010BC7047001002407C
:101930000020024001480068704700005800002065
:1019400000B5FFF7F7FF04494968044A4905490F04
:10195000515CC84000BD00000010024078930008B0
:1019600070B51B4B59680C200A4602401948042ADE
:1019700005D0194D082A03D00C2A00D1284670BD85
:101980008A02164C120FA45CDA6A154B1207120F6A
:101990009A5CC903890F022909D003290FD00023BB
:1019A0001946FEF70BFC214602F02BFB70BD00230D
:1019B0001946FEF703FC214602F023FB70BD00230D
:1019C00028461946FEF7FAFB214602F01AFB70BDC5
:1019D0000010024000127A00006CDC0280930008C4
:1019E00090930008F0B583B00446002C0ED0207808
:1019F000F94DC00769D068680007800F01282ED014
:101A000068680007800F022803D007E0012003B0B8
:101A1000F0BD6868C003800F022820D060680128EC
:101A200026D001218904002828D005282FD02A6833
:101A3000881082432A6028688843286060680028EC
:101A400032D0FFF729FA0646286880033DD4FFF715
:101A500023FA801B642823D9032003B0F0BD286833
:101A6000800332D5606800282FD1012003B0F0BD7B
:101A700028680121090408432860DFE72A6801205B
:101A8000000482432A60286888432860D6E72868D3
:101A90000843286028680121090408432860CDE72D
:101AA00028688003D3D510E0FFF7F6F906462868CA
:101AB00080030AD5FFF7F0F9801B642802D90320C0
:101AC00003B0F0BD28688003F4D42078800753D594
:101AD00068680007800F1ED068680007800F022822
:101AE00004D16868C003800F012814D0E068002882
:101AF0002DD02868012108432860FFF7CDF906465C
:101B0000286880071BD4FFF7C7F9801B022813D968
:101B1000032003B0F0BD2868800705D5E0680128E0
:101B200002D0012003B0F0BD2968F820814320696C
:101B3000C000014329601FE028688007E3D52868BA
:101B4000F82188432169C9000843286014E0286807
:101B5000400840002860FFF79FF906462868800784
:101B60000AD5FFF799F9801B022802D9032003B098
:101B7000F0BD28688007F4D4207800072DD5E069EF
:101B8000002815D0686A012108436862FFF784F9CC
:101B90000646686A800720D4FFF77EF9801B02287A
:101BA00002D9032003B0F0BD686A8007F4D514E0C1
:101BB000686A400840006862FFF76EF90646686A86
:101BC00080070AD5FFF768F9801B022802D9032095
:101BD00003B0F0BD686A8007F4D42078042740077A
:101BE00000287DDA0026E869C00007D4E869B90654
:101BF0000843E861E86908400190012677480168D8
:101C0000C90519D40068FF210131084373490860F0
:101C1000FFF742F9029071480068C0050CD4FFF745
:101C20003BF90299401A642802D9032003B0F0BDA1
:101C30006A480068C005F2D5A06801281DD00028B8
:101C400020D0052826D0286A400840002862286A4B
:101C5000B8432862A068002828D0FFF71DF9029039
:101C6000286A800736D4FFF717F90299411A5C48B1
:101C7000814217D9032003B0F0BD286A012108432F
:101C80002862E7E7286A400840002862286AB843CB
:101C90002862DFE7286A38432862286A012108435E
:101CA0002862D7E7286A8007DDD513E0FFF7F4F84C
:101CB0000290286A80070DD5FFF7EEF80299411AC5
:101CC0004748814203D9032003B0F0BD08E0286AE9
:101CD0008007F1D4012E03D1E86931078843E86118
:101CE0002078C00647D56069012816D0401D34D041
:101CF000686B38436863686B400840006863FFF7AF
:101D0000CBF80646686B800735D5FFF7C5F8801B12
:101D100002282DD9032003B0F0BD686B38436863F7
:101D2000686B012108436863FFF7B6F80646686BE5
:101D300080070AD4FFF7B0F8801B022802D90320DD
:101D400003B0F0BD686B8007F4D5686BF821884359
:101D5000A169C900084368630DE0686BB843686314
:101D6000686BF8218843A169C9000843686302E0F1
:101D7000686B8007C9D4207880064CD56868000756
:101D8000800F03281FD068680007800F022804D145
:101D90006868C003800F032815D0206A002825D06A
:101DA000686B0121090408436863FFF775F806466C
:101DB000686B80032FD4FFF76FF8801B022811D9BE
:101DC000032003B0F0BD686B800324D5206A01288E
:101DD00021D0012003B0F0BD00100240007000408F
:101DE00088130000686B8003E5D514E0696B01205F
:101DF000000481436963FFF74FF80646686B800370
:101E000009D5FFF749F8801B022801D90320E1E733
:101E1000686B8003F5D4606A00286BD06968090795
:101E2000890F02294DD00126360602280FD02868D6
:101E3000B0432860FFF730F804462868800159D580
:101E4000FFF72AF8001B022837D90320C2E72868C9
:101E5000B0432860FFF720F807462868800109D5BD
:101E6000FFF71AF8C01B022801D90320B2E728683F
:101E70008001F5D4E86A216B000900010843E8629B
:101E8000A16AE06A084369687B22D2039143084350
:101E90006860286830432860FEF7FEFF0446286823
:101EA000800127D4FEF7F8FF001B022801D9032088
:101EB00090E728688001F5D51CE028688001BFD430
:101EC00018E0012814D06868E96A0322D203A36AE3
:101ED00002409A420AD10907226B090F914205D1AB
:101EE0000F2189040840E16A884203D0012071E78C
:101EF00001206FE700206DE770B50446002C10D07C
:101F000002202546403568772068016840229143C9
:101F10000160204600F080F800202066687728776E
:101F200070BD012070BDF8B50446002C0CD0606A6D
:101F3000002600280AD026616661A6622546403543
:101F4000687F002808D00BE00120F8BD6168C81F39
:101F5000FD38F2D0E661F0E72E77204600F072F807
:101F600002226A77206801684023994301600723B1
:101F7000E1681B02994201D9002001E00120000321
:101F80000F273F02B94202D0994200D0A662FF2338
:101F90006168053319402127A368BF023B401943FC
:101FA00023691340227D1943D207D20F1143012325
:101FB000A2695B021A401143E26938231A401143B7
:101FC000226A80231A401143A26A9B011A401143DE
:101FD00022681160A1690422090C1140626A102371
:101FE0001A401143626B08231A4011430F23E26821
:101FF0001B021A40114301221203104001432068C2
:1020000041602068C16952109143C1612666012078
:1020100068770020F8BD000010B5006806498842C6
:1020200008D10648816982149143816138210448AE
:10203000FEF73AFD10BD00000030014000100240E4
:102040000004004810B586B0044614216846FEF727
:1020500014F91149206888421BD110488269811403
:102060000A43826182690A400592426989010A43F2
:10207000426140690840059038200090022000210C
:102080000190032002910491039069460448FEF7F1
:1020900037FE06B010BD00000030014000100240C5
:1020A00000040048FFB583B004461D4600272646BD
:1020B0004036307F01280AD001203077FEF7ECFE51
:1020C00002900598717F012904D00227B1E0022017
:1020D00007B0F0BD0499002933D00599002930D00C
:1020E0000321717700212166049AA263059AA287D1
:1020F000059AE2872164B180F1802165E1640122C3
:10210000A168D203914209D121680A6840239A4309
:102110000A6021680A681B021A430A6021680A687B
:10212000520603D40A6840231A430A600722E16872
:102130001202914234D96168002904D0012802D0EA
:102140000BE0012775E0A06B21680088C860A06BD8
:10215000801CA063E08F401EE087E08F00284CD0F9
:1021600020688168890709D5A16B0988C160A06BC7
:10217000801CA063E08F401EE08709E0FEF78CFE24
:102180000299401AA84201D3681C05D1002D03D042
:10219000E08F0028E4D130E003270120707748E089
:1021A0006168002901D0012809D1A06B216800785D
:1021B0000873A06B401CA063E08F401EE087E08F97
:1021C00000281AD020688168890709D5A16B097891
:1021D0000173A06B401CA063E08F401EE08709E004
:1021E000FEF75AFE0299401AA84201D3681C11D189
:1021F000002D0FD0E08F0028E4D129462046029A16
:1022000001F0BFF8002801D020202066A068002837
:1022100004D007E00327012070770AE02068C16836
:1022200080680190206E002801D0012701E0012084
:10223000707700203077384607B0F0BDFFB583B027
:102240000C9F044601260020019025464035287F3A
:10225000012810D001202877FEF71EFE0290697F2A
:102260006268069801290ED0D31FFD3B08D1A268F1
:10227000002A05D102E0022007B0F0BD042902D0F7
:1022800002200190E1E00499002926D00599002957
:1022900023D00699002920D0697F042901D0052187
:1022A000697700222266059921640699E9800699DA
:1022B000A9800499A1630699E1870699A187E26440
:1022C000226507230122E1681B021203994207D904
:1022D00021684B6893434B6006E001200190B4E015
:1022E00021684B6813434B6021680A68520603D487
:1022F0000A6840231A430A600721E26809028A42F9
:1023000047D96168002901D001283BD1A06B216821
:102310000088C860A06B801CA063E08F401EE0872F
:1023200030E02068816889070ED5E18F00290BD045
:10233000012E09D1A16B0988C160A06B801CA0632C
:10234000E08F401EE087002620688168C9070CD016
:10235000E988002909D0C068216C0880206C801CA5
:102360002064E888401EE8800126FEF795FD02996A
:10237000401AB84206D3781C04D0032001900120F3
:10238000687762E0E08F0028CBD1E8880028C8D1C8
:1023900043E06168002901D0012838D1A06B216891
:1023A00000780873A06B401CA063E08F401EE0879C
:1023B0002DE02068816889070ED5E18F00290BD0B8
:1023C000012E09D1A16B09780173A06B401CA06399
:1023D000E08F401EE087002620688168C9070CD086
:1023E000E988002909D0007B216C0870206C401C12
:1023F0002064E888401EE8800126FEF74DFD029922
:10240000401AB84201D3781C18D1002F16D0E08FA3
:102410000028CED1E8880028CBD139462046029A40
:1024200000F0AFFF002803D001200190202020669B
:10243000206E002807D00120019006E003200190C3
:102440000120687701E00120687700202877019853
:1024500007B0F0BD70477047F0B402462032137FDA
:10246000012B22D0012616770223537703685D687B
:102470009C687027BD430F682F435F6000680C4B5A
:10248000984208D0B307984205D00A4B984202D030
:10249000094B984204D180239C43496821438160C1
:1024A000567700201077F0BC7047F0BC02207047D0
:1024B000002C0140000400400040014070B504467B
:1024C000002C05D025462035687F002802D006E084
:1024D000012070BD00202877204600F015F802206A
:1024E0006877211D206801F0E3F801204034A071D5
:1024F000A877E87720706070A070E070207160713C
:102500006877002070BD000008B5006801218907C8
:10251000884207D10448C16901221143C161C069E1
:102520001040009008BD000000100240014620311C
:102530004A7F012A01D00120704702224A770068B1
:102540000D490122884208D09107884205D00B49E5
:10255000884202D00A49884208D181684907490F58
:10256000062906D001681143016002E001681143A9
:102570000160002070470000002C01400004004072
:1025800000400140014620314A7F012A01D001204C
:10259000704702224A770168CB6801221343CB605F
:1025A00000680D49884208D09107884205D00B4940
:1025B000884202D00A49884208D181684907490FF8
:1025C000062906D001681143016002E00168114349
:1025D0000160002070470000002C01400004004012
:1025E00000400140F8B50446002625462035287FE6
:1025F000012817D001202877022068772068826898
:102600007727BA43FF231B029A4382600868502849
:1026100038D00EDC202853D006DC002850D01028FB
:102620001ED14DE00220F8BD302849D0402817D1F6
:102630003CE0602830D0702819D001221203801AA3
:102640000FD090420CD1CB684A688968206801F0AD
:1026500081F820688168012292031143816000E0C3
:10266000012601206877002028773046F8BDCB6826
:102670004A688968206801F06DF8206881683943EC
:102680008160EEE7CA684968206801F077F8502158
:10269000206801F06BF8E4E7CA684968206801F037
:1026A0007FF86021206801F061F8DAE7CA684968BC
:1026B000206801F063F84021206801F057F8D0E766
:1026C00022680146104601F051F8CAE77047F8B594
:1026D00004462068C56806690027B107002914DA96
:1026E000A90712D5F91E01610120207720688069B1
:1026F000800703D02046FFF7E9FF05E0204600F001
:102700007EF8204600F07CF82777700717D5680719
:1027100015D504202168C043086102202077206875
:1027200080698005800F03D02046FFF7CFFF05E0CA
:10273000204600F064F8204600F062F82777300762
:1027400016D5280714D508202168C0430861042045
:1027500020772068C069800703D02046FFF7B6FFC6
:1027600005E0204600F04BF8204600F049F82777B6
:10277000F00617D5E80615D510202168C04308617A
:10278000082020772068C0698005800F03D020468C
:10279000FFF79CFF05E0204600F031F8204600F0EE
:1027A0002FF82777F00708D0E80706D00120216826
:1027B000C0430861204600F025F8300608D52806F9
:1027C00006D580202168C04308612046FFF742FEFD
:1027D000700608D5680606D540202168C043086108
:1027E000204600F019F8B00608D5A80606D5202026
:1027F0002168C04308612046FFF72DFEF8BD7047F1
:102800007047000010B500680249884201D1FEF708
:1028100075FE10BD001400407047704770470000FF
:1028200010B500680449884204D1012203490448D4
:1028300000F0E8F910BD0000003801400000002061
:10284000780B0020F8B504462268D06911689368B7
:10285000A24D06462E40002E09D1850607D58D06CD
:1028600005D5A16E002901D020468847F8BD254630
:102870008035002E7FD09A4FDE07F60F0F4037438A
:1028800079D0C70706D0CF0504D5012717626A683B
:102890003A436A60820708D5DA0706D02768022221
:1028A0003A626A6804273A436A60420708D5DA0741
:1028B00006D0236804221A626A6802231A436A60F7
:1028C000020709D520220A40324305D02368082296
:1028D0001A626B6813436B60020509D54A0107D57C
:1028E00001222368D2021A626A6820231A436A60AE
:1028F0006A68002ABAD0800606D5880604D5A16E7B
:10290000002901D0204688476868216889684906FF
:1029100002D42821084228D0204601F02DF8206852
:10292000816849061DD5EFF31081012282F31088DA
:10293000836840229343836081F31088606F00288E
:102940000BD068494163606FFEF778F800288DD09E
:10295000606F416B8847F8BD0DE02046FFF760FFD0
:10296000F8BD2046FFF75CFFF8BD2046FFF758FF93
:1029700000206860F8BD266E012E7DD1C6067BD58D
:10298000CE0679D510231362206881682646490651
:10299000403600294BDA626F1168496889B2002914
:1029A000E8D0378B8F42E5D971839169202934D0E3
:1029B000EFF31081012282F3108802681F01BA43ED
:1029C000026081F31088EFF31081012080F31088FA
:1029D0002068826852085200826081F31088EFF309
:1029E0001081012080F31088206882684027BA4354
:1029F000826081F310882020286000202066EFF399
:102A00001081012080F31088206802689A430260D8
:102A100081F31088606FFDF7EFFF02206066308B56
:102A2000718B401A81B22046FFF7F7FEF8BD318B5B
:102A3000728B891A89B2728B002AF7D00029F5D0DF
:102A4000EFF31082012686F310880668FF272137EE
:102A5000BE43066082F31088EFF31082012080F3FA
:102A600010882068866876087600866082F3108871
:102A700020202860002000E012E02066A066EFF32E
:102A80001082012080F31088206805689D4305604E
:102A900082F31088022060662046FFF7BEFEF8BD74
:102AA000C50208D55B0206D501200005106220464C
:102AB000FFF7B4FEF8BD020607D50A0605D5E16E9C
:102AC0000029F7D020468847F8BD4006FCD54806C7
:102AD000FAD5204600F080FFF8BD00000F08000086
:102AE000200100046539000810B50446002C03D00D
:102AF000E06F002802D007E0012010BD00217820FF
:102B00000155204600F028F82420E067206801687D
:102B1000490849000160606A002802D0204600F0A0
:102B200053FE204601F03CF8012813D0206841688C
:102B30000922D20291434160206881682A22914390
:102B4000816020680168012211430160204600F085
:102B5000A1FE10BD012010BDF0B587B004461421C0
:102B60006846FDF78AFB2268224B01240025224992
:102B7000A4040226032721489A421FD18B692211FF
:102B800013438B618B69134005934A6922434A6161
:102B90004969029521400591C02100910397019652
:102BA00004956946FEF7ACF8002211461B20FEF79B
:102BB0003FFD1B20FEF730FD07B0F0BD104B9A42E1
:102BC000FAD1CA692243CA61CA69224005924A6998
:102BD00022434A61496903972140059103218902F3
:102BE000009104210491019602956946FEF788F848
:102BF000E2E70000003801400010024000040048F5
:102C00000048004070B580231B58202B01D00220C3
:102C100070BD00290AD0002A08D00124836824034B
:102C2000A34209D10369002B02D005E0012070BD49
:102C3000CB0701D0012070BD0023036603685C68E8
:102C400024020BD5EFF31084012585F310881D684D
:102C50000126B60635431D6084F3108801F06CF838
:102C600070BD000010B500680649884209D10648C9
:102C70000178064803F086FD012203490448FFF766
:102C8000C1FF10BD0038014000000020D00200202C
:102C9000780B0020FFB583B004460F461546E06F61
:102CA000202802D0022007B0F0BD002F0AD0002D4E
:102CB00008D00120A168000381420BD120690028BF
:102CC00003D007E0012007B0F0BDF80702D00120D3
:102CD00007B0F0BD0021842001512120E067FEF7FC
:102CE000DBF8029026464036358275820120A168C5
:102CF0000003814202D12069002813D03D460027FD
:102D0000708A00281CD0069800900022802120465E
:102D1000029B01F081F8002806D02020E067032004
:102D200007B0F0BD0025EBE7002D18D0216828780A
:102D300008856D1C708A401E7082708A0028E2D15E
:102D400006980090002240212046029B01F064F882
:102D500000280BD02020E067032007B0F0BD3888A2
:102D60002168C005C00D0885BF1CE3E72020E0678F
:102D7000002007B0F0BD7047FEE701688A69D243C2
:102D8000920701D400228A6200688169C943C90799
:102D900003D081690122114381617047F7B582B088
:102DA000044617460026206881690025CA06214688
:102DB00040310191002A47DA1021C16135E00398C2
:102DC000401C32D0FEF768F8C11B0398814202D83C
:102DD0000398002829D120684168012292031140FC
:102DE000019A92788369DB431B040BD401239B0374
:102DF000994207D0202A05D0416819434160FEF767
:102E00004BF8074620688069C04380060DD5FEF761
:102E100043F8C01B192803D920200543012604E0EC
:102E200020688069C0438006F1D420688069C0436F
:102E3000800601D5002EC2D0002E02D121682020AC
:102E4000C86104200543012621688869C20504D5AC
:102E5000012215431202CA610126410505D5082148
:102E60000D432268C901D1610126800505D50220E4
:102E7000054321680002C8610126002E12D02046B9
:102E8000FFF77BFF20684168084A11404160606C91
:102E900028436064019920204870019900208870BF
:102EA00001990870304605B0F0BD000000E800FE52
:102EB00010B4019C8905890D120411431943214363
:102EC0004900490800684268630D034C23439A4354
:102ED0000A43426010BC7047FF63FF03F8B5044625
:102EE0000E4617461D4620688169304688430BD040
:102EF0000020B84231D129462046069AFFF74EFFFE
:102F0000002803D00120F8BD0120F2E7681C1CD086
:102F1000FDF7C2FF0699401AA84201D8002D14D12E
:102F200020688169304688430DD00020B8420CD11A
:102F3000616C202001436164403460700020A07007
:102F400020700120F8BD0120F0E72068816930463B
:102F5000884304D00020B842CDD00020F8BD012025
:102F6000F9E70000F7B504460F460025264640362F
:102F700040E039462046029AFFF710FF002800D0B3
:102F8000012520688169C94389061CD4002D1AD106
:102F90008169C94349078169C943C90611D4102110
:102FA000C1610420606420682022C26120684168F9
:102FB000154B1940416072700020B07030700125CF
:102FC00001E000206064FDF767FF0299401AB842F3
:102FD00001D8002F0ED1002D0CD120688069C0438C
:102FE000400707D5616C20200143616470700020A8
:102FF0003070012520688069C043400701D5002D4D
:10300000B7D0284603B0F0BD00E800FE70B5044616
:103010000D46164620688069C043800624D5324696
:1030200029462046FFF7BAFE002801D0012070BDD6
:10303000FDF732FF801BA84201D8002D0FD1206878
:103040008069C04380060AD5616C20200143616419
:10305000403460700020A0702070012070BD206896
:103060008069C0438006DAD4002070BD70B5044684
:103070000D46164620688069C043800726D5324633
:1030800029462046FFF78AFE002801D0012070BDA6
:10309000681C16D0FDF700FF801BA84201D8002D48
:1030A0000FD120688069C04380070AD5616C202059
:1030B00001436164403460700020A07020700120E2
:1030C00070BD20688069C0438007D8D4002070BDDF
:1030D00010B504490448FDF767FC0249491E087011
:1030E00010BD0000510000203C000020F0B587B06A
:1030F00014216846FDF7C1F83E4842690121C90420
:103100000A43426142690A4005924269C9000A4382
:10311000426142690A400592426949110A4342618B
:1031200042690A400592426949000A434261406986
:10313000314F08404C110590012221463846FDF7D9
:10314000A4FE092001222D49C006FDF79EFE2C4E4B
:10315000012231462B48FDF798FE009400240125FA
:1031600001950294694638460394FDF7C9FD03278B
:1031700069462548009702950194FDF7C1FD81201D
:10318000009009200294694601950394C006FDF75A
:10319000B7FD022000900920694601970294C006FD
:1031A000FDF7AEFD15480294813800901120019082
:1031B000092069460394C006FDF7A2FD0294694602
:1031C0001048009601950394FDF79AFDE8030090DE
:1031D000112000040190694602940A48FDF790FD11
:1031E000002203210720FEF723FA0720FEF714FA36
:1031F00007B0F0BD0010024000080048C180000088
:1032000007700000000400480014004810B5124880
:1032100010490160114941600021816001614161F3
:1032200081610122C161C2600162FDF78FFE002849
:1032300000D0FEE700210848FDF734FE002800D04A
:10324000FEE700210448FDF757FE002800D0FEE706
:1032500010BD000000540040680A00201A09102028
:1032600010B511480F490160FF210531416000216F
:103270000722816012020161C26001224161520293
:103280008261016210224162C26181620722C262D0
:10329000016308214163FEF746FE002800D0FEE7E7
:1032A00010BD000000300140CC0A002010B586B0EF
:1032B000002400940121144801940294039404947E
:1032C0008907059401602F21846041600461611EBB
:1032D0008461C160FFF7F2F8002800D0FEE701200A
:1032E0000003009069460848FFF77CF9002800D0E9
:1032F000FEE7049404A904480594FFF7ADF80028FC
:1033000000D0FEE706B010BD300B002010B50D4810
:103310000B4901604B21C901416000218160C160FE
:10332000016181610C22C161426101620821416237
:1033300009034163FFF7D8FB002800D0FEE710BD6A
:1033400000380140780B002010B50C480A49016094
:10335000E1214902416000218160C1600161816118
:10336000C1610C22016242614162FFF7BDFB00288E
:1033700000D0FEE710BD000000480040000C002017
:103380007047F8B504460F46154603213B46002218
:10339000C9022046009500F027F82026002804D016
:1033A000206E304320660320F8BD3B46002280217A
:1033B0002046009500F08AF8002804D0206E3043A3
:1033C00020660320F8BD03213B4600224902204627
:1033D000009500F009F8002804D0206E30432066E4
:1033E0000320F8BD0020F8BDFFB585B00E9D044652
:1033F0000E46174600200190FDF74EFD411B089830
:10340000451AFDF749FD0390206801460C310291F1
:103410002D49232209685143090D694304918068AD
:103420003040B8424DD003204002864206D1002FE2
:1034300004D1029800780190694608790898401CE8
:103440003AD0FDF729FD0399401AA84205D2002D74
:1034500003D0049800282BD02BE020684168E0229C
:10346000914341606068C11FFD390CD10121A06802
:10347000C903884202D04911884204D120680168FA
:103480004022914301600121A06A4903884207D18B
:10349000206802688A430260206802680A4302606A
:1034A00001204034607700202077032009B0F0BD70
:1034B00000250498401E0490206880683040B8427F
:1034C000B1D1002009B0F0BD58000020FFB583B095
:1034D00004460E4617460C9DFDF7DEFC411B069880
:1034E000451AFDF7D9FC01902D4800684001000DF8
:1034F00068430290206881683046884311D00020DC
:10350000B84247D00698401C3CD0FDF7C5FC019955
:10351000401AA84207D2002D05D0029800282DD0CD
:103520002DE00120ECE720684168E02291434160F2
:103530006068C11FFD390CD10121A068C903884210
:1035400002D04911884204D1206801684022914389
:1035500001600121A06A4903884207D120680268FE
:103560008A430260206802680A43026001204034F6
:10357000607700202077032007B0F0BD0025029877
:10358000401E0290206881683046884305D00020A4
:10359000B842B7D1002007B0F0BD0120F8E7000025
:1035A000580000207047FF24F534204603F06EFEDB
:1035B000FBE7000010B5FCF7A1FD044605F034FD63
:1035C000002803D001200349000748602046FCF78B
:1035D00099FD10BD00ED00E030B599B0342168468A
:1035E000FCF74BFE00241494159416941C210DA88E
:1035F0001794FCF742FE28200125009008950795B6
:1036000009946846FEF7EEF9002800D0FEE707208F
:1036100014900320159016940121179414A8FEF716
:10362000D1F8002800D0FEE721200D901020119045
:103630000F950DA8FEF72CF8002800D0FEE719B072
:1036400030BD000012480168012211430160416849
:10365000104A1140416001680F4A11400160016841
:10366000012292049143016041683F221204914378
:103670004160C16A09090901C162016B074A114031
:103680000163416B49084900416300218160704733
:10369000001002400CB8FF08FFFFF6FE2CFEFCFFF6
:1036A00010B50248FFF713F810BD0000E40D00202C
:1036B000F0B40268214B0124A407214D984203D0A5
:1036C000A04201D0A84203D17026B2434E683243D3
:1036D0001C4E1D4F98420DD0A0420BD0A84209D0DD
:1036E0001A4CA04206D0B04204D0B84202D0184CC6
:1036F000A04204D103242402A243CC6822438024A4
:10370000A2434C69224302608A68C2620A688262EC
:10371000984206D0B04204D0B84202D00C4A90423F
:1037200001D109690163012141610169C90703D020
:103730000169490849000161F0BC7047002C014053
:1037400000040040004001400044014000200040CF
:103750000048014030B48468FF252D02AC431B02B1
:1037600013430B432343836030BC7047826870234C
:103770009A430A4307210A438260704730B4036AC0
:10378000046A6408640004628469F025AC43120191
:1037900022430A24A3430B438261036230BC704777
:1037A00030B4036A046A1025AC43046284690F25AF
:1037B0002D03AC4312032243A024A3430901194360
:1037C0008261016230BC704710B4818C090707D553
:1037D00001684A680123DB039A43436B1A434A603A
:1037E000818CC90707D001684A6801235B049A43AA
:1037F000836A1A434A60818C890707D501684A6841
:1038000001231B049A43C36A1A434A60818C490707
:1038100007D501684A6801239B049A43036B1A4346
:103820004A60818CC90607D501688A6801231B0399
:103830009A43836B1A438A60818C890607D5016895
:103840008A6801235B039A43C36B1A438A60818CA5
:10385000490612D501684B6801221205046C934396
:1038600023434B60016C914207D101684A680323EE
:103870005B059A43436C1A434A60818C090607D55D
:1038800001684A680123DB04806C9A4302434A6062
:1038900010BC7047F0B583B004462646002780363A
:1038A0007760FDF7F9FA0290206800682546000766
:1038B000603500281CDA2A480090012100224905C1
:1038C0002046029B00F0A8FA002811D0EFF31081E7
:1038D000012080F310882068026880239A430260E8
:1038E00081F310882020E0672F76032003B0F0BD1D
:1038F00020680068400729D519480090012100225E
:1039000089052046029B00F087FA00281ED0EFF3BD
:103910001081012080F3108820680268FF23213382
:103920009A43026081F31088EFF31081012080F345
:1039300010882068826852085200826081F31088E3
:10394000202030602F76032003B0F0BD2020E067F8
:103950003060276667662F76002003B0F0BD000058
:10396000FFFFFF0110B5406A0022014640314A8343
:103970004A82FEF755FF10BD10B4EFF3108201210B
:1039800081F3108801680B68FF242134A3430B6086
:1039900082F31088EFF31082012181F3108801680F
:1039A0008B685B085B008B6082F31088016E0129D5
:1039B0000AD1EFF3108281F3108801680B6810249C
:1039C000A3430B6082F31088202280210A5000213B
:1039D0000166816610BC704710B5EFF310820121BB
:1039E00081F3108801680B684024A3430B6082F3C5
:1039F00010882021C1670021C166FFF7BCF910BD06
:103A000070B5014640318B8B0246803215681446F2
:103A10000268222D04D0906908210843906170BD8E
:103A2000928C456D1A402A80426D921C42654A8BE9
:103A3000521E4A834A8B002AF1D1EFF310830122F0
:103A400082F3108802681568FF262136B543156099
:103A500083F31088EFF31083012282F31088026849
:103A600095686D086D00956083F3108820222260B0
:103A7000002484664466026853681B020BD5EFF38A
:103A80001083012585F3108815680126B606B54315
:103A9000156083F31088026E012A02D0FFF7E2F866
:103AA00070BD0466EFF31083012282F31088026870
:103AB00015681024A543156083F310880268D36944
:103AC000DB43DB0600D41462098BFEF7A6FE70BD53
:103AD00070B5014640318B8B024680321568144622
:103AE0000268222D04D0906908210843906170BDBE
:103AF000928C1A40436D1A70426D521C42654A8B7B
:103B0000521E4A834A8B002AF1D1EFF3108301221F
:103B100082F3108802681568FF262136B5431560C8
:103B200083F31088EFF31083012282F31088026878
:103B300095686D086D00956083F3108820222260DF
:103B4000002484664466026853681B020BD5EFF3B9
:103B50001083012585F3108815680126B606B54344
:103B6000156083F31088026E012A02D0FFF77AF8FD
:103B700070BD0466EFF31083012282F3108802689F
:103B800015681024A543156083F310880268D36973
:103B9000DB43DB0600D41462098BFEF73EFE70BDEA
:103BA00070B504460025A1682069E2690143606997
:103BB0001043014320680268564B1A400A430260D2
:103BC00020684168032212039143E2681143416077
:103BD000A069216A0143206882680B231B029A4373
:103BE0000A4382604C4A20684C49904213D1086BCA
:103BF0008007800F07D0012809D0022809D00328A8
:103C000003D010202CE000202AE0022028E004202D
:103C100026E0082024E0424A904216D1086B032196
:103C2000090408400BD001210904401A09D0401AA8
:103C300009D0884201D1022012E0102010E00020BB
:103C40000EE004200CE008200AE03649884201D149
:103C5000002005E03449884201D1002000E0102016
:103C60000122E369D2033149314E934229D1002820
:103C70001BD002281DD004281DD0082801D0002206
:103C80000125002A41D0616850004A088018FCF7DD
:103C90006BFA01461039B14211D82649014000079C
:103CA000420F0A432068C2602FE0FDF749FE02463A
:103CB000E7E70A46E5E7FDF753FE0246E1E701259F
:103CC00023E0002816D0022818D0042818D008288D
:103CD00001D000220125002A17D061684808801809
:103CE000FCF742FA01461039B1420DD8216880B282
:103CF000C8600AE0FDF724FE0246ECE70A46EAE760
:103D0000FDF72EFE0246E6E701250020A066E066EC
:103D1000284670BDF369FFEF0038014000100240F3
:103D20000044004000480040004C004000127A006F
:103D3000EFFF0000F0FF000070B441650146403124
:103D40000A834A8300248466012382681B03FF25BB
:103D50009A4207D10269002A01D08D8319E02B4ACB
:103D60008A8316E07F26002A09D001252D07AA4262
:103D70000ED10269002A09D03F228A8309E0026934
:103D8000002A01D08E8304E08D8302E08E8300E060
:103D90008C83014680314C6022220A60EFF310824E
:103DA000012181F3108801688C6801252C438C6007
:103DB00082F310888168994202D10169002912D0EA
:103DC000134981660169002910D0EFF310810122A7
:103DD00082F3108800680268FF2321331A430260CF
:103DE00081F310880EE00B498166EBE7EFF3108159
:103DF000012282F310880068026820231A430260BF
:103E000081F3108870BC002070470000FF010000A3
:103E1000D13A0008013A0008FFB583B00C9E044671
:103E20000D4617462068C169284688432BD00020DC
:103E3000B84249D120468030029020380190701C51
:103E40003AD0FDF729F80699401AB0421DD8002E45
:103E50001BD02068016849072ED5802D2CD0402D1D
:103E60002AD0C169C943090712D420680825056210
:103E70002046FFF781FD02984560019900200876F1
:103E8000012007B0F0BD0120D2E7032007B0F0BD4C
:103E9000C069C04300050FD401202168C002086238
:103EA0002046FFF769FD029820214160019900201A
:103EB0000876032007B0F0BD2068C1692846884312
:103EC00005D00020B842BAD0002007B0F0BD0120D4
:103ED000F8E7000010B50248FEF7B4FC10BD000082
:103EE000780B002010B5054802F0EFFA002803D047
:103EF000034801210170007810BD0000D40D00209E
:103F000038000020002910D00948012909D00229D1
:103F100003D0032907D00120704701204002108000
:103F200003E0406800E080681060002070470000F7
:103F3000D40D0020F8B51D4616460F4600240AE0B1
:103F40006002C2193119064803F046FF002801D06B
:103F50000120F8BD641CAC42F2D30020F8BD000083
:103F6000D40D002005480068002801D000207047CB
:103F7000034801210170007870470000D40D002033
:103F800038000020F8B51D4616460F4600240AE00A
:103F90006002C2193119064804F064F8002801D003
:103FA0000120F8BD641CAC42F2D30020F8BD000033
:103FB000D40D00200FB410B503A9044B044A029895
:103FC00000F03CFC10BC08BC04B0184701620008BB
:103FD000B40000202021020C01D010211046020A5A
:103FE00001D010460839020901D01046091F820885
:103FF00001D01046891E420801D0881E7047081A59
:104000007047F0B4040C8BB2264682B25E430D0CAE
:104010001046370C58433604801900217941164662
:104020006E43370C36048019794126466E43891950
:10403000F0BC704730B47446641E2578641CAB42F3
:1040400000D21D46635D5B00E31830BC18470000DA
:104050004900CA020243100000D004204A0D01D0DA
:1040600001221043044A490D914201D10221084323
:10407000012800D105207047FF0700000048704765
:10408000C0000020F7B596B014460021A160D160B1
:10409000179909914D00CD496D088D4205DC17999E
:1040A00061602060002019B0F0BDC949C94E8D4241
:1040B00038DAD32709997F050029C74A179933466B
:1040C00017DDFCF7E3F9B54206D0C44AC44BFCF750
:1040D000DDF96160206009E03A46C14BFCF7D6F992
:1040E000C04AC14BFCF7D2F961602060012019B0D1
:1040F000F0BDFCF727F9B54206D0B84AB84BFCF73B
:1041000021F96160206009E03A46B54BFCF71AF9E5
:10411000B44AB54BFCF716F9616020600020C0433B
:1041200019B0F0BDB1498D42179977DC49004908B3
:104130000746AF4AAF4B0491FCF7B6F90022AE4BED
:10414000FCF700F9FCF706FC0A90FCF7EFFBA24A2B
:10415000334603910290FCF7A7F93A46049BFCF71B
:104160009BF906460F469D4A9D4B03990298FCF722
:104170009BF92A0D01250C9232463B46FCF78CF93F
:1041800061602060032D39D04800410D0C98401A21
:10419000690169181139814230DA98492801794456
:1041A00008960D90081804974368026803990298CE
:1041B000FCF77AF902460B46079106900499089895
:1041C000FCF764F906460F46049B089AFCF764F96D
:1041D000079B069AFCF75AF905918949049079449E
:1041E0000D984018C368826803990298FCF75CF93F
:1041F000059B049AFCF74AF96D1CBDE70998002855
:1042000009DA01226068D207504060600A9819B04C
:104210004042F0BD02E00A9819B0F0BD0903012246
:10422000090B12050E9089181798109140007549D6
:10423000400D40184111C006C00E0D911390202171
:10424000081A14900020069005250790139800285E
:104250000D980CD0401982006B4878448758139908
:104260008F40101841681498C1400F4304E0401972
:10427000810066487844475810993846FFF7C1FED8
:1042800006460A9138460E99FFF7BBFE8A190A9B2B
:104290008A4201D2012100E00021C9188C46AF00FA
:1042A000694679188B684E68C318834201D2012091
:1042B00000E0002096193618002802D0964202D954
:1042C00003E0964201D2012000E00020624612186D
:1042D0004E6068468B60C25128466D1E0028B5DCD2
:1042E0000121029849074018800F13900298059900
:1042F0008000039E049D0B91FCF718FB0746304697
:104300000891FCF7B1F91D22D243FCF7F8FA10909E
:104310000F912846FCF7A8F93D22D243FCF7EFFAAB
:104320000E900D910B98FCF79FF95D22D243FCF79C
:10433000E6FA0B910C900D9B0E9AFCF703F80F9B7D
:10434000109AFBF7FFFF3A46089BFBF7FBFF00259F
:104350000E463A462846089BFCF798F80F9B109AA1
:10436000FCF794F80D9B0E9AFCF790F80B9B0C9AB7
:10437000FCF792F8264A274BFCF796F807460D9172
:10438000254A264B31462846FCF78EF83A460D9BC7
:10439000FBF7D8FF0F4615220C9092061D4B3146B5
:1043A0002846FCF781F83B460C9AFBF7CBFF179A9F
:1043B000002A05DA139A524213920122D207514081
:1043C00061602060139819B0F0BD0000FB21E93F47
:1043D0007CD90240FB21F93F000040543163621A4E
:1043E00061B4D03D7370032E8A19A33BFB21394180
:1043F00083C8C96D305FE43F0000E03FB652000063
:10440000765200000BFCFFFF2A5200001052000001
:10441000182D4454FB21F93D3326A611460B113CBF
:10442000F0B51FB44E00F9207608800584B00F4621
:10443000864204DA0498FCF78DFA002838D0049AF2
:104440003B4610461946FCF72FF8044602462C4816
:104450000D460B460621784400F05CF822462B46B8
:10446000FCF722F8019100903946079B069A0498C0
:10447000FCF71AF80746029120462946019B009A4C
:10448000FCF712F83A46029BFCF700F807460022B8
:104490000091D24320462946FCF731FA194A964248
:1044A0000ADA3A46009BFBF7F1FF0022164B23E0A5
:1044B0000020154909B0F0BD144A964202DD0024DF
:1044C000134D03E001225205B51A002422462B4663
:1044D000FBF7DCFF0646019122462B4600200A49E5
:1044E000FBF7D4FF0D4604463A463046009B01993F
:1044F000FBF7CCFF22462B46FBF7CEFF09B0F0BD01
:10450000CE4F00003333D33F0000F03F0000E93FBF
:104510000000D23FF8B504464F1EC80008382118E5
:1045200015461E46086849683A4606239A4310D045
:104530002A463346FBF7B8FF3A46D200083AA3189A
:104540001A687F1E5B68FBF7FDFE06223B4693431D
:10455000EED1022F23D0042F11D0062F2FD12A46BF
:104560003346FBF7A1FFE36AA26AFBF7EBFE2A469C
:104570003346FBF799FF636A226AFBF7E3FE2A469C
:104580003346FBF791FFE369A269FBF7DBFE2A469E
:104590003346FBF789FF63692269FBF7D3FE2A469E
:1045A0003346FBF781FFE368A268FBF7CBFE2A46A0
:1045B0003346FBF779FF63682268FBF7C3FEF8BD5B
:1045C000F0B51FB4054648000C46F921400889059E
:1045D00086B088420BDA28462146FFF739FD0428C9
:1045E00001D100F071F8284621460BB0F0BD2A46F3
:1045F000234610461946FBF757FF06460F462A4644
:104600002346FBF751FF00902548019132463B4677
:1046100005217844FFF77EFF02901098039100284F
:1046200029D0204A204B01990098FBF73DFF0490C8
:10463000059168460FC8FBF737FF002201910090F3
:10464000D24309990898FCF75AF9019B009AFBF7A5
:104650001DFF32463B46FBF727FF099B089AFBF7F5
:1046600015FF059B049AFBF711FF2A462346FBF72B
:1046700013FF0BB0F0BD0B4630463946029AFBF7EC
:1046800013FF084A084BFBF75DFE019B009AFBF7FE
:104690000BFF2A462346FBF755FE0BB0F0BD00008A
:1046A0000A4F0000495555555555C5BF10B5012253
:1046B000FCF725F910BD002210B51346104611462F
:1046C000FBF75AFF10BD0000034A10B50020110788
:1046D000FCF715F910BD000001FDFFFF02E008C85E
:1046E000121F08C1002AFAD170477047002001E06C
:1046F00001C1121F002AFBD170470000FEB50C4615
:104700004549464E40183146FBF744FD05460091A9
:10471000002902DA88196D1E00900721E81CFBF7BA
:1047200039FD0F0000D5CF1D3D492846FBF732FD6E
:1047300002900E0004D53A480E180298401E0290CE
:1047400038493046FBF726FD0546042800D10325ED
:10475000344835496843301A0190FBF71BFD064683
:10476000192800D11826304801997043081AFF21F2
:104770006E310190FBF70EFD0146042800D10321A4
:10478000FF206E30019A4843101A002903D1002EF1
:104790001AD1002D18D00023C2189C46FF333B329B
:1047A0006E339A4203DB6346D21AFF3A6E3AB30085
:1047B000591864235D434B19FF25029991356943CC
:1047C0005D180021194E03E00123E5E7C01A491CDA
:1047D000735C8342FADD6435891C656121610C29B3
:1047E00003DB0C396D1C65612161A761401CE2612E
:1047F000E121E06009010098FBF7CCFCA0603C21BE
:104800000098FBF7C7FC0D463C21FBF7C3FC256075
:1048100000206160FEBD000080A243C780510100FE
:10482000B13A0200AC8E0000B50500000892000805
:104830000149086070470000C0000020FFB58DB03E
:104840000F460546002606E025280AD0109A0F9943
:1048500090476D1C761C28780028F5D1304611B0A1
:10486000F0BD00240121674A009400E004436D1C60
:104870002B780846203B98401042F7D128782E2804
:1048800015D10420044368786D1C2A280AD101CF71
:104890006D1C00900BE000990A22514330394018FA
:1048A0006D1C00902878014630390929F3D9287801
:1048B000692843D006DC0028D0D063280BD06428B8
:1048C00004D13BE073280FD075284CD0109A0F9973
:1048D0009047761C94E03878694608720020487248
:1048E00002A80190012003E0386801900020C04335
:1048F0003F1D61070CD5002400E0641C00998C4228
:104900000FDA8442F9DB0199095D0029F5D108E04D
:10491000002400E0641C8442FCDB0199095D00294D
:10492000F8D1361907E0019801990078491C0191E6
:10493000109A0F999047641EF5D261E00A20019009
:1049400001CF002802DA40422D2102E0210504D5E2
:104950002B216A461172012103E0E10701D02021D9
:10496000F7E70C9104E00A20019001CF00210C919F
:104970000BA90B9108E00199FBF7F6FB0A460B998E
:104980003032491E0B910A700028F4D10B9803A90C
:10499000081A20300190600701D5009801E001203D
:1049A00000900199884203DD01460198081A00E051
:1049B00000200024009006E002A8109A005D0F99E4
:1049C0009047641C761C0C988442F5DB04E0109A36
:1049D00030200F999047761C0099481E00900029BE
:1049E000F5DC08E00B980B990078491C0B91109AA4
:1049F0000F999047761C0199481E01900029F1DC1F
:104A00006D1C28E709280100F8B5044641682A48CA
:104A10000268207A511A00282CD025460935022830
:104A200022D0032827D0012824D127786078874214
:104A300020D01E291ED80846FBF716FE00221F4B69
:104A4000FBF732FD064600221D4B0091FBF724FDCB
:104A5000FBF718FE785530460022194B0099FBF7FA
:104A600071FCFBF70FFE03E0217800204855FF2082
:104A700061784855F8BD1046FBF7F6FD114A124B18
:104A8000FBF712FD03F0EEFB00220D4BFBF70CFDD4
:104A900000220E4BFBF756FC06460F460022084B41
:104AA000FBF722FE01D2064F002621780020485550
:104AB00030463946D5E700001800002000002140AC
:104AC00000E06F409A9999999999B93F00C0724056
:104AD00010B5102101704170002141600172817692
:104AE000C17611210930FBF7C8FB10BD2D4F2E48B0
:104AF0002C4C81690025491CA83C81611C2068431D
:104B00000019FFF781FF38206843C01901F072FDDA
:104B10006D1C062DF2DB0025224AAA20B83A10703F
:104B20001C202946414310461030091848780228B5
:104B300001D0032801D1AB20107001200B185B7A43
:104B40005B0880331354401C0B28F7DB0B200B1839
:104B50005B7A5B0880331354401C0D28F7DB284632
:104B600038210D244843C619E00031180846803822
:104B70008039006A496AFBF785FD0006410E094845
:104B80008031B8380155641C102CEDDBEAB21021DD
:104B900003F0B6FB6D1C062DBEDB112002F076FB88
:104BA000A5E70000800100200000002010B50446A9
:104BB00001202070FCF770F9606010BD70B50E46E2
:104BC00004460025FCF768F9002E02D0012E04D01F
:104BD0000FE0217801290BD00BE02178002908D1C2
:104BE00061687D220125411AD200914200DD022533
:104BF00060602670284670BD10B50446E01D002296
:104C0000FF30FA300271521E0263204602F080FA31
:104C1000002801D0032010BD2046FF30E130C17FC5
:104C2000807F090201431448814201D0022010BD57
:104C300020462030427E817D12061143027EC07DD7
:104C4000120400020243114308020C49884201D1B8
:104C5000002010BD4034627DA07C12061043227DEE
:104C6000E37C12041B021A4310430002884201D164
:104C7000002010BD012010BD55AA0000004641547F
:104C800000E0401C0278002A01D08A42F9D1007865
:104C900070470000F0B400221346FF301A4EFF3078
:104CA00002300C2454433559002D0CD00768BD4206
:104CB0000AD1A41965688768BD4205D12489C588D1
:104CC000AC4204D000E00123521C022AE9D3022A9C
:104CD00002D0002914D109E0002B04D1022902D00E
:104CE000F0BC12207047F0BC002070470C204243FB
:104CF00090194089C11FF93902D0F0BC00207047DB
:104D0000F0BC102070470000341F002030B4002198
:104D1000064B00240C224A439D58854200D19C50EA
:104D2000491C0229F6D330BC70470000341F002014
:104D300010B50A46FF30FF300230446A241D006877
:104D4000FF30FF3002308178500AFBF70DFA02CCB9
:104D5000002904D0884204D22168081810BD002020
:104D600010BD401A241DF2E7891EFF30FF300230CB
:104D70008269921E8A4201D8002070478278C06AF8
:104D80004A4310187047000000B54A00224B5208F1
:104D900087B09A4202DC0022134625E01F4B9A425C
:104DA00008D1002808D10120FFF742FDFFF783FC5E
:104DB00007B000BD9A4203DBFFF778FC07B000BDE7
:104DC00002AAFFF75FF98107890F0BD001200129A3
:104DD0000ED0022916D0009002A80FC8FFF7F0FBF2
:104DE00007B000BD02A80FC8FFF71AFB07B000BD4F
:104DF000009002A80FC8FFF7E3FB0122D207514041
:104E000007B000BD02A80FC8FFF70AFB0122D207B6
:104E1000514007B000BD0000FB21E93F0000F07FDA
:104E200030B50446002002460EE0030AA55C0002ED
:104E300003436B401806000F5840030343409BB2E6
:104E40001806C00C5840521C8A42EEDB30BD484068
:104E500000218922030600D550404006000E491C5F
:104E60000829F7DB70470000F3B581B00F46019DBC
:104E7000FF35FF350235002F08D03946019801F083
:104E8000D2F902280AD2012003B0F0BD2E69002E0B
:104E900002D0A869B04207D8012605E0411CF3D032
:104EA000A9698142F0D83E463446641CA869A042F4
:104EB00005D80224022E02D2002003B0F0BD214604
:104EC000019801F0B0F9002808D0411CF5D0012864
:104ED000F3D0B442E9D1002003B0F0BD114A21461D
:104EE000019802F065FC002806D1002F04D022466C
:104EF0003946019802F05CFC002805D001280ED04C
:104F00000124204603B0F0BD2C616869411CF8D033
:104F1000401E68616879012108436871F1E7002447
:104F2000E443EEE7FFFFFF0FF3B583B004990F688A
:104F300000E07F1C39782F29FBD05C29F9D0FF30A5
:104F4000FF300230806902900B222021029801F08C
:104F500036FD00252E460095082001900099481C3A
:104F600000907C5C202C0CD92F2C0AD05C2C08D013
:104F70002E2C02D00198864216D3019808280AD117
:104F800007E00098391804980160202C2ED80420DE
:104F90002DE02E2C02D0062005B0F0BD08260B20F7
:104FA0000190A806050ED9E7802C02D3062005B093
:104FB000F0BD21461FA0FFF763FE002802D00620A7
:104FC00005B0F0BD20464138192802D8022005431B
:104FD00007E020466138192803D801200543203C0A
:104FE000E4B230460299761C0C54B7E70020002E3C
:104FF00004D002990978E52903D005E0062005B020
:10500000F0BD029905220A700199082901D1A9066B
:105010000D0EA907890F012901D110210843290785
:10502000890F012901D1082108430299C872002083
:1050300005B0F0BD222A2B2C3A3B3C3D3E3F5B5D48
:105040007C7F000010B4401E022813D20C210B4BB1
:105050004843C2185189CC1FF93C00D100210029D6
:1050600001D0491E89B25181002900D1195010BCCC
:105070000020704710BC022070470000341F002041
:105080000449096809684A6A4B6A9B1A8342FBD340
:10509000704700003000002010B502490860FDF79D
:1050A00045FA10BD30000020F8B507460E46002135
:1050B000384600F010F9002816D10025FC1DFF34F9
:1050C000FA342169206802F023F800280CD16169C4
:1050D0000978E5290CD000290AD00025012138469D
:1050E00000F034F80028ECD0042800D10720F8BDE7
:1050F0006D1CB542F8D0F1E770B506460021304688
:1051000000F0E9F800281ED1F41DFF34FA342169BB
:10511000206801F0FDFF0546280013D16069017881
:10512000002911D0C17A090705D40B22A16901F029
:105130002DFC002806D00021304600F007F8054677
:105140002800E4D0284670BD0425FBE7F8B50D46DD
:10515000C41DFF34FA34E7887F1C3804000C05D0E6
:105160002069002802D0390702D085E00420F8BD6C
:10517000401C2061E16800290DD0434B20683A09AA
:105180001B5C5B1E1A4277D101F04DF80646012EDA
:105190000AD80220F8BD2068FF30FF3002300089B5
:1051A000B84269D80420F8BD701C1BD020680246A4
:1051B000FF30FF3002308069B04257D8002D13D045
:1051C0001046E168FFF750FE064630000ED0012E73
:1051D0000ED0701C0ED0206803F05AF900280BD0B6
:1051E0000120F8BD0120F8BD0420F8BD0720F8BD5E
:1051F0000220F8BD0120F8BD0122520200212068E2
:1052000001F0DDFB31462068FFF7AEFD2168FF317C
:10521000FF310231086300252068FF30FF30023083
:10522000807800281BD921680120FF31FF3102312D
:105230000871206803F02CF9002801D00120F8BD86
:105240002068FF30FF300230016B491C01636D1C88
:105250002068FF30FF3002308078A842E3D8206811
:10526000FF30FF300230016B491B0163E6603146BD
:105270002068FFF779FD2061E78039072068C90DB4
:10528000401860610020F8BD0202000070B50446BD
:1052900001212046FFF708FF0546002D19D1FF34F4
:1052A000FF3402342169206801F032FF0546002DE9
:1052B0000FD120220021606901F081FB0B22A1693E
:1052C000606901F071FB20680121FF30FF3002307E
:1052D0000171284670BD70B50D46C41DFF34FA3407
:1052E000E580A368012B06D02068FF30FF30023034
:1052F0008169994201D8022070BD002B03D1017849
:10530000032900D1836A002B15D080780601B542AD
:105310001DD31946206800F086FF0346581C11D0A3
:10532000022B06D32068FF30FF300230806998429C
:105330000AD8022070BD0189A94201D8022070BD9F
:10534000806A08E0012070BDAD1BB542E1D219466C
:105350002068FFF709FDE360002809D02909081833
:10536000206129072068C90D40186061002070BDC8
:10537000022070BD10B5002208490B5C002B0AD139
:1053800001220A540A18800040184068127A016805
:10539000104688470246104610BD00004C1F0020F2
:1053A00030B4054B1C188000C0184068247A03698B
:1053B000204630BC184700004C1F002030B4054C7C
:1053C00025188000001940682D7A84682846A44674
:1053D00030BC60474C1F002004490A188000401868
:1053E0004068127A41681046084700004C1F0020B0
:1053F00030B4054C25188000001940682D7AC46827
:105400002846A44630BC60474C1F002010B503F06E
:105410000DFA01F0D1FECC2001F018FFBE2001F002
:1054200015FF0921054801F0BBFE03F00BFA034804
:10543000417802780802104300B210BD5C0A0020D7
:1054400010B503F0F3F901F0B7FECC2001F0FEFE39
:10545000442001F0FBFE03F0F5F910BD3EB5C41188
:1054600006210C406946087245200871FF20F5307E
:105470000090A02021460143012302AA0848FBF71F
:105480000FFF7D20C0000090A12021460143012391
:1054900001AA0348FBF75CFE694608793EBD00009F
:1054A000680A00207CB50D460446FFF7D7FFA842E6
:1054B00017D0E10906200140684604714571FF24B8
:1054C000A020F5340143022301AA06480094FBF70B
:1054D000E7FE23460122A0210248FBF79BFD00289E
:1054E000F7D17CBD680A00200020084900E0401C7C
:1054F000022804D20C2242438A58002AF7D10228FB
:1055000001D001207047002070470000341F0020A8
:1055100070B50546284600F0E8FA0446002C14D180
:10552000284603F081FA0446002C0ED1FF35FF35E2
:1055300002352E68A86AFFF785FD0446002C00D1CD
:1055400028600021304603F004F9204670BDF3B511
:1055500087B00D46079803F067FA0590079C0598F9
:10556000FF34FF340234002806D02068059903F088
:10557000F0F8059809B0F0BDE179002905D0206860
:1055800003F0E7F8E07909B0F0BD606A002871D057
:10559000691C35D0E068A84200D20546A560002D00
:1055A00067D0691E0798FFF7C3FB0146606120685A
:1055B000FFF7DAFB0146080069D020686D1EFF3056
:1055C000FF30023083786A0A5B1E1A405518218921
:1055D000C9054ED0A269AA424BD0A179490663D52C
:1055E000407801230799FFF703FF002858D00120D6
:1055F000E0710121206803F0ACF8012009B0F0BD92
:1056000002C80191009002262169002929D0029147
:105610000025B61C0F466D1C206800F004FE0146F4
:10562000012908D80220E0710221206803F091F8D6
:10563000022009B0F0BD481C1DD07F1CB942E9D042
:105640000198864206D8009805600098001D029ACD
:1056500004C000902068FF30FF300230806988422B
:10566000D5D8606A0660019886420DD8009800215E
:1056700001600DE12FE00120E0710121206803F0BD
:1056800068F8012009B0F0BD1120059000E102206A
:10569000E0710221206803F05CF8022009B0F0BD3F
:1056A000A079BF210840A07120680123FF30FF309E
:1056B000023040782A460799FFF780FE002808D07C
:1056C0000120E0710121206803F043F8012009B0B6
:1056D000F0BDA561DCE0E068A84203D2A1798907AA
:1056E00000D40546A068039000200490A060002D1F
:1056F0007DD020680690FF30FF300230807846026F
:105700000398002813D03146681EFAF72DFD07468E
:1057100003983146401EFAF727FD874207D30398C6
:10572000401E711E8843A0602D1A61690CE021693A
:10573000002908D10698FFF797FB0146012911D0EF
:10574000481C18D021616161002956D0B54245D965
:10575000A07980071AD52068FFF786FB014600294B
:1057600012D017E00220E0710221206802F0F1FF60
:10577000022009B0F0BD0120E0710121206802F093
:10578000E8FF012009B0F0BD354627E0206800F0B1
:105790004AFD0146481C11D0012906D92068FF3076
:1057A000FF3002308069884211D80220E071022166
:1057B000206802F0CEFF022009B0F0BD0120E071A8
:1057C0000121206802F0C5FF012009B0F0BD616130
:1057D000A0688019A060AD1BB542B9D8A068401977
:1057E000A060E80509D02068FFF7BEFA00E004E0F9
:1057F000002820D0690A081804902089C0053ED0EE
:10580000A269049882423AD0A079400620D5206847
:105810000123FF30FF30023040780799FFF7E8FDA1
:10582000002811D00120E0710121206802F091FFD1
:10583000012009B0F0BD0220E0710221206802F0D1
:1058400088FF022009B0F0BDA079BF210840A071F7
:1058500020680123FF30FF3002304078049A079916
:10586000FFF7ACFD002808D00120E071012120687D
:1058700002F06FFF012009B0F0BD0498A061E1685B
:10588000A068884204D9E060A07920210843A07173
:105890002068059902F05DFF059809B0F0BD000091
:1058A000F7B582B00398019001A800F029FD0546E4
:1058B000280002D50B2005B0F0BD1F4FAE00BC592B
:1058C000002C0CD02046FFF721FAFF34FF340234BD
:1058D000E06800F09DFA00281BD00020207002989C
:1058E00000280CD00021012252021154832189008A
:1058F000EAB24118104600F07BFA00280CD002985A
:10590000B851002802D00498012808D0002005B022
:10591000F0BD022005B0F0BD022005B0F0BD0022B0
:1059200003A902A800F088FA04462146029802F072
:1059300010FF204605B0F0BDB0000020F7B5FFB065
:105940008FB0002810D0C71D0021FF37FA3739600B
:10595000D606F60E720852008FA986A800F06CFADF
:105960000546280004D0B8E07FB0092012B0F0BD91
:1059700003A88C9006A88F9900F006FC05468B9C26
:10598000002D0CD1002C03D0700803D0012102E0BF
:10599000062504E0002106A8FFF77CF90546F0067D
:1059A000400F56D0002D0FD0042D09D1FFF79CFDDC
:1059B000002804D006A8FFF769FC054600E0122580
:1059C000082006438B9C08E0E07A1121084201D0B0
:1059D000072502E0700700D50825002D45D13007C6
:1059E00043D50020A073E073C42121744621617463
:1059F000E07220776077A077E0772146869800F004
:105A0000E7FD01900021204602F0D8FC8698012194
:105A1000FF30FF30023001710198002825D08698B0
:105A2000FF30FF300230006B02900199869801F040
:105A300073FF0546280018D186990198FF31401E52
:105A4000FF31023108610299869801F061FB054639
:105A50000BE0002D09D1E07AC10601D5042504E050
:105A6000B10702D5C00700D00725002D16D1300799
:105A700001D5202006438698FF30FF300230006BAE
:105A8000F8613C62700801D0012100E0002106A805
:105A900000F04CFDB862002800D10225002D1CD179
:105AA000BE710026FE712146869800F091FD386196
:105AB000E17F207F09060843A17F627F090412026B
:105AC00011430843F860BE60BE617E62869838600C
:105AD000FF30FF300230C088B8802946869802F037
